S01A00003038756172745F7072696E74665F546573742E73726563F5
S31500000000D0320020511100007D0F00004D1100007C
S315000000104D1100004D1100004D1100004D11000062
S315000000200000000000000000000000004D1100006C
S315000000304D110000000000004D1100004D110000A0
S3150000004079080000E90700000909000051090000CD
S31500000050000000000000000000000000000000009A
S31500000060000000000000000000000000000000008A
S31500000070000000000000000000000000000000007A
S31500000080000000000000000000000000000000006A
S31500000090000000000000000000000000000000005A
S315000000A0000000000000000000000000000000004A
S315000000B0000000000000000000000000000000003A
S315000000C0000000000000000000000000000000002A
S315000000D0000000000000000000000000000000001A
S315000000E0000000000000000000000000000000000A
S315000000F000000000000000000000000000000000FA
S3150000010000000000000000000000000000000000E9
S3150000011000000000000000000000000000000000D9
S3150000012000000000000000000000000000000000C9
S3150000013000000000000000000000000000000000B9
S3150000014000000000000000000000000000000000A9
S315000001500000000000000000000000000000000099
S315000001600000000000000000000000000000000089
S315000001700000000000000000000000000000000079
S315000001800000000000000000000000000000000069
S315000001900000000000000000000000000000000059
S315000001A00000000000000000000000000000000049
S315000001B00000000000000000000000000000000039
S315000001C0FFFFFFFFFFFFFFFFFFFFFFFFFFFFFFFF39
S315000001D0FFFFFFFFFFFFFFFFFFFFFFFFFFFFFFFF29
S315000001E0FFFFFFFFFFFFFFFFFFFFFFFFFFFFFFFF19
S315000001F0FFFFFFFFFFFFFFFFFFFFFFFFFFFFFFFF09
S3150000020010B5054C237833B9044B13B1044800E00C
S3150000021000BF0123237010BD9000002000000000E5
S315000002205435000008B5034B1BB10349034800E0F1
S3150000023000BF08BD000000009400002054350000F7
S3150000024001F0C4B8022800D07047024B0248596832
S3150000025000F02ABDA8310000AC00002008B5FFF769
S31500000260EFFF002008BD00BF10B400240122036A7E
S3150000027044609C70C3692D4993F905304FEA531CBD
S3150000028003F01F0302FA03F30CF1200C41F82C30A3
S31500000290BFF34F8FBFF36F8FC36993F90B304FEAEC
S315000002A0531C03F01F0302FA03F30CF1200C41F870
S315000002B02C30BFF34F8FBFF36F8FC36993F90730AD
S315000002C04FEA531C03F01F0302FA03F30CF1200C50
S315000002D041F82C30BFF34F8FBFF36F8FC36993F98B
S315000002E009304FEA531C03F01F0302FA03F30CF123
S315000002F0200C41F82C30BFF34F8FBFF36F8FEFF315
S31500000300108182F31088C369094A93F800C04FF040
S315000003100043506823FA0CF303435360536881F398
S31500000320108820465DF8044B704700BF00E100E0EE
S315000003300040084003460020C3E90512704700BF8D
S3150000034010B4046AA37803F07B03A370837803F0E8
S315000003500303D21A0B440261A278C360837842F089
S31500000360800203F00303022BA27005D00B78002055
S31500000370E3705DF8044B70470B88002043F47E431E
S31500000380E3815DF8044B704784460020CCE90A32CD
S31500000390CCF82410704700BF70B586460024DEF8FE
S315000003A020304D7893F802C00A780CF00B069E7048
S315000003B0CEF80C4020468C7802F05C025C7093F814
S315000003C000E00CF07B0C65F3010E83F800E0C978C1
S315000003D09974D97901F0A3010A43DA7183F802C04E
S315000003E070BD00BF4FF0FF330020C1E900337047F6
S315000003F08B0711D5002210B4046AC907A37803F04D
S315000004007B03A3701346026102D500221346826164
S3150000041018465DF8044B7047CA074FF0060302D52D
S315000004200022134682611846704700BF0346002229
S3150000043010B49C6910460C605DF8044B9A617047D5
S31500000440F0B5846A85B005460F4694466E46B4B14B
S3150000045094E80F0086E80F00EB6920461B7884F8C5
S3150000046004C02360EB6AC4E902736B6A9847AC6AFE
S315000004701CB196E80F0084E80F0005B0F0BD3446C5
S31500000480EAE700BF0022F0B501240B78027003F5FD
S31500000490800303F58C531B0203624B698D6943622B
S315000004A08378C16164F301038262C56283704B780D
S315000004B023B90222837862F301038370012491F940
S315000004C00B50C44A6B0905F01F07203304FA07F7DF
S315000004D08E7A42F82370BFF34F8FBFF36F8FBE4BF8
S315000004E005F1C00753F827C06FF3104C43F827C037
S315000004F053F82770B94F360102EB050CF6B28CF8AB
S31500000500006347F8250091F905500E794FEA551C0E
S3150000051005F01F0E0CF1200C04FA0EFE42F82CE03A
S31500000520BFF34F8FBFF36F8F05F1C00C53F82CE06C
S315000005306FF3104E43F82CE053F82CC0360102EB53
S31500000540050CF6B28CF8006347F8250091F90750C0
S315000005508E794FEA551C05F01F0E0CF1200C04FA9B
S315000005600EFE42F82CE0BFF34F8FBFF36F8F05F1FD
S31500000570C00C53F82CE06FF3104E43F82CE053F800
S315000005802CC0360102EB050CF6B28CF8006347F876
S31500000590250091F909500E7A4FEA551C05F01F0EF9
S315000005A00CF1200C04FA0EFE42F82CE0BFF34F8F3C
S315000005B0BFF36F8F05F1C00C53F82CE06FF3104EAC
S315000005C043F82CE053F82C303301DBB22A4482F88E
S315000005D0003347F82500EFF3108584F310884FF0B9
S315000005E000447F4B0E785A68F44022EA04025A60AF
S315000005F05B6885F31088002240F2F934036A40F202
S31500000600F9359A701A715A729A72DA725A830A789E
S3150000061024FA02F2D60744BF4022DA740622CC69D5
S315000006201A770A784E78D540ED078F78CA7848BF92
S315000006304FF478414FEAC20248BF9982032E42EA3C
S31500000640071200F0C280002E14BFF221E221D2B2BE
S315000006501A709971227B082A0EBF0A22520002F0F4
S3150000066002025A736278A178D201490101F0200191
S31500000670D2B20A430021197294F800C0ACF102010B
S31500000680012940F29880D2B2DA7162689178557881
S315000006905970197865F301011970D1781278997437
S315000006A0D97902F05C0201F0A3010A43DA71002253
S315000006B0C16902618261C260426191F90550464B8F
S315000006C005F1C00153F8216062F3104643F821603A
S315000006D053F82110BFF35F8F01266909890005F0E1
S315000006E01F0501F1604101F5614106FA05F5C1F802
S315000006F080510D60C16991F90B5005F1C00153F8A5
S31500000700217062F3104743F8217053F82110BFF3AC
S315000007105F8F6909890005F01F0501F1604106FA3E
S3150000072005F501F56141C1F880510D60C16991F986
S3150000073007E00EF1C00153F8215062F3104543F86B
S31500000740215053F82110BFF35F8F4FEA5E118900E5
S315000007500EF01F0E01F1604106FA0EF501F561413A
S31500000760C1F880510D60C16991F9091001F1C00508
S3150000077053F8257062F3104743F8257053F8253077
S31500000780BFF35F8F4B099B0001F01F0103F160432C
S315000007908E4003F56143C3F880611E60036A0CF066
S315000007A0030C4CF0700C618983F802C00D4B01817B
S315000007B043601046F0BDFF21BCF1020F08BF42F0B6
S315000007C01002D2B25970DA7171E7F22142F040029A
S315000007D03DE700BF00E100E0006000402801002086
S315000007E0004008405549435330B4EFF30383103BB0
S315000007F01F4A5BB203F1C00152F821006FF31040AB
S3150000080042F8210052F821201A4A52F82300C369FF
S315000008101B691BB103691BB130BC704703697BB907
S31500000820D0E908240021937803F07F0343F0040302
S315000008309370C160002CEFD030BC8022FFF700BE61
S31500000840827802F003010229C1680BD0046A91F88C
S3150000085000C084F803C002F003029B1A0A44C0E9F0
S315000008600323D8E70C88056A44F47E44EC81F2E75A
S31500000870006000402801002010B582B0EFF303832A
S31500000880103B1F4A5BB203F1C00152F821006FF31F
S31500000890104042F8210052F821201A4A52F823400B
S315000008A0A27802F00303022B236A0CBF198A597936
S315000008B0A3690CBFC1F30801C9B2019143B9636AC8
S315000008C0B3B10422204602B0BDE81040FFF7B8BD20
S315000008D002F0030201A9606900F09FFFD4E9052137
S315000008E0A37803F003031A44C91AC4E9052109B120
S315000008F002B010BD636A002BFAD00122E2E700BF06
S31500000900006000402801002010B5EFF303830E4A73
S31500000910103B5CB252F82400D0E90821937803F02A
S315000009207B03937019B102220021FFF789FD074A64
S3150000093004F1C00352F823106FF3104142F823105C
S3150000094052F8233010BD00BF28010020006000408F
S3150000095010B5EFF303831A4A103B5CB252F8240039
S31500000960837803F00303022B036A0CBF198A5979B3
S3150000097093F804C00CBFC1F30801C9B21CF0100FF4
S315000009800CF0380206D093F81CC01CF0010F08BF0B
S3150000099042F0400293F804C00CF0C70C83F804C080
S315000009A0436A0BB1FFF74CFD064A04F1C00352F847
S315000009B023106FF3104142F8231052F8233010BD74
S315000009C028010020006000400022034610461A60FD
S315000009D0704700BF0B0A10B41B01064C53FA81F195
S315000009E054F821300020C3F340035DF8044B137024
S315000009F0704700BF00080840090A490101F180411B
S31500000A0001F500214B68002013807047090A49014F
S31500000A1023EA020C01F180411A4001F5002142EA65
S31500000A200C4200208A6070470123C8B283404AB94D
S31500000A301A040B0A5B0103F1804303F5002300202F
S31500000A409A6070479AB2F4E7090A490101F18041B8
S31500000A5001F5002110B40C6802EA030C4CEA040C00
S31500000A6062EA030202EA0C0200205DF8044B0A6007
S31500000A70704700BF090A490101F1804101F50021D3
S31500000A804B680020C3F30F4313807047012310B453
S31500000A904FEA112C4FEA4C1C0CF1804C0CF5002C43
S31500000AA0DCF80440C9B203FA01F18BB201EA144141
S31500000AB0C91AB1FA81F1490900205DF8044B117099
S31500000AC0704700BF090A490123EA020C01F180417F
S31500000AD01A4001F5002142EA0C420020CA60704724
S31500000AE0012A14D04FF480300B0A5B0103F18043D6
S31500000AF003F5002310B4CAB2DC6800FA02F22243FE
S31500000B00120C120400205DF8044BDA6070470B0AE1
S31500000B105B0103F1804303F50023D868C9B28A401C
S31500000B20024392B20020DA60704700BF2DE9F84F09
S31500000B300388002B3DD007464FF00008DFF8A4A03D
S31500000B4040F202427B684FEAC80559198988002499
S31500000B5091424FF00109224E09D00134032C23D0D3
S31500000B607B6836F8022B591989889142F5D15B5971
S31500000B7009FA04F203F0B853B3F1807F5FFA82FBFF
S31500000B8019D09AF8BB341A42E7D0012000F092FA45
S31500000B909AF8BB34012023EA0B0B8AF8BBB4013464
S31500000BA000F058FA032CDBD13B8808F101084345D5
S31500000BB0C6D8BDE8F88F9AF8BB2409FA04F31342A5
S31500000BC05FFA83FBC9D1012000F074FA9AF8BB34AE
S31500000BD001204BEA030B8AF8BBB400F03BFABCE7F2
S31500000BE03633000000E00140F8B50446FFF79EFFEB
S31500000BF0EFF31082012383F31088284E33681BB964
S31500000C002749CB704023CB7033680133336082F3BE
S31500000C10108823887BB3626803F1FF3E1FFA8EFEBD
S31500000C2002F108011F4C01EBCE0E08E0D2B21B0107
S31500000C3013448E450A4644F823001CD00831106838
S31500000C40928810F4803F4FEA1223EFD0130AD2B2F3
S31500000C5002EB031C54F82C701B01134420F480355E
S31500000C606FF310478E4544F82C700A4644F82C5012
S31500000C7044F82300E2D1EFF31082012383F31088B6
S31500000C80336813B13368013B336033681BB9802086
S31500000C900349CB70C87082F31088F8BD2401002088
S31500000CA0000D08400008084008B5034B03600846DD
S31500000CB0FFF79AFF002008BD54524F5008B508466A
S31500000CC0FFF792FF002008BD70B5012684B002AB85
S31500000CD068460C4615460193ADF80060ADF80C1059
S31500000CE00292FFF723FFEFF3108286F310881D4967
S31500000CF00B681BB940261C48C370C6700B680133CD
S31500000D000B6082F31088EA034FEA1423E4B219D485
S31500000D101B01164A234442F82350EFF310820123A5
S31500000D2083F310880B6813B10B68013B0B600B68EB
S31500000D301BB980200C49CB70C87082F31088002044
S31500000D4004B070BD094A04EB031052F820601B0181
S31500000D506FF3104642F8206025F4803642F8206092
S31500000D60D7E700BF24010020000D08400008084016
S31500000D70064B074993F826001A6A51F82030C2F349
S31500000D8002620449D3400B60704700BF00E0014097
S31500000D9070000020B4020020F8B54AF20350012387
S31500000DA03749384AA1F8FE03A2F80431B2F80431F3
S31500000DB09BB2002BFAD101214FF400454FF0090CEC
S31500000DC0314CDFF8DCE0314EC4F804E0DFF8D4E063
S31500000DD02B48C4F80CE02E4FA2F800112D4AB16042
S31500000DE031606261276090F82620A5602561056A5A
S31500000DF054F82220C5F30265EA40274D2A6080F8A0
S31500000E00133480F8A2C090F8803493B300231C49B1
S31500000E1081F8813481F8803481F8323091F83C30A1
S31500000E201A07FBD543F202100023154A088581F8FC
S31500000E302A3092F83C309B06FBD503200523114946
S31500000E4081F81C0115490120116282F8263092F8BA
S31500000E502630116A54F82330C1F30261CB402B606F
S31500000E604FF4254382F8300082F85200A2F8FE3390
S31500000E70F8BD80F8801440F2C44000F04BF8C5E796
S31500000E8000E0014000C001407000002000700040FA
S31500000E90002D310100C2EB0BB4020020211201200B
S31500000EA000127A0000366E0138B50025134C012178
S31500000EB0C82084F8285000F02DF884F8245094F8BF
S31500000EC02430002BFBD194F824300C4A43F0020363
S31500000ED084F8243092F82430C3F340049B07F9D4F5
S31500000EE0012082F8224000F0E5F8054B012083F846
S31500000EF0BB44BDE8384000F0ADB800BF0030084044
S31500000F0000E00140704700BFA0F101000028FBD1BE
S31500000F10704700BF10B54FF47A72164C164B246812
S31500000F204FF0000EB3FBF4FC4FF0FF3300FB01F172
S31500000F30A1FB020483427EEB040407D3B0FBFCF062
S31500000F40800880B1BDE81040FFF7DEBF4FEA8C0C89
S31500000F50B1FBFCF1A1FB02128B427EEB020203D332
S31500000F6008460028EED110BD1846BDE81040FFF730
S31500000F70CBBF00BFB402002000CA9A3B70B5002464
S31500000F800A4B0B4EB3F84051ADB225FA04F3DB071A
S31500000F90E0B203D556F8243003B198470134102C3B
S31500000FA0F3D1024BA3F8305170BD00BF0060004082
S31500000FB0E400002030B56FF0FF0585B0032000F097
S31500000FC079F84FF0FF311F4C1F48224685640023F5
S31500000FD00125CDE90111039104F1C00E32F8020F8B
S31500000FE0590960B104A800EB810151F80C0C03F01B
S31500000FF01F0C05FA0CFC20EA0C0041F80C0C72459B
S3150000100003F10103EAD10199104B0F4A032011673E
S31500001010C3F8801202995167C3F884120399916745
S31500001020C3F8881200F016F80023094803F1C0023D
S3150000103034F8021F0133602B40F82210F6D105B0B8
S3150000104030BD00BF1A3200000080004000E100E021
S3150000105000600040EFF31081012383F31088124BE8
S3150000106033F8102092B22AB133F81020013A92B226
S3150000107023F8102033F810309BB293B90B4A10B402
S31500001080B2F8FE330A4C9BB234F8100043F4254301
S3150000109023EA0003A2F8FE3381F310885DF8044BBF
S315000010A0704781F310887047A802002000E00140D5
S315000010B03C33000030B4EFF31081012383F3108832
S315000010C00E4A32F810309BB26BB90D4C0D4DB4F888
S315000010D0FE3335F810C09BB243EA0C0343F42543B4
S315000010E09BB2A4F8FE3332F8103001339BB222F8DB
S315000010F0103081F3108830BC704700BFA802002072
S3150000110000E001403C3300000D4908B50A6803467B
S315000011104AB103330B4823F003031344834206D832
S3150000112010460B6008BD084802460860F1E700F06B
S3150000113087F90C234FF0FF320360104608BD00BF4D
S31500001140B0020020D0220020D002002000BE70474E
S3150000115008B500F003F8FFF781F8FEE74FF47002D8
S3150000116070B5254B254CC3F8882000209C60FFF7FE
S3150000117069F8FFF711FE0120FFF764F82368A3F56D
S31500001180805383F30A881E481E4A0021121A00F073
S3150000119051FB1D481D4A1E49121A00F03EFB1D4D0B
S315000011A01D4B5B1B002B07DD00249E1055F8043BEE
S315000011B001349847A642F9DCFFF7DAFDFFF774FE23
S315000011C00320FFF777FF00234FF6FF70134903F163
S315000011D008020133092B21F81200F8D10320FFF78A
S315000011E039FF0220FFF72EF8FFF7E4FEBDE8704056
S315000011F00020FFF787BE00BF00ED00E00000000002
S3150000120090000020D0020020000000207000002086
S3150000121058350000680000206C000020000D0840D2
S315000012202DE9F047002682460D46184B184CD3F898
S3150000123008801F68DFF8609082B02A46514638461B
S31500001240D8F808302660984788B108280CD1CDF820
S31500001250049003E0019B5A1E019213B12368002BF0
S31500001260F8D0019B002BE8D102B0BDE8F087094B0E
S31500001270019303E0019B5A1E019213B12368002BD0
S31500001280F8D00023236002B0BDE8F087B431000037
S31500001290BC0200208096980040420F0008B5044B1F
S315000012A0D3E9011218681268904700B100BE08BD64
S315000012B0B43100000379022B04D0802B02D0012B1D
S315000012C004D070470122034B1A607047024A13602C
S315000012D0704700BFBC020020B8020020F0B583B002
S315000012E029B3002A164622DD551E0D274C1E0D4435
S315000012F006E001210DF10600FFF792FFA54213D08B
S3150000130014F8013F0A2B8DF80630F2D101210DF1B8
S3150000131007008DF80770FFF783FF01210DF1060026
S31500001320FFF77EFFA542EBD1304603B0F0BD0026A5
S31500001330304603B0F0BD00BF2DE9F041884682B0CB
S3150000134069B3002A2BDD00251E4B1F4C9F681E68C3
S315000013508DF8045001E0082825D1012230467B682B
S3150000136001A9256098470028F5D12368002BFCD0F9
S3150000137000229DF8043022600D2B8DF8033014D125
S3150000138040F60D2301A80221ADF80430FFF748FF0F
S315000013900A23012088F8003002B0BDE8F081002061
S315000013A002B0BDE8F0818DF803500DF10300012174
S315000013B0FFF736FF01209DF8033088F8003002B0B1
S315000013C0BDE8F081B4310000B8020020F0B583B06A
S315000013D0FFF764FF00B100BE134800F099FB134EFF
S315000013E0134D144C144F002328468DF806308DF803
S315000013F0073000F08DFB3368986800F0E7F80DF1D0
S31500001400060120460DF1070200F09AFB014602296B
S3150000141004BF9DF806109DF80730084804BFC91898
S31500001420384600F0EFFADEE74433000004000020FF
S315000014304C33000060330000803300006833000046
S31500001440014B1868704700BF040000208A892DE907
S31500001450F041054610070C4658D44B68002B05DCB6
S315000014600B6C002B02DC0020BDE8F081E66A002E42
S31500001470F9D0002312F480522F682B6032D0606DB1
S31500001480A3895A0705D56368C01A636B0BB1236C31
S31500001490C01A00230246E66A2846216AB047431C62
S315000014A0A38906D129681D292CD8294ACA40D607FE
S315000014B028D50022D90462602269226004D5421C24
S315000014C001D12B6803B96065616B2F600029CAD012
S315000014D004F14403994202D0284600F0B3F90020F3
S315000014E06063C1E7216A01232846B047411CC7D182
S315000014F02B68002BC4D01D2B01D0162B01D12F60D9
S31500001500B1E7A38943F04003A381ADE70F69002F3C
S31500001510A9D093070E680F600CBF4B690023A6EB9A
S3150000152007088B60B8F1000F9DDD43463A46216AF5
S315000015302846A66AB047002806DCA3894FF0FF308C
S3150000154043F04003A3818FE70744A8EB0008E9E7CF
S315000015500100402038B50B6905460C4613B9002535
S31500001560284638BD18B183690BB900F099F8144BB9
S315000015709C421BD16C68B4F90C30002BEFD0626E24
S31500001580D00704D4990502D4A06D00F044F928468A
S315000015902146FFF75BFF636E0546DA07E0D4A389B1
S315000015A09B05DDD4A06D00F037F9D9E7054B9C42C9
S315000015B001D1AC68DFE7044B9C4208BFEC68DAE770
S315000015C0B0330000D033000090330000014620B94C
S315000015D0044B0549186800F0FEB8044B1868FFF77D
S315000015E0B9BF00BFF033000055150000040000200D
S315000015F0002310B504468360818119464366C28183
S3150000160008228361C0E90033C0E904335C3000F08E
S3150000161011F9054B24626362044BA362044BE36237
S31500001620044B236310BD00BF711B0000931B000019
S31500001630CB1B0000EF1B0000014900F0CCB800BF37
S315000016405515000070B568224D1E0E46554305F12E
S31500001650740100F063F9044640B1002105F1680207
S31500001660C0E900160C30A06000F0E4F8204670BD1A
S31500001670014800F0D0B800BFC1020020014800F0C8
S31500001680CBB800BFC1020020014800F0C4B800BFBB
S31500001690C2020020014800F0BFB800BFC20200200D
S315000016A010B50446FFF7F0FFA3691BB1BDE8104073
S315000016B0FFF7F0BFC4E9123323652046124B134AE5
S315000016C01B68A262A34204BF0123A36100F020F8B5
S315000016D06060204600F01CF8A060204600F018F874
S315000016E000220421E0606068FFF782FF01220921E1
S315000016F0A068FFF77DFF02221221E068FFF778FF5E
S315000017000123A361D2E700BFF033000039160000C1
S31500001710F8B50746FFF7ACFF1E4B1E68B36913B951
S315000017203046FFF7BDFF4836D6E90134013B03D505
S3150000173033680BB33668F7E7B4F90C50D5B9164BD6
S3150000174004F158006566E36000F064F8FFF796FF61
S315000017500822294604F15C002560A561C4E901550B
S31500001760C4E9045500F066F8C4E90D55C4E91255FC
S315000017702046F8BD6834D9E704213846FFF762FFF2
S31500001780044630600028D5D1FFF778FF0C233B6074
S31500001790EEE700BFF03300000100FFFF2DE9F04146
S315000017A00F4600F148040026D4E90185B8F1010886
S315000017B005D52468002CF7D13046BDE8F081AB8909
S315000017C0012B06D9B5F90E30013302D02846B847A9
S315000017D006436835EAE72DE9F8430646884600F1F0
S315000017E048040027D4E90195B9F1010905D5246813
S315000017F0002CF7D13846BDE8F883AB89012B07D911
S31500001800B5F90E30013303D029463046C0470743A9
S315000018106835E9E77047704770470A44431E9142AE
S3150000182000D1704710B511F8014B914203F8014FF2
S31500001830F9D110BD02440346934200D1704703F824
S31500001840011BF9E737B5002943D051F8043C0C1FBA
S315000018500190002BB8BFE41800F028FB1E4A01983F
S31500001860136833B96360146003B0BDE8304000F01C
S3150000187023BBA34208D9256861198B4201BF1968A9
S315000018805B6849192160EDE71A465B680BB1A34214
S31500001890FAD911685518A5420BD124682144541869
S315000018A01160A342E0D11C685B682144536011605B
S315000018B0DAE702D90C230360D6E7256861198B4263
S315000018C002BF19685B684919636008BF21605460EC
S315000018D0CAE703B030BD00BFC402002070B50E4E8B
S315000018E00C460546316811B900F01AF930602146F8
S315000018F0284600F015F9431C0AD0C41C24F0030442
S31500001900A04207D0211A284600F00AF9013001D179
S315000019104FF0FF34204670BDC80200202DE9F0418B
S31500001920CD1C074625F0030508350C2D38BF0C25C0
S31500001930002D01DBA94205D90C2300263B60304669
S31500001940BDE8F0812E4E00F0B1FA33681C4634BB78
S3150000195029463846FFF7C2FF431C04464DD134687A
S315000019602646002E40D123683146384604EB03084C
S3150000197000F0D6F880453AD12168033538466D1A0D
S3150000198025F0030508350C2D38BF0C252946FFF731
S31500001990A5FF01302BD023682B4423600EE022687C
S315000019A0521B1ED40B2A16D96119A342256018BFF3
S315000019B05960636808BF316062514B6004F10B06E1
S315000019C0384600F079FA231D26F00706F21AB6D03B
S315000019D09B1BA350B3E76268A3420CBF32605A60F8
S315000019E0ECE723466468B2E734467668B9E70C2329
S315000019F038463B6000F060FAA1E72560DEE700BFED
S31500001A00C40200200FB40A4B13B51C6824B1A369A5
S31500001A1013B92046FFF744FE05AB049AA168204699
S31500001A20019300F079FA02B0BDE8104004B07047A7
S31500001A300400002070B50E46054618B183690BB93F
S31500001A40FFF72EFEAB69AC6813B92846FFF728FEF0
S31500001A502C4B9C4220D16C68636EDB0705D4A389AE
S31500001A60980502D4A06DFFF7D6FEA38919071DD5E8
S31500001A702369DBB1013EA36816F8011F013BA36091
S31500001A8039BB002B38DA22460A21284600F0B4F882
S31500001A90013011D00A2511E01B4B9C4201D1AC68E4
S31500001AA0DAE71A4B9C4208BFEC68D5E72146284680
S31500001AB000F006F90028DDD04FF0FF35636EDA0737
S31500001AC005D4A3899B0502D4A06DFFF7A5FE284681
S31500001AD070BD002B04DAA2699A4206DC0A2904D0FA
S31500001AE023685A1C22601970C5E72246284600F072
S31500001AF083F80130BFD1DFE723680A255A1C22602C
S31500001B001D70DBE7B0330000D033000090330000D7
S31500001B10024B01461868FFF78DBF00BF0400002086
S31500001B2038B50023054D044608462B60FFF7ECFA4E
S31500001B30431C02D12B6803B1236038BDCC020020C0
S31500001B400FB40A4B13B51C6824B1A36913B9204618
S31500001B50FFF7A6FD05AB049A61682046019300F0E5
S31500001B6047FE02B0BDE8104004B0704704000020F4
S31500001B7010B50C46B1F90E1000F0B4FF0028ABBF4B
S31500001B80636DA3891B1823F48053ACBF6365A381DF
S31500001B9010BD2DE9F0411F468B8905460C46DB0535
S31500001BA0164605D502230022B1F90E1000F006F9FB
S31500001BB0A3893246B4F90E10284623F48053A38134
S31500001BC03B46BDE8F04100F069B810B50C46B1F9E6
S31500001BD00E1000F0F3F8431CA38915BF606523F4CB
S31500001BE0805343F48053A38118BFA38110BDB1F97C
S31500001BF00E1000F0D3B8FFFFF8B50E4614460546A2
S31500001C0018B183690BB9FFF74BFD214B9C422BD1D1
S31500001C106C68A369A360A3891A072FD523696BB3E0
S31500001C202369F6B220683746C01A6369834204DC2A
S31500001C3021462846FFF78EFC30BBA3680130013BE6
S31500001C40A36023685A1C22601E706369834204D015
S31500001C50A389DB0706D50A2E04D121462846FFF7BD
S31500001C6079FC88B93846F8BD0A4B9C4201D1AC686C
S31500001C70CFE7094B9C4208BFEC68CAE721462846D5
S31500001C8000F01EF80028CBD04FF0FF37EAE700BF80
S31500001C90B0330000D03300009033000038B504465E
S31500001CA0064D0846114600222A601A46FFF716FB23
S31500001CB0431C02D12B6803B1236038BDCC0200203F
S31500001CC0324B70B51D6806460C4625B1AB6913B993
S31500001CD02846FFF7E5FC2E4B9C420FD16C68A38982
S31500001CE0B4F90C2019072CD4DD0611D4092333606E
S31500001CF042F040034FF0FF30A3813EE0254B9C426B
S31500001D0001D1AC68EBE7244B9C4208BFEC68E6E7E0
S31500001D10580712D5616B41B104F14403994202D0D0
S31500001D203046FFF78FFD00236363A38923F0240366
S31500001D30A3810023636023692360A38943F008031A
S31500001D40A38123694BB9A38903F42073B3F5007FFC
S31500001D5003D02146304600F069F8A089B4F90C207A
S31500001D6010F001030AD00023A36063695B42A361FC
S31500001D70236943B910F08000BAD170BD810758BFFE
S31500001D806369A360F4E70020F7E700BF04000020C2
S31500001D90B0330000D03300009033000038B5002384
S31500001DA0054D044608462B6001F0AAF9431C02D1F2
S31500001DB02B6803B1236038BDCC02002038B5044639
S31500001DC0064D0846114600222A601A4601F0B0F96F
S31500001DD0431C02D12B6803B1236038BDCC0200201E
S31500001DE070B50E46B1F90E1096B0144600291D4680
S31500001DF008DAB6F90C3000222A601A0610D44FF41D
S31500001E0080630EE06A4601F013F90028F1DB019ABF
S31500001E1002F47042A2F500535A425A412A60EEE794
S31500001E2040230020236016B070BDFFFF8B8973B579
S31500001E309D0706460C4607D504F147032360236138
S31500001E400123636102B070BD01AB6A46FFF7C8FFAC
S31500001E50009905463046FFF761FD48B9B4F90C30E4
S31500001E609A05EFD423F0030343F00203A381E3E7CB
S31500001E700D4BB362A389206043F080032061A381E8
S31500001E80009B6361019B5BB1B4F90E10304601F013
S31500001E90E1F828B1A38923F0030343F00103A381EA
S31500001EA0A0890543A581CDE7391600000148FFF753
S31500001EB0B2BC00BFC00200200148FFF7ADBC00BFA6
S31500001EC0C00200209368013B002B936010B408DA2F
S31500001ED09469A34201DB0A2903D15DF8044BFFF79D
S31500001EE08BBE1368581C1060084619705DF8044BC9
S31500001EF07047F8B506460F461446D518AC4201D1D0
S31500001F00002007E03A4614F8011B3046FFF7DAFFD7
S31500001F10431CF3D1F8BDFFFF2DE9F04F0D469DB0F0
S31500001F2014469846064618B183690BB9FFF7B8FB05
S31500001F30894B9D421BD175686B6ED90705D4AB8959
S31500001F409A0502D4A86DFFF766FCAB891B0701D57D
S31500001F502B69EBB929463046FFF7B2FEC0B16B6E6E
S31500001F60DC070ED54FF0FF301DB0BDE8F08F7B4B80
S31500001F709D4201D1B568DFE7794B9D4208BFF56800
S31500001F80DAE7AB899805EDD4A86DFFF745FCE9E7DC
S31500001F900023CDF80C804FF00109DFF8C8810993C2
S31500001FA020238DF8293030238DF82A3023469A468F
S31500001FB013F8012B0AB1252AF9D1BAEB040B0BD081
S31500001FC05B46224629463046FFF793FF013000F074
S31500001FD0AA80099A5A4409929AF80030002B00F018
S31500001FE0A28000234FF0FF320AF1010A04930793FF
S31500001FF08DF853301A93CDE90523544605225948E6
S3150000200014F8011B01F036F8049AD8B9D10644BF7A
S3150000201020238DF85330130744BF2B238DF85330FC
S315000020209AF800302A2B15D0079A544600204FF014
S315000020300A0C214611F8013B303B092B4ED9B0B1B1
S31500002040079214E0A0EB0803A24609FA03F3134330
S315000020500493D2E7039B191D1B68002B0391BBBF9A
S315000020605B4242F0020207930793B8BF04922378BB
S315000020702E2B0CD163782A2B35D1039B02341A1DE3
S315000020801B68002B0392B8BF4FF0FF330593DFF8B0
S31500002090E4A003222178504600F0ECFF40B1402333
S315000020A0A0EB0A00013403FA00F0049B03430493F7
S315000020B014F8011B06222C488DF8281000F0DAFFD0
S315000020C000283FD0294B1BBB039B073323F0070394
S315000020D008330393099B3B44099367E70CFB0232E1
S315000020E00C460120A5E7002301344FF00A0C1946DF
S315000020F00593204610F8012B303A092A03D9002B04
S31500002100C5D00591C3E70CFB012104460123F0E786
S3150000211003AB2A4604A930460093154B00E000BFE6
S315000021200746781CD6D16B6ED90705D4AB899A05BC
S3150000213002D4A86DFFF770FBAB895B063FF512AFC3
S31500002140099811E703AB2A4604A930460093084BC9
S3150000215000F082F8E4E700BFB0330000D03300009F
S3150000216090330000F4330000FE330000000000004E
S31500002170F31E0000FA3300002DE9F0471646994693
S315000021808A6807460B690C46DDF820809342B8BF83
S315000021901346336091F843200AB101333360236854
S315000021A0990642BF336802333360256815F0060589
S315000021B006D104F1190AE36832689B1AAB4229DC9E
S315000021C094F84320131E226818BF012392062ED4CA
S315000021D004F1430249463846C047013021D02368FE
S315000021E01A3454F80E5C03F0060332680026042BFA
S315000021F054F8123C08BFAD1A54F80A2C14BF002537
S3150000220025EAE5759342C4BF9B1AED18B5421AD16B
S31500002210002008E00123524649463846C0470130AF
S3150000222003D14FF0FF30BDE8F0870135C3E7E11871
S315000022305A1C30200233224481F8430094F845109A
S3150000224082F84310C4E70123224649463846C04770
S315000022500130E6D00136D9E72DE9FF470F7E9146DA
S3150000226080460C46782F9A460C9D01F1430207D80A
S31500002270622F0AD8002F00F0D880582F00F0A380D4
S3150000228004F1420584F842703AE0A7F16303152B86
S31500002290F6D801A151F823F0F12200000523000031
S315000022A0812200008122000081220000812200009C
S315000022B00523000081220000812200008122000007
S315000022C0812200001124000035230000F3230000C2
S315000022D081220000812200003324000081220000B8
S315000022E0352300008122000081220000FB2300002C
S315000022F02B681A1D1B682A6004F1420584F84230D7
S315000023000123A3E020682968060601F104030AD523
S315000023100E682B60002E03DA2D23764284F84330B4
S315000023205E480A2319E00E6810F0400F2B6018BFB4
S3150000233036B2EFE72B682068191D2960010601D522
S315000023401E6802E04606FBD51E886F2F53480CBF59
S3150000235008230A23002184F843106568002DA56030
S31500002360A2BF216821F0040121600EB9002D4DD0D5
S315000023701546B6FBF3F103FB1167C75D05F8017D52
S3150000238037460E46BB42F4D9082B0BD12368DE072D
S3150000239008D5236961689942DEBF302305F8013C00
S315000023A005F1FF35521B22614B4603AA21464046E2
S315000023B0CDF800A0FFF7E0FE01304CD14FF0FF3022
S315000023C004B0BDE8F087354881F845702968236870
S315000023D051F8046B29601D0614D5DF0744BF43F08E
S315000023E0200323601EB9236823F0200323601023F3
S315000023F0B0E7236843F0200323607823284884F855
S315000024004530E3E7590648BFB6B2E6E71546BBE7EF
S315000024102B682668181D6169286035061B6801D57A
S31500002420196002E07006FBD519800023154623616A
S31500002430BAE72B6800211A1D2A601D6862682846C3
S3150000244000F018FE08B1401B60606368236100233A
S3150000245084F84330A8E723692A4649464046D047D0
S315000024600130ABD023689B0713D4E068039B9842E6
S31500002470B8BF1846A4E70123324649464046D0472E
S3150000248001309BD00135E36803995B1AAB42F2DC5D
S31500002490EBE7002504F11906F5E700BF0534000057
S315000024A0163400002DE9F0471D464B6EADF5227D32
S315000024B00646DF070C46924605D48B89980502D45A
S315000024C0886DFFF7A8F900230DF10408A64FDFF881
S315000024D0A492CDF818810095CDE94433A34BA0937F
S315000024E0A34BA1939AF80030002B00F07381D95DBD
S315000024F00AF1010511F0080119D06368002B0FDD00
S3150000250023681A78BA5C110701D4AA46EAE7459A05
S3150000251001330132236045926268013A6260ECE75A
S31500002520A19B2146304698470028E9D0EDE7252BA8
S3150000253012D09A466368002B40F395802268137880
S31500002540534540F0478163680132013B2260636076
S31500002550459B01334593D8E741910A2243919AF866
S3150000256001302A2B02BF10230AF102054193AA4625
S315000025701AF8011BA1F13003092B1ED903227D484D
S3150000258000F078FD40B10123A0EB0900554603FA9F
S3150000259000F0419B1843419015F8013B782B07D872
S315000025A0572B11D8252BC4D058D8002B00F0C98042
S315000025B0032347930A2342937CE0439B554602FB41
S315000025C0031130394391D2E7A3F15802202AEFD8FC
S315000025D001A151F822F000BF9F260000B12500009E
S315000025E0B1250000FD260000B1250000B125000040
S315000025F0B1250000B1250000B1250000B12500007D
S31500002600B125000013270000E9260000632600001C
S315000026106326000063260000B1250000ED260000B9
S31500002620B1250000B1250000B1250000B12500004C
S3150000263023270000F526000097260000B12500009C
S31500002640B12500001F270000B1250000E926000083
S31500002650B1250000B12500009F260000453B022B56
S31500002660A6D8052325E0A19B214630469847002899
S315000026703FF464AF636EDA0740F1A4804498002803
S3150000268068D0A38913F0400F18BF4FF0FF300DF547
S31500002690227DBDE8F087419A42F020024192419A9C
S315000026A042F40072419210226F2B429234BF0323F0
S315000026B0042347936368002B4FDD419B5B0604D4DC
S315000026C023681A78BA5C100756D4479B022B65DC40
S315000026D06B46224641A9304600F0B2F8012879D06F
S315000026E002287FF412AFC5E70A22DDE700234293F2
S315000026F00323DEE7082342930423DAE7294640460C
S3150000270000F096FA419B054643F0400341930123AE
S31500002710CFE7419B43F0400341930023C9E70223DF
S31500002720C7E74198C3063FF5F0AE009B10F0010FD6
S31500002730459A03F1040100911B6814BF1A801A60C0
S31500002740E3E6636ED80705D4A389990502D4A06D84
S31500002750FFF762F84FF0FF3099E7A19B214630461C
S3150000276098470028A9D085E751340000012F0000C2
S315000027701D2B0000FA330000459A0132459262682B
S31500002780013A002A626002DD0133236098E7A19BCB
S31500002790214630469847002892D06BE7042B06DC8A
S315000027A06B46224641A9304600F0A4F896E70F4B47
S315000027B0002B3FF4AAAE6B46224641A9304600E004
S315000027C000BF8BE7A38999053FF558AFA06DFFF7CA
S315000027D023F853E7636EDA0705D4A3899B0502D471
S315000027E0A06DFFF719F8449851E700BF00000000FC
S315000027F037B50C46054638B1816929B9CDE90023BC
S31500002800FEF74EFFDDE900230A498C4207D16C68CA
S315000028102146284603B0BDE83040FFF743BE0649CF
S315000028208C4201D1AC68F3E704498C4208BFEC68DE
S31500002830EEE700BFB0330000D03300009033000055
S315000028402DE9F84315468A6880460C4632B98A69EE
S31500002850002A0CBF01224FF0FF328A60226800274F
S31500002860DFF88C90D1065FBF1A68111D19601668D3
S31500002870A06988B1012807D12A6811786269525C7B
S3150000288052B9002F31D022E0022820D12B681B78C4
S3150000289013F809301B071AD423680137DA065EBF1E
S315000028A02B681B7806F8013B2A686B680132013BEE
S315000028B02A60A2686B60013AA26042B1002BD7DCA5
S315000028C0D4F880312946404698470028D0D023685E
S315000028D013F0100305D1E2680132E260A26902B189
S315000028E03370236900203B442361BDE8F88300BFB1
S315000028F0513400002DE9F04F984687B0754B0C46D1
S315000029008246164627464FF0000B93E8070003ABB6
S3150000291083E80700704BA169704A032918BF1A465D
S31500002920A36801925A1EB2F5AE7F89BF6FF4AE75E9
S315000029304FF0000903EB050940F25D1388BFA36061
S3150000294057F81C3B43F450633D462360316803ABA4
S315000029500222097853F82B0000F08CFB28B3BBF158
S31500002960010F59D162682AB92268082342F400721D
S3150000297063602260226822F4A0622260A268511E6F
S31500002980A16092B13268511C3160127805F8012BB2
S315000029907268013A002A726007DCD4F88021314659
S315000029A050469047002840F085800BF1010BBBF1A3
S315000029B0030FCBD163680BB90A23636063684FF0DA
S315000029C0000B47496069C91A00F032F9A36822680A
S315000029D0002B3DD03168606991F800C010F80C00FA
S315000029E0002835D0BCF1300F24D1100522D50BF1CB
S315000029F0010BB9F1000F03D0013309F1FF39A360D0
S31500002A007368013B002B73601BDD33680133336051
S31500002A10A368013BA360D9E7BBF1020FAED12268E0
S31500002A2002F4C061B1F5007FBFD1102342F4807279
S31500002A306360A2E722F4106222600B7805F8013B7E
S31500002A40DEE7D4F880313146504698470028DFD07B
S31500002A502368DB050DD5BD4209D905F1FF3915F807
S31500002A60011CD4F87C3132464D4650469847BD424B
S31500002A702DD0226812F0100213D139462A70504622
S31500002A806368019EB0472168D8F8003011F0200F26
S31500002A9013D01A1DC8F800201B681860E3680133BC
S31500002AA0E360ED1B0020AB4425695D44256107B05A
S31500002AB0BDE8F08F4FF0000BCAE71A1D11F0010FA9
S31500002AC0C8F800201B6814BF18801860E6E70120CC
S31500002AD0EDE700BF443400008D2E0000A52D000058
S31500002AE04034000038B50446064D0846114600221B
S31500002AF02A601A46FEF720FC431C02D12B6803B15C
S31500002B00236038BDCC020020838903F00903092B1A
S31500002B1001D1FEF75BBD00207047FFFFF8B50C46FC
S31500002B20054618B183690BB9FEF7BAFD3B4B9C42CB
S31500002B300AD16C680023B4F90C206360A3899E0651
S31500002B400CD54FF0FF3066E0354B9C4201D1AC68A6
S31500002B50F0E7344B9C4208BFEC68EBE7580748D4D3
S31500002B60D90605D409232B6042F04003A381E8E788
S31500002B701A070BD521462846FEF7ECFC0028E0D1C3
S31500002B80A389A06023F00803A061A381A38943F071
S31500002B900403A38123691BB921462846FFF746F99A
S31500002BA0A689B4F90C70B3070FD0012306F0090605
S31500002BB01D49A3811D4B1868FEF7F0FD092EA7815C
S31500002BC003D121462846FEF741FC22692846666A5B
S31500002BD06369216A2260B047002860601CDCB4F992
S31500002BE00C3017BF002243F0200343F0400362601D
S31500002BF0BCE7616B0029CDD004F14403994202D0B1
S31500002C002846FEF71FFE0020236C60636360002BDE
S31500002C10C0D0E36B2360F8BD0020FCE7B0330000B2
S31500002C20D033000090330000092B0000F033000081
S31500002C3070B50B7804465E2B04F1FF0513BF481CE4
S31500002C40881C4B78002208BF0122611E01F8012F63
S31500002C50A942FBD10BB9013870BD82F001020546CD
S31500002C60E254284610F8011B2D2906D05D29F3D021
S31500002C7009B92846F0E70B46F1E76E785D2EFAD0E3
S31500002C80B342F8DC0235194601318E426254FBDC50
S31500002C90F11A581C0139B342A8BF00214318E0E7D6
S31500002CA0012B2DE9F04701D0242B06D9FEF7C8FBEE
S31500002CB0162303600020BDE8F0870D46DFF8E0C06C
S31500002CC02E4615F8014B14F80C7017F00807F7D1CB
S31500002CD02D2C32D12C780127B51C002B5BD0102B64
S31500002CE009D1302C07D12C7804F0DF04582C4DD1B3
S31500002CF06C781023023507F100484FF0000C08F1FC
S31500002D00FF386646B8FBF3F903FB198AA4F1300EC7
S31500002D10BEF1090F16D87446A34224DDBCF1000F9C
S31500002D201EDBB1451CD301D1A24519DB06FB0346C8
S31500002D304FF0010C15F8014BE8E72B2C04BF2C785B
S31500002D40B51CCAE7A4F1410EBEF1190F01D8373CF4
S31500002D50E2E7A4F1610EBEF1190F04D8573CDBE798
S31500002D604FF0FF3CE6E7BCF1000F05DA22234646AA
S31500002D70036042B930469EE707B17642002AF9D091
S31500002D80BCF1000F00D0691E1160F3E73024002B60
S31500002D90B1D10823AFE7302CA5D00A23ABE700BF9B
S31500002DA051340000FFF77CBF2DE9F04386460D46FF
S31500002DB0354F284615F8014BE65D16F00806F8D1A2
S31500002DC02D2C2FD12C780126851C002B57D0102BAB
S31500002DD009D1302C07D1287800F0DF00582849D1D6
S31500002DE06C78102302354FF0FF380027B8FBF3F854
S31500002DF003FB08F938466FEA0909A4F1300CBCF167
S31500002E00090F14D86446A34222DD002F1DDB80453E
S31500002E101BD301D1A14518DB00FB0340012715F8A0
S31500002E20014BEAE72B2C04BF2C78851CCDE7A4F1D7
S31500002E30410CBCF1190F01D8373CE4E7A4F1610C51
S31500002E40BCF1190F04D8573CDDE74FF0FF37E6E732
S31500002E50002F07DA22234FF0FF30CEF8003032B9C8
S31500002E60BDE8F08306B14042002AF9D007B1691ED9
S31500002E701160F5E73024002BB5D10823B3E7302CD9
S31500002E80A9D00A23AFE700BF51340000FFF78CBF7B
S31500002E902DE9F0410C46496B04F1440399421AD1DD
S31500002EA04FF48061FEF73AFD18B94FF0FF30BDE8E8
S31500002EB0F0814FF48063606300F2FD30A36394F801
S31500002EC04630837094F84530437094F8443003706C
S31500002ED020600020EBE7A66B77003A4600F0D8F8B2
S31500002EE005460028E1D000EB06080146324640467A
S31500002EF0FEF793FCC4F80080C4E90D57E9E7FFFF2D
S31500002F0070B514464A1C06460D4603D14FF0FF35F0
S31500002F10284670BD18B183690BB9FEF7C1FB414B5A
S31500002F209C421DD17468636EDB0705D4A38998059E
S31500002F3002D4A06DFEF76FFCB4F90C3023F0200329
S31500002F4059079AB2A3812DD4D30613D4636EDD0735
S31500002F50DCD412F4007FD9D1A06DFEF75DFCD5E775
S31500002F60314B9C4201D1B468DDE7304B9C4208BF2F
S31500002F70F468D8E7100711D521463046FEF7EAFA7D
S31500002F8030B1636ED907C1D4A38913F4007FE2E799
S31500002F90A389A06023F00803A061A381A38943F05D
S31500002FA00403A381636BEDB26268D3B1A36B934252
S31500002FB005DC21463046FFF76BFF0028E1D1236888
S31500002FC05A1E226003F8015C636801336360636E16
S31500002FD0DA079DD4A3899B059AD4A06DFEF71CFC45
S31500002FE096E7616E2069236801F0010160B198429D
S31500002FF00AD213F8010CA84206D1013B0132236024
S315000030006260002984D1E5E7C4E90F3204F1440384
S3150000301063630323A363234603F8465F2360012308
S315000030206360EEE7B0330000D03300009033000059
S3150000303038B50023064D0446084611462B6000F0BD
S3150000304067F8431C02D12B6803B1236038BD00BF6B
S31500003050CC02002038B50023054D044608462B60F7
S3150000306000F05EF8431C02D12B6803B1236038BD23
S31500003070CC020020C9B2024410B59042034601D1E9
S31500003080002303E01C7801308C42F6D1184610BDAF
S315000030902DE9F041804614460E4621B91146BDE899
S315000030A0F041FEF73BBC2AB92546FEF7CBFB284686
S315000030B0BDE8F08100F01BF88442074602D8B4EB65
S315000030C0500F12D821464046FEF728FC0546002838
S315000030D0EDD0BC422246314628BF3A46FEF79DFB5C
S315000030E031464046FEF7AEFBE1E73546DFE751F8ED
S315000030F0043C181F002BBCBF0B58C0187047FFFFBD
S31500003100024B58224FF0FF301A607047CC02002065
S31500003110024B58224FF0FF301A607047CC02002055
S31500003120024B582200201A60704700BFCC020020D4
S31500003130024B58224FF0FF301A607047CC02002035
S315000031404275696C7420776974682052656E657380
S31500003150617320416476616E63656420466C6578B0
S3150000316069626C6520536F66747761726520506181
S31500003170636B6167652076657273696F6E20342EA6
S31500003180352E3000342E352E3000000000000504A8
S31500003190F8B500BFF8BC08BC9E467047F8B500BF3E
S315000031A0F8BC08BC9E467047AC000020F431000015
S315000031B000330000B4000020C0310000DC32000003
S315000031C0070200000C000C010C020C0300000000BA
S315000031D000000000B512000000000000E031000011
S315000031E000010000000000200F00FFFF00000000AB
S315000031F0FFFF000004000000FC3100000000010099
S3150000320008010000000001000003000000000105A5
S315000032100D060000000001050E060000AA01AB0124
S31500003220AC01AD010000000000000000000000003D
S315000032300000000000000000000000000000000088
S315000032400000000000000000000000000000000078
S315000032500000000000000000000000000000000068
S315000032600000000000000000000000000000000058
S315000032700000000000000000000000000000000048
S315000032800000000000000000000000000000000038
S315000032900000000000000000000000000000000028
S315000032A00000000000000000000000000000000018
S315000032B00000000000000000000000000000000008
S315000032C000000000000000000000000000000000F8
S315000032D0000000000000000000000000850400005F
S315000032E0350300004103000099030000E5030000D8
S315000032F0F103000089030000690200002D040000AC
S31500003300A90C0000C9090000BD0C0000C90C000092
S315000033108D0A0000E10A0000D5090000290A000014
S31500003320490A0000750A0000C50A0000F9090000F4
S315000033300D0A0000020403040404FFFF010002005A
S3150000334008001000746573740D000000656E7465E6
S31500003350722074776F206E756D6265723A0D00008B
S31500003360256C7520256C75007363616E6620666139
S31500003370696C65642C206E3D25640D0A0000000012
S3150000338061202B2062203D20256C750D0A00FFFF71
S315000033900000000000000000000000000000000027
S315000033A00000000000000000000000000000000017
S315000033B00000000000000000000000000000000007
S315000033C000000000000000000000000000000000F7
S315000033D000000000000000000000000000000000E7
S315000033E000000000000000000000000000000000D7
S315000033F008000020232D302B2000686C4C006566E9
S31500003400674546470030313233343536373839412F
S315000034104243444546003031323334353637383945
S31500003420616263646566002B2D00303000785800B9
S31500003430412D46612D6638393031323334353637D1
S315000034405D00FFFF273400002A3400002D34000001
S31500003450002020202020202020202828282828205E
S315000034602020202020202020202020202020202056
S3150000347020881010101010101010101010101010BE
S3150000348010040404040404040404041010101010AE
S315000034901010414141414141010101010101010178
S315000034A001010101010101010101010110101010CA
S315000034B0101042424242424202020202020202024A
S315000034C0020202020202020202020202101010109E
S315000034D020000000000000000000000000000000C6
S315000034E000000000000000000000000000000000D6
S315000034F000000000000000000000000000000000C6
S3150000350000000000000000000000000000000000B5
S3150000351000000000000000000000000000000000A5
S315000035200000000000000000000000000000000095
S315000035300000000000000000000000000000000085
S315000035400000000000000000000000000000000075
S30D0000355000FFFFFF0000000070
S31500003558400035000800002000000000B0330000DD
S31500003568D033000090330000000000000000000087
S31500003578000000000000000000000000000000003D
S31500003588000000000000000000000000000000002D
S31500003598000000000000000000000000000000001D
S315000035A8000000000000000000000000000000000D
S315000035B800000000000000002502000001020000D3
S3150100A100FFFFFFFFFFFFFFFFFFFFFFFFFFFFFFFF58
S3090100A110FFFFFFFF48
S3090100A134FFFFFFFF24
S3150100A200FFFDFFFFFFFFFFFFFFFFFFFFFFFFFFFF59
S3150100A210FFFFFFFFFFFFFFFFFFFFFFFFFFFFFFFF47
S3150100A220FFFFFFFFFFFFFFFFFFFFFFFFFFFFFFFF37
S3150100A230FFFFFFFFFFFFFFFFFFFFFFFFFFFFFFFF27
S3150100A240FFFFFFFFFFFFFFFFFFFFFFFFFFFFFFFF17
S3150100A250FFFFFFFFFFFFFFFFFFFFFFFFFFFFFFFF07
S3150100A260FFFFFFFFFFFFFFFFFFFFFFFFFFFFFFFFF7
S3150100A270FFFFFFFFFFFFFFFFFFFFFFFFFFFFFFFFE7
S3150100A280F8F8FFFFFFFFFFFFFFFFFFFFFFFFFFFFE5
S3150100A290FFFFFFFFFFFFFFFFFFFFFFFFFFFFFFFFC7
S3150100A2A0FFFFFFFFFFFFFFFFFFFFFFFFFFFFFFFFB7
S3150100A2B0FFFFFFFFFFFFFFFFFFFFFFFFFFFFFFFFA7
S3150100A2C0FFFFFFFFFFFFFFFFFFFFFFFFFFFFFFFF97
S7050000115198
