S017000031345365766F7241422B437265616D2E7372656303
S315000000005833002075150000A1130000711500007B
S3150000001071150000711500007115000071150000C2
S315000000200000000000000000000000007115000044
S315000000307115000000000000711500007115000028
S31500000040910800000108000021090000690900006C
S31500000050910800000108000021090000690900005C
S31500000060000000000000000000000000000000008A
S31500000070000000000000000000000000000000007A
S31500000080000000000000000000000000000000006A
S31500000090000000000000000000000000000000005A
S315000000A0000000000000000000000000000000004A
S315000000B0000000000000000000000000000000003A
S315000000C0000000000000000000000000000000002A
S315000000D0000000000000000000000000000000001A
S315000000E0000000000000000000000000000000000A
S315000000F000000000000000000000000000000000FA
S3150000010000000000000000000000000000000000E9
S3150000011000000000000000000000000000000000D9
S3150000012000000000000000000000000000000000C9
S3150000013000000000000000000000000000000000B9
S3150000014000000000000000000000000000000000A9
S315000001500000000000000000000000000000000099
S315000001600000000000000000000000000000000089
S315000001700000000000000000000000000000000079
S315000001800000000000000000000000000000000069
S315000001900000000000000000000000000000000059
S315000001A00000000000000000000000000000000049
S315000001B00000000000000000000000000000000039
S315000001C0FFFFFFFFFFFFFFFFFFFFFFFFFFFFFFFF39
S315000001D0FFFFFFFFFFFFFFFFFFFFFFFFFFFFFFFF29
S315000001E0FFFFFFFFFFFFFFFFFFFFFFFFFFFFFFFF19
S315000001F0FFFFFFFFFFFFFFFFFFFFFFFFFFFFFFFF09
S3150000020010B5054C237833B9044B13B1044800E00C
S3150000021000BF0123237010BD9800002000000000DD
S31500000220C834000008B5034B1BB10349034800E07E
S3150000023000BF08BD000000009C000020C83400007C
S3150000024008B501F0D1FB044802F06AF901F07AFA28
S3150000025001F02EFBFCE700BFC42F0000022800D0EF
S315000002607047024B0248596800F02ABDD82F00009B
S31500000270B400002008B5FFF7E3FF002008BD00BF6B
S3150000028010B400240122036A44609C70C3692D499E
S3150000029093F905304FEA531C03F01F0302FA03F3E8
S315000002A00CF1200C41F82C30BFF34F8FBFF36F8F4A
S315000002B0C36993F90B304FEA531C03F01F0302FA8C
S315000002C003F30CF1200C41F82C30BFF34F8FBFF332
S315000002D06F8FC36993F907304FEA531C03F01F036E
S315000002E002FA03F30CF1200C41F82C30BFF34F8FC8
S315000002F0BFF36F8FC36993F909304FEA531C03F0BC
S315000003001F0302FA03F30CF1200C41F82C30BFF363
S315000003104F8FBFF36F8FEFF3108182F31088C3699D
S31500000320094A93F800C04FF00043506823FA0CF3D3
S3150000033003435360536881F3108820465DF8044BED
S31500000340704700BF00E100E000400840034600207F
S31500000350C3E90512704700BF10B4046AA37803F01E
S315000003607B03A370837803F00303D21A0B44026164
S31500000370A278C360837842F0800203F00303022B65
S31500000380A27005D00B780020E3705DF8044B70472F
S315000003900B88002043F47E43E3815DF8044B7047ED
S315000003A084460020CCE90A32CCF82410704700BFFE
S315000003B070B586460024DEF820304D7893F802C0EA
S315000003C00A780CF00B069E70CEF80C4020468C780E
S315000003D002F05C025C7093F800E00CF07B0C65F3B5
S315000003E0010E83F800E0C9789974D97901F0A30168
S315000003F00A43DA7183F802C070BD00BF4FF0FF33C5
S315000004000020C1E9003370478B0711D5002210B4D4
S31500000410046AC907A37803F07B03A370134602613D
S3150000042002D500221346826118465DF8044B7047D8
S31500000430CA074FF0060302D500221346826118460A
S31500000440704700BF0346002210B49C6910460C603A
S315000004505DF8044B9A617047F0B5846A85B005462D
S315000004600F4694466E46B4B194E80F0086E80F0036
S31500000470EB6920461B7884F804C02360EB6AC4E964
S3150000048002736B6A9847AC6A1CB196E80F0084E861
S315000004900F0005B0F0BD3446EAE700BF0022F0B514
S315000004A001240B78027003F5800303F58C531B02BD
S315000004B003624B698D6943628378C16164F301030A
S315000004C08262C56283704B7823B90222837862F315
S315000004D001038370012491F90B50C44A6B0905F09E
S315000004E01F07203304FA07F78E7A42F82370BFF30A
S315000004F04F8FBFF36F8FBE4B05F1C00753F827C070
S315000005006FF3104C43F827C053F82770B94F3601E4
S3150000051002EB050CF6B28CF8006347F8250091F95A
S3150000052005500E794FEA551C05F01F0E0CF1200CF4
S3150000053004FA0EFE42F82CE0BFF34F8FBFF36F8F25
S3150000054005F1C00C53F82CE06FF3104E43F82CE085
S3150000055053F82CC0360102EB050CF6B28CF800639A
S3150000056047F8250091F907508E794FEA551C05F09A
S315000005701F0E0CF1200C04FA0EFE42F82CE0BFF31D
S315000005804F8FBFF36F8F05F1C00C53F82CE06FF35C
S31500000590104E43F82CE053F82CC0360102EB050C44
S315000005A0F6B28CF8006347F8250091F909500E7AE7
S315000005B04FEA551C05F01F0E0CF1200C04FA0EFE36
S315000005C042F82CE0BFF34F8FBFF36F8F05F1C00CDD
S315000005D053F82CE06FF3104E43F82CE053F82C3010
S315000005E03301DBB22A4482F8003347F82500EFF3E3
S315000005F0108584F310884FF000447F4B0E785A68BC
S31500000600F44022EA04025A605B6885F310880022EF
S3150000061040F2F934036A40F2F9359A701A715A7247
S315000006209A72DA725A830A7824FA02F2D60744BF1B
S315000006304022DA740622CC691A770A784E78D540B9
S31500000640ED078F78CA7848BF4FF478414FEAC20267
S3150000065048BF9982032E42EA071200F0C280002E9C
S3150000066014BFF221E221D2B21A709971227B082AB4
S315000006700EBF0A22520002F002025A736278A17873
S31500000680D201490101F02001D2B20A4300211972B8
S3150000069094F800C0ACF10201012940F29880D2B270
S315000006A0DA716268917855785970197865F30101A5
S315000006B01970D17812789974D97902F05C0201F038
S315000006C0A3010A43DA710022C16902618261C26034
S315000006D0426191F90550464B05F1C00153F821607E
S315000006E062F3104643F8216053F82110BFF35F8F81
S315000006F001266909890005F01F0501F1604101F530
S31500000700614106FA05F5C1F880510D60C16991F99C
S315000007100B5005F1C00153F8217062F3104743F8FE
S31500000720217053F82110BFF35F8F6909890005F026
S315000007301F0501F1604106FA05F501F56141C1F8B1
S3150000074080510D60C16991F907E00EF1C00153F8BF
S31500000750215062F3104543F8215053F82110BFF39E
S315000007605F8F4FEA5E1189000EF01F0E01F16041A6
S3150000077006FA0EF501F56141C1F880510D60C169B7
S3150000078091F9091001F1C00553F8257062F310477D
S3150000079043F8257053F82530BFF35F8F4B099B0054
S315000007A001F01F0103F160438E4003F56143C3F876
S315000007B080611E60036A0CF0030C4CF0700C6189BA
S315000007C083F802C00D4B018143601046F0BDFF2146
S315000007D0BCF1020F08BF42F01002D2B25970DA71B2
S315000007E071E7F22142F040023DE700BF00E100E080
S315000007F000600040800100200040084055494353F6
S3150000080030B4EFF30383103B1F4A5BB203F1C00120
S3150000081052F821006FF3104042F8210052F82120CF
S315000008201A4A52F82300C3691B691BB103691BB13D
S3150000083030BC704703697BB9D0E90824002193785E
S3150000084003F07F0343F004039370C160002CEFD0E4
S3150000085030BC8022FFF700BE827802F00301022935
S31500000860C1680BD0046A91F800C084F803C002F096
S3150000087003029B1A0A44C0E90323D8E70C88056AD9
S3150000088044F47E44EC81F2E70060004080010020E1
S3150000089010B582B0EFF30383103B1F4A5BB203F13E
S315000008A0C00152F821006FF3104042F8210052F8BF
S315000008B021201A4A52F82340A27802F00303022BA1
S315000008C0236A0CBF198A5979A3690CBFC1F30801C1
S315000008D0C9B2019143B9636AB3B10422204602B09A
S315000008E0BDE81040FFF7B8BD02F0030201A9606938
S315000008F001F09AFCD4E90521A37803F003031A4416
S31500000900C91AC4E9052109B102B010BD636A002BFA
S31500000910FAD00122E2E700BF00600040800100201B
S3150000092010B5EFF303830E4A103B5CB252F8240075
S31500000930D0E90821937803F07B03937019B1022262
S315000009400021FFF789FD074A04F1C00352F823107E
S315000009506FF3104142F8231052F8233010BD00BF48
S31500000960800100200060004010B5EFF303831A4AAF
S31500000970103B5CB252F82400837803F00303022B89
S31500000980036A0CBF198A597993F804C00CBFC1F3E6
S315000009900801C9B21CF0100F0CF0380206D093F80B
S315000009A01CC01CF0010F08BF42F0400293F804C0BF
S315000009B00CF0C70C83F804C0436A0BB1FFF74CFD7B
S315000009C0064A04F1C00352F823106FF3104142F8AF
S315000009D0231052F8233010BD800100200060004033
S315000009E00022034610461A60704700BF0B0A10B477
S315000009F01B01064C53FA81F154F821300020C3F351
S31500000A0040035DF8044B1370704700BF00080840B0
S31500000A10090A490101F1804101F500214B680020D6
S31500000A2013807047090A490123EA020C01F180414B
S31500000A301A4001F5002142EA0C4200208A60704704
S31500000A400123C8B283404AB91A040B0A5B0103F1B9
S31500000A50804303F5002300209A6070479AB2F4E7BA
S31500000A60090A490101F1804101F5002110B40C6821
S31500000A7002EA030C4CEA040C62EA030202EA0C02E4
S31500000A8000205DF8044B0A60704700BF090A49015F
S31500000A9001F1804101F500214B680020C3F30F43AB
S31500000AA013807047012310B44FEA112C4FEA4C1CF7
S31500000AB00CF1804C0CF5002CDCF80440C9B203FAAA
S31500000AC001F18BB201EA1441C91AB1FA81F149095F
S31500000AD000205DF8044B1170704700BF090A4901F8
S31500000AE023EA020C01F180411A4001F5002142EA95
S31500000AF00C420020CA607047012A14D04FF480309F
S31500000B000B0A5B0103F1804303F5002310B4CAB25C
S31500000B10DC6800FA02F22243120C120400205DF88F
S31500000B20044BDA6070470B0A5B0103F1804303F55F
S31500000B300023D868C9B28A40024392B20020DA6024
S31500000B40704700BF2DE9F84F0388002B3DD00746BC
S31500000B504FF00008DFF8A4A040F202427B684FEA9B
S31500000B60C80559198988002491424FF00109224E7F
S31500000B7009D00134032C23D07B6836F8022B59198F
S31500000B8089889142F5D15B5909FA04F203F0B8530A
S31500000B90B3F1807F5FFA82FB19D09AF8BB341A4210
S31500000BA0E7D0012000F098FC9AF8BB34012023EA34
S31500000BB00B0B8AF8BBB4013400F05EFC032CDBD1CE
S31500000BC03B8808F101084345C6D8BDE8F88F9AF876
S31500000BD0BB2409FA04F313425FFA83FBC9D101204F
S31500000BE000F07AFC9AF8BB3401204BEA030B8AF832
S31500000BF0BBB400F041FCBCE70A32000000E0014053
S31500000C00F8B50446FFF79EFFEFF31082012383F346
S31500000C101088284E33681BB92749CB704023CB7008
S31500000C2033680133336082F3108823887BB36268AC
S31500000C3003F1FF3E1FFA8EFE02F108011F4C01EB85
S31500000C40CE0E08E0D2B21B0113448E450A4644F884
S31500000C5023001CD008311068928810F4803F4FEAB8
S31500000C601223EFD0130AD2B202EB031C54F82C70F5
S31500000C701B01134420F480356FF310478E4544F86A
S31500000C802C700A4644F82C5044F82300E2D1EFF3C6
S31500000C901082012383F31088336813B13368013B54
S31500000CA0336033681BB980200349CB70C87082F368
S31500000CB01088F8BD7C010020000D0840000808409F
S31500000CC008B5034B03600846FFF79AFF002008BDEE
S31500000CD054524F5008B50846FFF792FF002008BD52
S31500000CE070B5012684B002AB68460C4615460193E2
S31500000CF0ADF80060ADF80C100292FFF723FFEFF39A
S31500000D00108286F310881D490B681BB940261C48C3
S31500000D10C370C6700B6801330B6082F31088EA0358
S31500000D204FEA1423E4B219D41B01164A234442F8AD
S31500000D302350EFF31082012383F310880B6813B15D
S31500000D400B68013B0B600B681BB980200C49CB700C
S31500000D50C87082F31088002004B070BD094A04EB05
S31500000D60031052F820601B016FF3104642F8206012
S31500000D7025F4803642F82060D7E700BF7C010020CA
S31500000D80000D08400008084003460020D3E902236E
S31500000D905360704702464FF0010C30B494680C4D16
S31500000DA0626E0C4B62448A60E46A2A6A1B6881F8A8
S31500000DB000C0C4F3C35CC2F30264A34002F007029E
S31500000DC0D34023FA0CF3002030BC4B60704700BFC1
S31500000DD000E001400C03002030B48C6E01342AB1CF
S31500000DE0944203D930BC013A1A607047029D496BA0
S31500000DF00078ED0754BF01F01F01C1F30441032839
S31500000E0008D9090981F001016AB9A1B930BC0222E9
S31500000E105A60704701F00C01A1F10401B1FA81F1A9
S31500000E204909002AF1D0944201D80029EED130BCFC
S31500000E3003225A607047002CE8D0F8E72DE9F0410C
S31500000E404FF0FF3C0025064684B0009202AB0F46E9
S31500000E50144602F003080A46D0E90101CDE902C5AD
S31500000E60FFF7BAFFB368039A1D6B5AB914F0080F5F
S31500000E700CBF02210421A0071DD5029803EB8101B6
S31500000E80C864086561061ED5196CB8F1010F41F4F6
S31500000E908001196406D025F4403545EA0245B8F1CB
S31500000EA0000F03D025F0407545EA026500201D635A
S31500000EB004B0BDE8F08141440298123103EB810190
S31500000EC048606106E0D4B8F1010F12D025F4403530
S31500000ED0022C45EA0245E2D1002AE3D00120009027
S31500000EE019463A4602AB7068FFF776FF039AB36875
S31500000EF0D8E7022CD6D1002AD4D0EFE7002800DAB2
S31500000F00704710B400F160430901134CC9B203F5F0
S31500000F10614383F80013114B00F1C00144F820200F
S31500000F2053F821206FF3104243F8212053F8213063
S31500000F30BFF35F8F012243099B0000F01F0003F1FE
S31500000F40604303F5614302FA00F0C3F880011860BC
S31500000F505DF8044B704700BF800100200060004030
S31500000F6001222DE9F0410D46097C044602FA01F3FF
S31500000F70C3601B0714BF002302744FF0000218BFA2
S31500000F800374814B84B00B4469691B02836045601E
S31500000F90D5E906364161C0E90623EFF3108E4FF01E
S31500000FA0010C8CF310884FF00040784B2F7C1969A8
S31500000FB020FA07F721EA070119611B698EF31088E9
S31500000FC04FF42541A368D5F804E01960DA62DA63C4
S31500000FD09A6429782F7A03294FEAC7570EF1FF380A
S31500000FE000F09880DF6203921861586198615A6236
S31500000FF09A624FF0FF32B069F76AD861F0690292DF
S315000010001862C3F86880C3F86480002940F0B18094
S31500001010614638464FF0030C4FEA5E02013A0292EF
S315000010205A659A6500284FD13278002A5AD1287815
S31500001030B278C2B196F803E002284FEA0E1242EAED
S315000010408E1200F09080032800F09B80BEF1000F06
S3150000105014BF4FF0090E4FF0060E42EA0E0247EAA1
S31500001060024747F0807700229A63C3F8882096F8F3
S31500001070212096F820E0520742EA4E3217434FF4F9
S31500001080AA0201281A6429D0E268DA605F63C3F80D
S3150000109030C019632246697C95F91200FFF72EFFCE
S315000010A0224696F8221096F92400FFF727FF96F9B4
S315000010B02500224696F82310FFF720FF0020344B28
S315000010C0236004B0BDE8F08100229A63C3F888204B
S315000010D04FF4AA0228781A640128D5D10022DA64CE
S315000010E01A65D1E796F801E028784FEA0E12022831
S315000010F042EA8E123AD0032841D0BEF1000F14BF47
S315000011004FF0090E4FF0060E42EA0E02174347F45F
S3150000111080778DE747F48037DF6203921861586164
S3150000112098615A629A624FF0FF320292B269F76A88
S31500001130DA61F2691A62C3F86880C3F864801946F6
S3150000114000230093EA68606802ABFFF745FEDDE91D
S315000011500220010641EA004141F0030CA368F06A4F
S3150000116041F001015CE74FF0090E76E74FF0090EFA
S31500001170CAE70129E3D138464FF0030C50E786460B
S31500001180C2E7864669E700BF901640000040084067
S3150000119054504700064B074993F826001A6A51F83F
S315000011A02030C2F302620449D3400B60704700BF8F
S315000011B000E00140780000200C030020F8B54AF258
S315000011C0035001233749384AA1F8FE03A2F8043137
S315000011D0B2F804319BB2002BFAD101214FF400453D
S315000011E04FF0090C314CDFF8DCE0314EC4F804E076
S315000011F0DFF8D4E02B48C4F80CE02E4FA2F800111B
S315000012002D4AB16031606261276090F82620A560A2
S315000012102561056A54F82220C5F30265EA40274D88
S315000012202A6080F8133480F8A2C090F8803493B313
S3150000123000231C4981F8813481F8803481F83230EA
S3150000124091F83C301A07FBD543F202100023154AE9
S31500001250088581F82A3092F83C309B06FBD503209E
S315000012600523114981F81C0115490120116282F8F4
S31500001270263092F82630116A54F82330C1F3026101
S31500001280CB402B604FF4254382F8300082F85200A1
S31500001290A2F8FE33F8BD80F8801440F2C44000F096
S315000012A04BF8C5E700E0014000C00140780000208F
S315000012B000700040002D310100C2EB0B0C03002032
S315000012C02112012000127A0000366E0138B5002581
S315000012D0134C0121C82084F8285000F02DF884F81A
S315000012E0245094F82430002BFBD194F824300C4A77
S315000012F043F0020384F8243092F82430C3F3400408
S315000013009B07F9D4012082F8224000F0E5F8054B4E
S31500001310012083F8BB44BDE8384000F0ADB800BFFB
S315000013200030084000E00140704700BFA0F1010016
S315000013300028FBD1704700BF10B54FF47A72164CE7
S31500001340164B24684FF0000EB3FBF4FC4FF0FF334E
S3150000135000FB01F1A1FB020483427EEB040407D3E8
S31500001360B0FBFCF0800880B1BDE81040FFF7DEBF9F
S315000013704FEA8C0CB1FBFCF1A1FB02128B427EEB17
S31500001380020203D308460028EED110BD1846BDE878
S315000013901040FFF7CBBF00BF0C03002000CA9A3BEA
S315000013A070B500240A4B0B4EB3F84051ADB225FA86
S315000013B004F3DB07E0B203D556F8243003B19847AF
S315000013C00134102CF3D1024BA3F8305170BD00BF8D
S315000013D0006000403C01002030B56FF0FF0585B08D
S315000013E0032000F079F84FF0FF311F4C1F482246CA
S315000013F0856400230125CDE90111039104F1C00E96
S3150000140032F8020F590960B104A800EB810151F8C6
S315000014100C0C03F01F0C05FA0CFC20EA0C0041F83A
S315000014200C0C724503F10103EAD10199104B0F4AE6
S3150000143003201167C3F8801202995167C3F884121A
S3150000144003999167C3F8881200F016F8002309483B
S3150000145003F1C00234F8021F0133602B40F822105A
S31500001460F6D105B030BD00BFEE3000000080004070
S3150000147000E100E000600040EFF31081012383F3F8
S315000014801088124B33F8102092B22AB133F810208C
S31500001490013A92B223F8102033F810309BB293B978
S315000014A00B4A10B4B2F8FE330A4C9BB234F8100063
S315000014B043F4254323EA0003A2F8FE3381F31088A0
S315000014C05DF8044B704781F31088704700030020D5
S315000014D000E001401032000030B4EFF31081012328
S315000014E083F310880E4A32F810309BB26BB90D4C5C
S315000014F00D4DB4F8FE3335F810C09BB243EA0C0329
S3150000150043F425439BB2A4F8FE3332F8103001337E
S315000015109BB222F8103081F3108830BC704700BFB0
S315000015200003002000E00140103200000D4908B51C
S315000015300A6803464AB103330B4823F003031344F6
S31500001540834206D810460B6008BD0848024608606C
S31500001550F1E700F0ABFC0C234FF0FF3203601046BE
S3150000156008BD00BF080300205823002058030020B0
S3150000157000BE704708B500F003F8FEF77BFEFEE7F5
S315000015804FF4700270B5254B254CC3F88820002017
S315000015909C60FEF763FEFFF711FE0120FEF75EFE7C
S315000015A02368A3F5805383F30A881E481E4A002148
S315000015B0121A00F046FE1D481D4A1E49121A00F076
S315000015C033FE1D4D1D4B5B1B002B07DD00249E10BB
S315000015D055F8043B01349847A642F9DCFFF7DAFDDB
S315000015E0FFF774FE0320FFF777FF00234FF6FF7027
S315000015F0134903F108020133092B21F81200F8D12F
S315000016000320FFF739FF0220FEF728FEFFF7E4FE6E
S31500001610BDE870400020FFF787BE00BF00ED00E088
S315000016200000000098000020580300200000002061
S3150000163078000020D43400007000002074000020E0
S31500001640000D0840B42828BFB4204FF4FA6C70B5DA
S315000016500CFB00F41649A408A1FB0414154BA408BE
S315000016601D6804F5FA7482B0064644F62062A4FBAF
S315000016700501002300F08AFA314603466426224615
S315000016801C4606FB03F3B3FBF5F50B482346009512
S3150000169000F0C0FE002221460848FFF7CFFB08B93C
S315000016A002B070BD064802B0BDE8704000F038BF19
S315000016B0176CC1161403002018320000BC0000206D
S315000016C05C320000B42828BFB4204FF4FA6C70B521
S315000016D00CFB00F41649A408A1FB0414154BA4083E
S315000016E01D6804F5FA7482B0064644F62062A4FB2F
S315000016F00501002300F04AFA3146034664262246D5
S315000017001C4606FB03F3B3FBF5F50B482346009591
S3150000171000F080FE012221460848FFF78FFB08B93A
S3150000172002B070BD064802B0BDE8704000F0F8BED9
S31500001730176CC116140300207C320000BC00002088
S31500001740C032000000B51B4985B01B48FFF708FCF6
S3150000175018BB194801A9FFF71DFBC0B90399174B20
S315000017601748196000F056FE1348FFF70DFBD0B975
S315000017705A20FFF7A7FF5A20FFF764FF5A22114BA2
S3150000178011481A6000F0CCFE05B05DF804FB0F4866
S3150000179000F0C6FE05B05DF804FB0D4805B05DF827
S315000017A004EB00F0BDBE0B4800F0BAFE05B05DF8D4
S315000017B004FB00BFE42F0000BC000020140300203F
S315000017C0143300000800002054330000F8320000F3
S315000017D0E032000038330000B42828BFB4202DE9D9
S315000017E0F041264F3A68824241D005460B460E46E6
S315000017F011460246224800F00DFE3C68AC421CD25F
S31500001800DFF88C800BE02046FFF75CFF3C604FF46E
S315000018107A7130460234FFF78FFDA54220D398F83F
S315000018200030002BEFD02146164800F0F3FD0023D0
S315000018303C6088F80030BDE8F08111D9DFF85080AF
S3150000184098F80030002BEED12046FFF73BFF3C60B6
S315000018504FF47A713046023CFFF76EFDA542EFD990
S3150000186029463D600848BDE8F04100F0D3BD114669
S31500001870BDE8F041054800F0CDBD00BF08000020DE
S3150000188098330000CC330000FC33000078330000AE
S31500001890100300200F215F20FFF79EBF0F21B42009
S315000018A0FFF79ABF0122014B1A7070471003002000
S315000018B038B5244D244C2B780BB923783BB32378C9
S315000018C023B30022214B1B7822700D2BD9B21DD0D9
S315000018D01F4C23781E2B03D81E4A581C2070D15447
S315000018E00A2913D100201B4B21781B4A585419682A
S315000018F0914216D0194A1968914218D000212170D8
S315000019002022BDE83840134800F09BBC38BD0122B8
S315000019100E491348FEF71AFD0028D0D101232B707B
S31500001920CDE79A880A2AE5D1FFF7B4FFE6E70D4A24
S315000019305B689342E2D10C4B1B78002BDED1FFF79C
S31500001940ADFFDBE73D0300203E0300201803002027
S315000019503C0300201C0300204752495052454C4589
S31500001960DC0000204153450A240300202DE9F047FE
S31500001970002682460D46184B184CD3F808801F687F
S31500001980DFF8609082B02A4651463846D8F80830CB
S315000019902660984788B108280CD1CDF8049003E05A
S315000019A0019B5A1E019213B12368002BF8D0019BAC
S315000019B0002BE8D102B0BDE8F087094B019303E0A4
S315000019C0019B5A1E019213B12368002BF8D0002305
S315000019D0236002B0BDE8F0876830000044030020B1
S315000019E08096980040420F0008B5084BD3E90112D3
S315000019F018681268904708B100BE08BD044905483A
S31500001A00FEF74CFD0028F7D108BD00BF6830000086
S31500001A1034300000DC0000200379022B04D0802B38
S31500001A2002D0012B04D070470122034B1A60704785
S31500001A30024A1360704700BF4403002040030020A1
S31500001A4038B50379042B00D038BD90F908300A2B3D
S31500001A5001D00D2BF8D100250B4C0C4823780C49EE
S31500001A60C55400F0B8FD60B101210A4A0A4B117055
S31500001A701D700021202221700448BDE8384000F086
S31500001A80E0BBFFF70FFFF4E73C0300201C03002038
S31500001A90283400003E0300203D030020F0B583B04B
S31500001AA029B3002A164622DD551E0D274C1E0D446D
S31500001AB006E001210DF10600FFF758FFA54213D0FD
S31500001AC014F8013F0A2B8DF80630F2D101210DF1F1
S31500001AD007008DF80770FFF749FF01210DF1060099
S31500001AE0FFF744FFA542EBD1304603B0F0BD002618
S31500001AF0304603B0F0BD00BF2DE9F041884682B004
S31500001B0069B3002A2BDD00251E4B1F4C9F681E68FB
S31500001B108DF8045001E0082825D1012230467B6863
S31500001B2001A9256098470028F5D12368002BFCD031
S31500001B3000229DF8043022600D2B8DF8033014D15D
S31500001B4040F60D2301A80221ADF80430FFF70EFF81
S31500001B500A23012088F8003002B0BDE8F081002099
S31500001B6002B0BDE8F0818DF803500DF103000121AC
S31500001B70FFF7FCFE01209DF8033088F8003002B024
S31500001B80BDE8F081683000004003002053B94AB92F
S31500001B90002908BF00281CBF4FF0FF314FF0FF306F
S31500001BA000F082B9ADF1080C6DE904CE00F006F83C
S31500001BB0DDF804E0DDE9022304B070472DE9F04FBB
S31500001BC0099D04460F46002B48D18A42944661D9A6
S31500001BD0B2FA82F343B1C3F120019F4002FA03FC3B
S31500001BE09C4020FA01F10F434FEA1C411FFA8CFE7C
S31500001BF0220CB7FBF1F601FB167706FB0EF042EA64
S31500001C000742904208D91CEB020206F1FF3702D2C6
S31500001C10904200F237813E46121AA4B2B2FBF1F0AE
S31500001C2001FB102200FB0EFE44EA0244A64508D939
S31500001C301CEB040400F1FF3202D2A64500F21C811F
S31500001C40104640EA0640A4EB0E0400261DB1DC4017
S31500001C500023C5E900433146BDE8F08F8B4209D920
S31500001C60002D00F0FD800026C5E900013046314612
S31500001C70BDE8F08FB3FA83F6002E4BD18B42C0F04D
S31500001C80F280824240F2EF803046002DE3D0C5E973
S31500001C900047E0E702B9FFDEB2FA82F3002B40F01C
S31500001CA09D80891A4FEA124E97B20126200CB1FB8D
S31500001CB0FEF20EFB121140EA014107FB02F08842D8
S31500001CC00FD91CEB010102F1FF382CBF4FF00109BF
S31500001CD04FF00009884203D9B9F1000F00F0CF8018
S31500001CE04246091AA4B2B1FBFEF00EFB101100FB2E
S31500001CF007F744EA0144A74208D91CEB040400F1A3
S31500001D00FF3102D2A74200F2B4800846E41B40EA43
S31500001D1002409BE7C6F12007B34001FA06F422FA17
S31500001D2007FCF940B2404CEA030C20FA07F34FEAED
S31500001D301C491C431FFA8CFE00FA06F3200CB1FB6B
S31500001D40F9F809FB181140EA014108FB0EF0884238
S31500001D500FD91CEB010108F1FF3A2CBF4FF0010B24
S31500001D604FF0000B884203D9BBF1000F00F08D80C5
S31500001D70D046091AA4B2B1FBF9F009FB101100FB19
S31500001D800EFE44EA01418E4507D91CEB010100F124
S31500001D90FF3401D28E457FD8204640EA0840A1EBA9
S31500001DA00E01A0FB029841454C46C64602D306D119
S31500001DB04B4504D20138B9EB020468EB0C0E002D3A
S31500001DC070D01A1B61EB0E0122FA06F301FA07F72F
S31500001DD0F14000261F43C5E900713CE702FA03FC07
S31500001DE0C3F1200001FA03F221FA00F64FEA1C4E75
S31500001DF024FA00F11FFA8CF79C401143B6FBFEF063
S31500001E000A0C0EFB106642EA064200FB07F69642F3
S31500001E100ED91CEB020200F1FF382CBF4FF001096E
S31500001E204FF00009964202D9B9F1000F31D0404671
S31500001E30921B89B2B2FBFEF60EFB162241EA024164
S31500001E4006FB07F28A4207D91CEB010106F1FF38AF
S31500001E5001D28A4223D84646891A46EA004625E731
S31500001E602E462846F7E6841A61EB030301201F4637
S31500001E700BE76444023849E764440238E1E6023A73
S31500001E8061442EE7023E6244C6E6A8F102086144B8
S31500001E906FE702386244CBE7023861447DE7023ED1
S31500001EA06144D9E72E46D6E6704700BF014B186855
S31500001EB0704700BF0C0000208A892DE9F0410546D5
S31500001EC010070C4658D44B68002B05DC0B6C002B16
S31500001ED002DC0020BDE8F081E66A002EF9D000237E
S31500001EE012F480522F682B6032D0606DA3895A0796
S31500001EF005D56368C01A636B0BB1236CC01A002347
S31500001F000246E66A2846216AB047431CA38906D1E1
S31500001F1029681D292CD8294ACA40D60728D5002267
S31500001F20D90462602269226004D5421C01D12B6863
S31500001F3003B96065616B2F600029CAD004F14403C0
S31500001F40994202D0284600F085F900206063C1E777
S31500001F50216A01232846B047411CC7D12B68002BB4
S31500001F60C4D01D2B01D0162B01D12F60B1E7A38958
S31500001F7043F04003A381ADE70F69002FA9D0930773
S31500001F800E680F600CBF4B690023A6EB07088B6039
S31500001F90B8F1000F9DDD43463A46216A2846A66AF7
S31500001FA0B047002806DCA3894FF0FF3043F040031A
S31500001FB0A3818FE70744A8EB0008E9E7010040206A
S31500001FC038B50B6905460C4613B90025284638BDB9
S31500001FD018B183690BB900F087F8144B9C421BD1EA
S31500001FE06C68B4F90C30002BEFD0626ED00704D4C5
S31500001FF0990502D4A06D00F015F928462146FFF791
S315000020005BFF636E0546DA07E0D4A3899B05DDD442
S31500002010A06D00F008F9D9E7054B9C4201D1AC68E8
S31500002020DFE7044B9C4208BFEC68DAE75034000057
S315000020307034000030340000002310B5044683607D
S31500002040818119464366C28108228361C0E9003353
S31500002050C0E904335C3000F0F4F8054B2462636297
S31500002060044BA362044BE362044B236310BD00BF21
S315000020705125000073250000AB250000CF25000088
S31500002080014900F0AFB800BFC11F000070B568225B
S315000020904D1E0E46554305F1740100F047F90446FE
S315000020A040B1002105F16802C0E900160C30A060BD
S315000020B000F0C7F8204670BD014800F0B3B800BF75
S315000020C049030020014800F0AEB800BF49030020D4
S315000020D0014800F0A7B800BF4A030020014800F0FD
S315000020E0A2B800BF4A03002010B50446FFF7F0FF70
S315000020F0A3691BB1BDE81040FFF7F0BFC4E9123376
S3150000210023652046124B134A1B68A262A34204BFF2
S315000021100123A36100F020F86060204600F01CF85F
S31500002120A060204600F018F800220421E0606068F4
S31500002130FFF782FF01220921A068FFF77DFF022237
S315000021401221E068FFF778FF0123A361D2E700BF01
S315000021509034000081200000F8B50746FFF7ACFF79
S315000021601E4B1E68B36913B93046FFF7BDFF4836EC
S31500002170D6E90134013B03D533680BB33668F7E77C
S31500002180B4F90C50D5B9164B04F158006566E360F6
S3150000219000F047F8FFF796FF0822294604F15C0095
S315000021A02560A561C4E90155C4E9045500F049F864
S315000021B0C4E90D55C4E912552046F8BD6834D9E77F
S315000021C004213846FFF762FF044630600028D5D167
S315000021D0FFF778FF0C233B60EEE700BF903400006A
S315000021E00100FFFF2DE9F8430646884600F1480442
S315000021F00027D4E90195B9F1010905D52468002C19
S31500002200F7D13846BDE8F883AB89012B07D9B5F974
S315000022100E30013303D029463046C04707436835A0
S31500002220E9E77047704770470A44431E914200D160
S31500002230704710B511F8014B914203F8014FF9D1DF
S3150000224010BD02440346934200D1704703F8011BB8
S31500002250F9E7FFFF37B5002943D051F8043C0C1FBE
S315000022600190002BB8BFE41800F01AFB1E4A019833
S31500002270136833B96360146003B0BDE8304000F002
S3150000228015BBA34208D9256861198B4201BF19689D
S315000022905B6849192160EDE71A465B680BB1A342FA
S315000022A0FAD911685518A5420BD12468214454184F
S315000022B01160A342E0D11C685B6821445360116041
S315000022C0DAE702D90C230360D6E7256861198B4249
S315000022D002BF19685B684919636008BF21605460D2
S315000022E0CAE703B030BD00BF4C03002070B50E4EE8
S315000022F00C460546316811B900F01AF930602146DE
S31500002300284600F015F9431C0AD0C41C24F0030427
S31500002310A04207D0211A284600F00AF9013001D15F
S315000023204FF0FF34204670BD500300202DE9F041E8
S31500002330CD1C074625F0030508350C2D38BF0C25A6
S31500002340002D01DBA94205D90C2300263B6030464F
S31500002350BDE8F0812E4E00F0A3FA33681C4634BB6C
S3150000236029463846FFF7C2FF431C04464DD1346860
S315000023702646002E40D123683146384604EB030832
S3150000238000F0D6F880453AD12168033538466D1AF3
S3150000239025F0030508350C2D38BF0C252946FFF717
S315000023A0A5FF01302BD023682B4423600EE0226862
S315000023B0521B1ED40B2A16D96119A342256018BFD9
S315000023C05960636808BF316062514B6004F10B06C7
S315000023D0384600F06BFA231D26F00706F21AB6D02F
S315000023E09B1BA350B3E76268A3420CBF32605A60DE
S315000023F0ECE723466468B2E734467668B9E70C230F
S3150000240038463B6000F052FAA1E72560DEE700BFE0
S315000024104C0300200FB40A4B13B51C6824B1A36902
S3150000242013B92046FFF760FE05AB049AA168204663
S31500002430019300F06BFA02B0BDE8104004B070479B
S315000024400C00002070B50E46054618B183690BB91D
S31500002450FFF74AFEAB69AC6813B92846FFF744FE9E
S315000024602C4B9C4220D16C68636EDB0705D4A38994
S31500002470980502D4A06DFFF7D5FEA38919071DD5CF
S315000024802369DBB1013EA36816F8011F013BA36077
S3150000249039BB002B38DA22460A21284600F0A6F876
S315000024A0013011D00A2511E01B4B9C4201D1AC68CA
S315000024B0DAE71A4B9C4208BFEC68D5E72146284666
S315000024C000F0F8F80028DDD04FF0FF35636EDA072C
S315000024D005D4A3899B0502D4A06DFFF7A4FE284668
S315000024E070BD002B04DAA2699A4206DC0A2904D0E0
S315000024F023685A1C22601970C5E72246284600F058
S3150000250075F80130BFD1DFE723680A255A1C22601F
S315000025101D70DBE7503400007034000030340000DA
S31500002520024B01461868FFF78DBF00BF0C00002064
S3150000253038B50023054D044608462B60FEF7F6FF26
S31500002540431C02D12B6803B1236038BD540300201D
S3150000255010B50C46B1F90E1000F09EFC0028ABBF7A
S31500002560636DA3891B1823F48053ACBF6365A381F5
S3150000257010BD2DE9F0411F468B8905460C46DB054B
S31500002580164605D502230022B1F90E1000F010F907
S31500002590A3893246B4F90E10284623F48053A3814A
S315000025A03B46BDE8F04100F073B810B50C46B1F9F2
S315000025B00E1000F0FDF8431CA38915BF606523F4D7
S315000025C0805343F48053A38118BFA38110BDB1F992
S315000025D00E1000F0DDB810F8012B11F8013B012AAE
S315000025E028BF9A42F7D0D01A7047FFFFF8B50E46BB
S315000025F01446054618B183690BB9FFF775FD214BE3
S315000026009C422BD16C68A369A360A3891A072FD5B6
S3150000261023696BB32369F6B220683746C01A63692B
S31500002620834204DC21462846FFF7CAFC30BBA36878
S315000026300130013BA36023685A1C22601E70636947
S31500002640834204D0A389DB0706D50A2E04D121468E
S315000026502846FFF7B5FC88B93846F8BD0A4B9C42B8
S3150000266001D1AC68CFE7094B9C4208BFEC68CAE7CA
S315000026702146284600F01EF80028CBD04FF0FF3741
S31500002680EAE700BF50340000703400003034000028
S3150000269038B50446064D0846114600222A601A46F9
S315000026A0FFF7FCF9431C02D12B6803B1236038BD48
S315000026B054030020324B70B51D6806460C4625B102
S315000026C0AB6913B92846FFF70FFD2E4B9C420FD17D
S315000026D06C68A389B4F90C2019072CD4DD0611D433
S315000026E00923336042F040034FF0FF30A3813EE000
S315000026F0254B9C4201D1AC68EBE7244B9C4208BFBA
S31500002700EC68E6E7580712D5616B41B104F1440362
S31500002710994202D03046FFF79DFD00236363A389EB
S3150000272023F02403A3810023636023692360A38924
S3150000273043F00803A38123694BB9A38903F42073EB
S31500002740B3F5007F03D02146304600F069F8A08932
S31500002750B4F90C2010F001030AD00023A3606369CA
S315000027605B42A361236943B910F08000BAD170BD02
S31500002770810758BF6369A360F4E70020F7E700BF4D
S315000027800C0000205034000070340000303400008B
S3150000279038B50023054D044608462B6000F0BEFB05
S315000027A0431C02D12B6803B1236038BD54030020BB
S315000027B038B50446064D0846114600222A601A46D8
S315000027C000F0C4FB431C02D12B6803B1236038BD63
S315000027D05403002070B50E46B1F90E1096B014469B
S315000027E000291D4608DAB6F90C3000222A601A06BE
S315000027F010D44FF480630EE06A4600F05FFB0028B9
S31500002800F1DB019A02F47042A2F500535A425A4192
S315000028102A60EEE740230020236016B070BDFFFF5C
S315000028208B8973B59D0706460C4607D504F1470309
S31500002830236023610123636102B070BD01AB6A4668
S31500002840FFF7C8FF009905463046FFF76FFD48B908
S31500002850B4F90C309A05EFD423F0030343F00203D6
S31500002860A381E3E70D4BB362A389206043F08003A5
S315000028702061A381009B6361019B5BB1B4F90E10DB
S31500002880304600F02DFB28B1A38923F0030343F063
S315000028900103A381A0890543A581CDE7812000001E
S315000028A00148FFF7BFBC00BF480300200148FFF7FF
S315000028B0BABC00BF480300209368013B002B93601D
S315000028C010B408DA9469A34201DB0A2903D15DF842
S315000028D0044BFFF78BBE1368581C1060084619702E
S315000028E05DF8044B7047F8B506460F461446D518F2
S315000028F0AC4201D1002007E03A4614F8011B3046ED
S31500002900FFF7DAFF431CF3D1F8BDFFFF2DE9F04FC7
S315000029100D469DB014469846064618B183690BB914
S31500002920FFF7E2FB894B9D421BD175686B6ED90799
S3150000293005D4AB899A0502D4A86DFFF773FCAB8961
S315000029401B0701D52B69EBB929463046FFF7B2FEC6
S31500002950C0B16B6EDC070ED54FF0FF301DB0BDE881
S31500002960F08F7B4B9D4201D1B568DFE7794B9D42E5
S3150000297008BFF568DAE7AB899805EDD4A86DFFF7CF
S3150000298052FCE9E70023CDF80C804FF00109DFF88F
S31500002990C881099320238DF8293030238DF82A30F9
S315000029A023469A4613F8012B0AB1252AF9D1BAEB28
S315000029B0040B0BD05B46224629463046FFF793FFB1
S315000029C0013000F0AA80099A5A4409929AF8003018
S315000029D0002B00F0A28000234FF0FF320AF1010A1B
S315000029E0049307938DF853301A93CDE90523544683
S315000029F00522594814F8011B00F082FA049AD8B946
S31500002A00D10644BF20238DF85330130744BF2B2330
S31500002A108DF853309AF800302A2B15D0079A544671
S31500002A2000204FF00A0C214611F8013B303B092BE0
S31500002A304ED9B0B1079214E0A0EB0803A24609FAFA
S31500002A4003F313430493D2E7039B191D1B68002B62
S31500002A500391BBBF5B4242F0020207930793B8BFE4
S31500002A60049223782E2B0CD163782A2B35D1039B25
S31500002A7002341A1D1B68002B0392B8BF4FF0FF33B8
S31500002A800593DFF8E4A003222178504600F038FAD7
S31500002A9040B14023A0EB0A00013403FA00F0049B86
S31500002AA00343049314F8011B06222C488DF82810C2
S31500002AB000F026FA00283FD0294B1BBB039B0733A7
S31500002AC023F0070308330393099B3B44099367E705
S31500002AD00CFB02320C460120A5E7002301344FF01F
S31500002AE00A0C19460593204610F8012B303A092A9C
S31500002AF003D9002BC5D00591C3E70CFB0121044681
S31500002B000123F0E703AB2A4604A930460093154B90
S31500002B1000E000BF0746781CD6D16B6ED90705D4F6
S31500002B20AB899A0502D4A86DFFF77DFBAB895B06DE
S31500002B303FF512AF099811E703AB2A4604A93046C0
S31500002B400093084B00F082F8E4E700BF5034000021
S31500002B507034000030340000943400009E340000CD
S31500002B6000000000E72800009A3400002DE9F04735
S31500002B70164699468A6807460B690C46DDF820809A
S31500002B809342B8BF1346336091F843200AB101332C
S31500002B9033602368990642BF336802333360256881
S31500002BA015F0060506D104F1190AE36832689B1A86
S31500002BB0AB4229DC94F84320131E226818BF012378
S31500002BC092062ED404F1430249463846C0470130E6
S31500002BD021D023681A3454F80E5C03F006033268D9
S31500002BE00026042B54F8123C08BFAD1A54F80A2CE0
S31500002BF014BF002525EAE5759342C4BF9B1AED185C
S31500002C00B5421AD1002008E001235246494638460B
S31500002C10C047013003D14FF0FF30BDE8F0870135E2
S31500002C20C3E7E1185A1C30200233224481F84300DE
S31500002C3094F8451082F84310C4E70123224649461A
S31500002C403846C0470130E6D00136D9E72DE9FF47BF
S31500002C500F7E914680460C46782F9A460C9D01F1D0
S31500002C60430207D8622F0AD8002F00F0D880582FC9
S31500002C7000F0A38004F1420584F842703AE0A7F11F
S31500002C806303152BF6D801A151F823F0E52C0000BB
S31500002C90F92C0000752C0000752C0000752C000026
S31500002CA0752C0000F92C0000752C0000752C000016
S31500002CB0752C0000752C0000052E0000292D000043
S31500002CC0E72D0000752C0000752C0000272E000053
S31500002CD0752C0000292D0000752C0000752C0000B5
S31500002CE0EF2D00002B681A1D1B682A6004F14205AF
S31500002CF084F842300123A3E020682968060601F122
S31500002D0004030AD50E682B60002E03DA2D237642C3
S31500002D1084F843305E480A2319E00E6810F0400F2D
S31500002D202B6018BF36B2EFE72B682068191D2960A3
S31500002D30010601D51E6802E04606FBD51E886F2FE8
S31500002D4053480CBF08230A23002184F84310656802
S31500002D50002DA560A2BF216821F0040121600EB9F3
S31500002D60002D4DD01546B6FBF3F103FB1167C75D89
S31500002D7005F8017D37460E46BB42F4D9082B0BD128
S31500002D802368DE0708D5236961689942DEBF3023D0
S31500002D9005F8013C05F1FF35521B22614B4603AA9B
S31500002DA021464046CDF800A0FFF7E0FE01304CD1A9
S31500002DB04FF0FF3004B0BDE8F087354881F8457024
S31500002DC02968236851F8046B29601D0614D5DF07AE
S31500002DD044BF43F0200323601EB9236823F0200379
S31500002DE023601023B0E7236843F020032360782391
S31500002DF0284884F84530E3E7590648BFB6B2E6E707
S31500002E001546BBE72B682668181D616928603506DC
S31500002E101B6801D5196002E07006FBD519800023F6
S31500002E2015462361BAE72B6800211A1D2A601D6822
S31500002E306268284600F064F808B1401B6060636869
S31500002E402361002384F84330A8E723692A464946CC
S31500002E504046D0470130ABD023689B0713D4E068C7
S31500002E60039B9842B8BF1846A4E701233246494659
S31500002E704046D04701309BD00135E36803995B1A81
S31500002E80AB42F2DCEBE7002504F11906F5E700BFDB
S31500002E90A5340000B634000038B50446064D084691
S31500002EA0114600222A601A46FEF726FE431C02D16E
S31500002EB02B6803B1236038BD5403002038B50023C6
S31500002EC0064D0446084611462B6000F02FF8431CB9
S31500002ED002D12B6803B1236038BD00BF5403002024
S31500002EE038B50023054D044608462B6000F026F849
S31500002EF0431C02D12B6803B1236038BD5403002064
S31500002F00C9B2024410B59042034601D1002303E042
S31500002F101C7801308C42F6D1184610BD024B58225F
S31500002F204FF0FF301A60704754030020024B5822BE
S31500002F304FF0FF301A60704754030020024B5822AE
S31500002F4000201A60704700BF54030020024B58222D
S31500002F504FF0FF301A607047540300204275696CC9
S31500002F607420776974682052656E657361732041B9
S31500002F706476616E63656420466C657869626C652B
S31500002F8020536F667477617265205061636B616769
S31500002F90652076657273696F6E20342E352E30008B
S31500002FA0342E352E3000000000000504F8B500BFB1
S31500002FB0F8BC08BC9E467047F8B500BFF8BC08BC14
S31500002FC09E467047756172745F496E6974207375A9
S31500002FD06363657373210D00B4000020A830000000
S31500002FE0D43100000200000080841E0000000000B2
S31500002FF040420F0000FFDF0000000000000000005C
S315000030000430000000000100000000000000000085
S3150000301000000000000000000000000000000000AA
S31500003020000000000000FFFFDFDF000000000000DE
S3150000303000000000020200000C040C050C060C0740
S315000030400000000000000000411A0000000000001F
S315000030505430000000010000000000200F00FFFFB8
S3150000306000000000FFFF00000C010020743000008B
S31500003070B0310000070200000C000C010C020C032A
S315000030800000000000000000191A00000000000007
S315000030909430000000010000040000200F00FFFF34
S315000030A000000000FFFF000008000000B030000034
S315000030B000000100080100000000010000030000FC
S315000030C000000104010300000000010402030000E7
S315000030D0000001030B050000000001030C050000C1
S315000030E0000001050D060000000001050E060000A7
S315000030F0AA01AB01AC01AD018C018D018E018F01DE
S3150000310000000000000000000000000000000000B9
S3150000311000000000000000000000000000000000A9
S315000031200000000000000000000000000000000099
S315000031300000000000000000000000000000000089
S315000031400000000000000000000000000000000079
S315000031500000000000000000000000000000000069
S315000031600000000000000000000000000000000059
S315000031700000000000000000000000000000000049
S315000031800000000000000000000000000000000039
S315000031900000000000000000000000000000000029
S315000031A00000000000000000000000000000000019
S315000031B09D0400004D03000059030000B103000008
S315000031C0FD03000009040000A103000081020000C5
S315000031D045040000C10C0000E1090000D50C000008
S315000031E0E10C0000A50A0000F90A0000ED09000044
S315000031F0410A0000610A00008D0A0000DD0A000095
S31500003200110A0000250A0000020403040404FFFF5B
S315000032100100020008001000536572766F2D413AD6
S3150000322020616E676C653D256C75C2B02C2070758B
S315000032306C73653D256C7575732C20647574793DCA
S31500003240256C7520636F756E74732C2072617469BA
S315000032506F3D256C7525250D0A00000053657276B5
S315000032606F2D413A20447574794379636C655365D3
S3150000327074204572726F720D00FFFFFF5365727600
S315000032806F2D423A20616E676C653D256C75C2B044
S315000032902C2070756C73653D256C7575732C2064D8
S315000032A07574793D256C7520636F756E74732C206B
S315000032B0726174696F3D256C7525250D0A00000045
S315000032C0536572766F2D423A20447574794379635B
S315000032D06C65536574204572726F720D00FFFFFFB7
S315000032E0536572766F3A2047505430204F70656EA2
S315000032F0204572726F720D00536572766F3A2047E1
S3150000330050543020496E666F476574204572726F5F
S31500003310720D0000536572766F3A20506572696FC0
S3150000332064203D20256C7520636F756E74732028AC
S3150000333032306D73290D0A00536572766F3A204755
S31500003340505430205374617274204572726F720D3E
S3150000335000000000536572766F3A20496E69746901
S31500003360616C697A656420737563636573736675EA
S315000033706C6C790D00FFFFFFE29C9320E5B7B2E588
S315000033809CA8E79BAEE6A087E8A792E5BAA63A20F6
S31500003390256C75C2B00D0A00E888B5E69CBAE8BD92
S315000033A0ACE58AA83A20256C75C2B020E286922048
S315000033B0256C75C2B02028E9809FE5BAA63A20257B
S315000033C06C756D732FE6ADA5290D0A00E29AA0EF84
S315000033D0B88F2020E8BDACE58AA8E8A2ABE4B8AD7A
S315000033E0E696AD2120E5BD93E5898DE8A792E5BA7D
S315000033F0A63A20256C75C2B00D0A0000E29C932007
S31500003400E8BDACE58AA8E5AE8CE68890EFBC8CE515
S31500003410BD93E5898DE8A792E5BAA63A20256C7595
S31500003420C2B00D0A0D0A00FF53544F5000FFFFFFB4
S315000034300000000000000000000000000000000086
S315000034400000000000000000000000000000000076
S315000034500000000000000000000000000000000066
S315000034600000000000000000000000000000000056
S315000034700000000000000000000000000000000046
S315000034800000000000000000000000000000000036
S3150000349010000020232D302B2000686C4C00656640
S315000034A0674546470030313233343536373839418F
S315000034B042434445460030313233343536373839A5
S311000034C061626364656600FF00000000A6
S30D000034CCF0E6FF7F010000009D
S315000034D44000350040003500B40000001000002014
S315000034E40000000050340000703400003034000046
S315000034F400000000000000000000000000000000C2
S3150000350400000000000000000000000000000000B1
S3150000351400000000000000000000000000000000A1
S315000035240000000000000000000000000000000091
S315000035340000000000000000000000000000000081
S30D0000354425020000010200004F
S3150100A100FFFFFFFFFFFFFFFFFFFFFFFFFFFFFFFF58
S3090100A110FFFFFFFF48
S3090100A134FFFFFFFF24
S3150100A200FFFDFFFFFFFFFFFFFFFFFFFFFFFFFFFF59
S3150100A210FFFFFFFFFFFFFFFFFFFFFFFFFFFFFFFF47
S3150100A220FFFFFFFFFFFFFFFFFFFFFFFFFFFFFFFF37
S3150100A230FFFFFFFFFFFFFFFFFFFFFFFFFFFFFFFF27
S3150100A240FFFFFFFFFFFFFFFFFFFFFFFFFFFFFFFF17
S3150100A250FFFFFFFFFFFFFFFFFFFFFFFFFFFFFFFF07
S3150100A260FFFFFFFFFFFFFFFFFFFFFFFFFFFFFFFFF7
S3150100A270FFFFFFFFFFFFFFFFFFFFFFFFFFFFFFFFE7
S3150100A280F8F8FFFFFFFFFFFFFFFFFFFFFFFFFFFFE5
S3150100A290FFFFFFFFFFFFFFFFFFFFFFFFFFFFFFFFC7
S3150100A2A0FFFFFFFFFFFFFFFFFFFFFFFFFFFFFFFFB7
S3150100A2B0FFFFFFFFFFFFFFFFFFFFFFFFFFFFFFFFA7
S3150100A2C0FFFFFFFFFFFFFFFFFFFFFFFFFFFFFFFF97
S7050000157570
