S02B000031355365766F72416C6C2B53544F50322B4D5055363035302B766F69636550726F2B776966692B4301
S31500000000503C002009340000353200000534000061
S3150000001005340000053400000534000005340000F6
S315000000200000000000000000000000000534000091
S31500000030053400000000000005340000053400000F
S31500000040DD1400004D1400006D150000B51500000C
S31500000050DD1400004D1400006D150000B5150000FC
S31500000060B51E0000F51F0000E9200000B1210000C8
S31500000070DD1400004D1400006D150000B5150000DC
S31500000080000000000000000000000000000000006A
S31500000090000000000000000000000000000000005A
S315000000A0000000000000000000000000000000004A
S315000000B0000000000000000000000000000000003A
S315000000C0000000000000000000000000000000002A
S315000000D0000000000000000000000000000000001A
S315000000E0000000000000000000000000000000000A
S315000000F000000000000000000000000000000000FA
S3150000010000000000000000000000000000000000E9
S3150000011000000000000000000000000000000000D9
S3150000012000000000000000000000000000000000C9
S3150000013000000000000000000000000000000000B9
S3150000014000000000000000000000000000000000A9
S315000001500000000000000000000000000000000099
S315000001600000000000000000000000000000000089
S315000001700000000000000000000000000000000079
S315000001800000000000000000000000000000000069
S315000001900000000000000000000000000000000059
S315000001A00000000000000000000000000000000049
S315000001B00000000000000000000000000000000039
S315000001C0FFFFFFFFFFFFFFFFFFFFFFFFFFFFFFFF39
S315000001D0FFFFFFFFFFFFFFFFFFFFFFFFFFFFFFFF29
S315000001E0FFFFFFFFFFFFFFFFFFFFFFFFFFFFFFFF19
S315000001F0FFFFFFFFFFFFFFFFFFFFFFFFFFFFFFFF09
S3150000020010B5054C237833B9044B13B1044800E00C
S3150000021000BF0123237010BDB000002000000000C5
S31500000220007B000008B5034B1BB10349034800E0FF
S3150000023000BF08BD00000000B4000020007B0000E5
S31500000240F0B50D4683B03F21174605F04CFA00285D
S315000002503CD090F90120441C002A3CD02046204E78
S315000002600DE084421CD010F9013C262B18D0262123
S3150000027005F039FA50B390F9012001305AB3A2F1D2
S315000002800A03DBB2162BECD826FA03F3DB4313F092
S3150000029001031DD08442EAD010F9013C262BE6D199
S315000002A09542E4D190F901303D2BE0D10024851C24
S315000002B00A22284601A9019405F0C6FA019A0346C6
S315000002C095420BD0B42809D801203B6003B0F0BD9D
S315000002D0184603B0F0BD104603B0F0BD2046F5E762
S315000002E0090040002DE9F041804608460F4605F01A
S315000002F007FAE8B10646002407E04FF47A710A20AF
S315000003002C4402F063FFA64212D9351B802D28BF6C
S31500000310802540462A46391904F064F90028ECD0B5
S3150000032033462246BDE8F0410146024805F0C6B80C
S31500000330BDE8F081F8680000007903F0DBB900BF82
S315000003402DE9F04F2DED0C8BADF62C4D04F0F2F9A6
S31500000350AD4805F039F90023AC48CDE9203305F066
S3150000036033F903F0CFFE0446A948214605F0A6F866
S31500000370002C00F0148500231993A64805F024F9F3
S3150000038003F01CFA03F0BCF900250146A24805F06B
S3150000039095F80DF17F008DF87F5003F0DDF99DF89B
S315000003A07F2001469D48322405F088F82F462E46C8
S315000003B0B2A803F0D9F903464FF47A710A2033B98B
S315000003C0BDF9C822BDF9CA3216441F44013502F0F0
S315000003D0FDFE013CECD1CDE91C672DB196FBF5F392
S315000003E01C9397FBF5F31D9300225A26DFED8C8AAA
S315000003F014462B469FED8BBADFED8BAA9FED8BAA99
S31500000400DFED8B9A9FED8B9AB0EE68CAF0EE68BA74
S3150000041035463746B146B34617928748DDE91C1282
S3150000042005F04CF8CDE913660C960D941B940E94CA
S315000004301A9418960B960A961296169615960F9477
S3150000044003F078FC03F04AFC804600285DD07B4A26
S315000004501378012B08D001237948137005F0B4F8FE
S31500000460764A1378012B55D10F9B002B00F0328270
S315000004700E9A199B32320E9233B1219B002B40F01B
S31500000480C182C72A00F20583159B5B4500F2618293
S31500000490C0F07F82149B0A9A934200F25282C0F007
S315000004A06D82139B4B4500F24482C0F09282169BEC
S315000004B0BB4200F23982C0F08382129B0B9A9342B0
S315000004C000F22A82C0F071823E465D46584603F02D
S315000004D03BFA0A9803F068FA484603F095FA38465C
S315000004E003F0C2FA0B9803F0EFFA4FF47A71322058
S315000004F002F06CFECDF8309001230F9303F01AFC46
S3150000050003F0ECFB80460028A1D14C4B1B78002B56
S3150000051040F0F68103F0B8FB8046002800F07D81AC
S3150000052003F0C0FB0023B0FA80F21C4617930D932C
S3150000053053091A9303F0C4FB002840F0818103F0AD
S3150000054089FB002840F0558234B10D9B002B40F00A
S31500000550AB8200230D93179303F082FB0446002819
S3150000056040F02D8172A803F0FFF8002840F08A823F
S3150000057040F6C31C1C9BBDF9C8211D99D21A82EAFC
S31500000580E270A0EBE2706045C8BF07EE902A40F229
S31500000590DB52C8BFB8EEE7DABDF9CA31C8BFB1EE63
S315000005A04DDAA3EB0103BDF9CC11D8BF9FED25DAD7
S315000005B00CEE901A83EAE371A1EBE3719142CABF94
S315000005C007EE903AB0EE6B8AB8EEE78AF8EEECCA20
S315000005D0B0EE480AF0EE6C0ABDF9D081BDF9D2A1A1
S315000005E005F082FF28EE088A6CEEACCA38EE2C8A3B
S315000005F0B5EE408AF1EE10FA60EE0BDA00F12184D6
S31500000600F1EEC80A20E000BF1C6900003069000056
S3150000061048690000E8690000006A0000186A0000E6
S3150000062000000000E22E654200000343CDCC4C3DA5
S3150000063048E17A3F00D7A33C406A0000CC00002086
S31500000640646A000000000080B0EE4D0A05F04CFF21
S3150000065007EE90AA07EE108AF8EEE77AF8EEC76A78
S3150000066087EEAA7AC6EEAA7A27EE0A7A20EE0B0A57
S3150000067067EE8A7A77EE288A77EE8C7A60EE096AD8
S3150000068068EEA98A67EEA97A6DEE89DA78EEA68A0F
S3150000069037EEADCAFDEEE87A17EE908AFDEECC7A1B
S315000006A017EE903A08EBD87828F001085A3308F18B
S315000006B05A0A00F12F82B42BA8BFB4231193D8F1A4
S315000006C05A0800F12482B8F1B40FA8BF4FF0B4085D
S315000006D0BAF1000FC0F21682BAF1B40FA8BF4FF0FC
S315000006E0B40ACDF840A0119B189A934200F20282F8
S315000006F0189BC0F046821193A84500F2F681C0F01F
S315000007005382A8460C9B5345C0F0EA8100F243820F
S31500000710DDF830A0109BB34200F2DB81C0F02782E7
S315000007201096119B189A934202D0184603F0CCF902
S31500000730A84502D0404603F007F90C9B9A4502D023
S31500000740504603F061F9109BB34202D0184603F0FD
S315000007508BF91A9BCBB10D9AB2F5967F15D232233F
S31500000760B2A921F83230134601EBC205013385F8F0
S3150000077002800D9303F0DEF9109B85F804A06B71DF
S31500000780119BE870AB710023EB711B9B3233B3F501
S31500000790FA7F1B9380F0C181119B4FF47A7132204E
S315000007A04546109ECDF830A0189302F00FFD47E69F
S315000007B00A2E38BF0A260A3E304603F055F903F0E2
S315000007C055FAD8B15A2D20D806D010355A2D28BF43
S315000007D05A25284603F0B8F8731E582BA6F15B027B
S315000007E0E6D9582AEBD80A36B42E28BFB4263046A6
S315000007F003F03AF903F03AFA0028E3D104464FF43D
S315000008007A71322002F0E2FC1AE6103D5A2D38BF0A
S315000008105A25284603F098F8DEE703F043FA002845
S315000008203FF488AE0D99002900F09E81B2A8CDF85C
S31500000830688002F067FE03F043FA00283FF47FAEBB
S3150000084000234FF4967172AAB2A8729302F098FE32
S3150000085000287FF474AE729B0D93002B00F0C480C9
S3150000086003F0F8F9002840F0C4800123B2AC1793D6
S31500000870A07803F069F8E07803F096F8207903F0A1
S31500000880C3F8607903F0F0F8A379109303F064F9E4
S3150000089080462488DDF840A01095002C00F08C815D
S315000008A003F0D8F9002840F08781C24559D8C0F036
S315000008B0DF800A2C204628BF0A204FF47A71241ABA
S315000008C002F084FCC245E8D1109D002C40F0618204
S315000008D00124B5E503F028F98346159003F02AF9BB
S315000008E00746149003F02CF98146139003F02EF975
S315000008F00A971690074603F02FF912900B90B7E56A
S31500000900B24B1870B24804F05FFEB04B1B78012B57
S31500000910E0D0CDF83C80FDE51346129A02339342AF
S3150000092028BF13460B93CFE502379F4228BF1F46C9
S31500000930C3E5139A09F104039A4228BF1A46914661
S31500000940B5E51346149A0433934228BF13460A9317
S31500000950A7E5159A0BF104039A4228BF1A46934657
S3150000096098E508F10200504528BF50460546A845BF
S315000009709FD0284603F0A8F8A8469AE70A9B042BBE
S3150000098040F29C80149A043B934238BF13460A9364
S3150000099087E5BBF1040F40F28E80159AABF1040394
S315000009A09A4238BF1A46934674E50B9B022B40F2D7
S315000009B08880129A023B934238BF13460B9383E515
S315000009C0022F40F28180169B023F9F4238BF1F468E
S315000009D073E5B9F1040F79D9139AA9F104039A4280
S315000009E038BF1A46914662E503F034F900283FF411
S315000009F0B0AD00234FF47A7132201C46179302F0F3
S31500000A00E5FB1DE5184672A9C8234FF4807203F072
S31500000A1077FD011EC0F2F7803FF436ADFF29A8BF6F
S31500000A20FF21002372AA53546A4B0A461B68B3F58A
S31500000A30FF7F40F2DB808846674872A904F048FCD5
S31500000A40644B654AC3F8008000231046634902F8E8
S31500000A50083004F071FE002800F0DD805E4A604B2D
S31500000A6012689A4200F0028100235A4A136043E555
S31500000A70B8F1020F76D9A8F10200504538BF5046AA
S31500000A80054674E7189BA846DDF830A0109611932A
S31500000A9082E620A80C9303F0B3FC0C9B05460028C5
S31500000AA000F08C800E93EFE4179B0D9A9342C0F0F2
S31500000AB0D7801790C4E4DDF854B0EBE4149B0A9396
S31500000AC0EFE4129B0B93FFE4169FF6E4DDF84C90DF
S31500000AD0EDE4109AB31C9A4228BF1A46109220E6FB
S31500000AE001339A4528BF9A4614E6AB1C984528BFA1
S31500000AF0984607E61346119A02339A4228BF1A46C9
S31500000B001192F9E54FF0000ACDF840A0EBE54FF061
S31500000B100008DDE500231193D1E5109B18EE900A3D
S31500000B20CDE908A3119BCDF81C80069304F02AF8A2
S31500000B30CDE904011CEE100A04F024F8CDE9020107
S31500000B40BDF9D201BDF9CC310190BDF9D001BDF995
S31500000B50CA210090BDF9C811224804F0AFFC002359
S31500000B601B9319E6554604E70D9B1A93E2E4022E01
S31500000B707FF6D7AD109AB31E9A4238BF1A46109226
S31500000B80CFE5022B7FF6B8AD119A023B9A4238BFE9
S31500000B901A461192B0E50C9B012B7FF6BBAD013BCB
S31500000BA09A4538BF9A46B5E5022D7FF6ABADAB1E2A
S31500000BB0984538BF9846A5E5109D89E621990A48CB
S31500000BC004F07CFC034B0E951D605DE4CC00002018
S31500000BD07C6A0000D0020020D00000205C78000073
S31500000BE047455420586C0000906A000003EB01084A
S31500000BF0B8F5FF7F40F22D8140F2FF18964AD018D3
S31500000C00A8EB030219E7954804F058FC0023944A20
S31500000C102193136070E493498F4804F08DFD0028FA
S31500000C207FF41CAFB8F1030F05D98B4A8E4B1268BF
S31500000C309A423FF461AC9DF9C851EBB2A3F161024F
S31500000C40192A42D9A5F14103DBB2042B03D89DF939
S31500000C50C9313A2B3CD072A9844804F02FFC13E426
S31500000C60B2AA02EBC3040133179301E620218048A0
S31500000C7004F039FD4FF0000800283FF4F5AE7C4B38
S31500000C807B49C31A9F2B28BF9F239A461A4622A840
S31500000C9004F01EFB22AB194603F80A80754804F0DF
S31500000CA00DFCBDF888302F2B00F0A5800422724978
S31500000CB022A804F02DFD00283BD0219800283FF4FF
S31500000CC0D3AE6E49FFF70EFBCEE6203B5DB2B9E729
S31500000CD09DF8CA31303B092BBDD800230A224AA908
S31500000CE00DF5E5704A9304F0AFFD4A9B0DF5E571ED
S31500000CF08B420246AFD0B428ADD818780D28AAD8B2
S31500000D0042F20141C140C907A5D500E04A9313F953
S31500000D10011B0D29FAD00A29F8D000299BD1412DB3
S31500000D2008BF15927DD12946554804F0C7FBFFF749
S31500000D30ABBB41214AAA22A8FFF782FA08B14A9B17
S31500000D40159342214AAA22A8FFF77AFA08B14A9BCC
S31500000D50149343214AAA22A8FFF772FA08B14A9BC4
S31500000D60139344214AAA22A8FFF76AFA08B14A9BBC
S31500000D70169345214AAA22A8FFF762FA08B14A9BB0
S31500000D801293219800283FF46FAE3E49FFF7AAFA66
S31500000D906AE620464FF47A7102F018FA98E503F0F5
S31500000DA0EBF904463848214604F088FB002C7FF412
S31500000DB0E2AA364804F008FC3549364803F00AFA38
S31500000DC004463548214604F079FB002C7FF4D3AA6B
S31500000DD003F0A6FA20A94FF4FA5003F0D7FA014619
S31500000DE0B1FA81F31C46209A2C4804F067FB63098C
S31500000DF01993FFF7C2BADDF884804FF4B663A021D9
S31500000E00274A4AA804F0F8FBB8F1000F3FF42CAECD
S31500000E1040464AA9FFF766FA40462249FFF762FABA
S31500000E2022E6422D08BF14923FF47DAF432D08BF42
S31500000E3013923FF478AF442D16BF452516921292B1
S31500000E4071E7B0EE480A05F051FBF0EE400AFFF7F5
S31500000E50FBBB0149C818F0E5D0000020B86A0000C5
S31500000E60D0020020DC6A000047455420386C0000A0
S31500000E70D4000020EC6A0000806B0000F06B0000DC
S31500000E80486C0000886B00005C6900007069000017
S31500000E908C690000986900009C690000B869000030
S31500000EA0FC6A0000BC6C0000022800D07047024BB0
S31500000EB00248596800F02ABD70720000D402002072
S31500000EC008B5FFF73DFA002008BD00BF10B40024A6
S31500000ED00122036A44609C70C3692D4993F9053069
S31500000EE04FEA531C03F01F0302FA03F30CF1200C24
S31500000EF041F82C30BFF34F8FBFF36F8FC36993F95F
S31500000F000B304FEA531C03F01F0302FA03F30CF1F4
S31500000F10200C41F82C30BFF34F8FBFF36F8FC3699E
S31500000F2093F907304FEA531C03F01F0302FA03F349
S31500000F300CF1200C41F82C30BFF34F8FBFF36F8FAD
S31500000F40C36993F909304FEA531C03F01F0302FAF1
S31500000F5003F30CF1200C41F82C30BFF34F8FBFF395
S31500000F606F8FEFF3108182F31088C369094A93F8F3
S31500000F7000C04FF00043506823FA0CF3034353605C
S31500000F80536881F3108820465DF8044B704700BF14
S31500000F9000E100E00040084003460020C3E90512D6
S31500000FA0704700BF10B4046AA37803F07B03A370F4
S31500000FB0837803F00303D21A0B440261A278C3605C
S31500000FC0837842F0800203F00303022BA27005D05F
S31500000FD00B780020E3705DF8044B70470B88002007
S31500000FE043F47E43E3815DF8044B7047844600205A
S31500000FF0CCE90A32CCF82410704700BF70B586469B
S315000010000024DEF820304D7893F802C00A780CF000
S315000010100B069E70CEF80C4020468C7802F05C02DF
S315000010205C7093F800E00CF07B0C65F3010E83F81E
S3150000103000E0C9789974D97901F0A3010A43DA71FD
S3150000104083F802C070BD00BF4FF0FF330020C1E936
S31500001050003370478B0711D5002210B4046AC90704
S31500001060A37803F07B03A3701346026102D5002226
S315000010701346826118465DF8044B7047CA074FF065
S31500001080060302D50022134682611846704700BF48
S315000010900346002210B49C6910460C605DF8044BB0
S315000010A09A617047F0B5846A85B005460F46944646
S315000010B06E46B4B194E80F0086E80F00EB6920464F
S315000010C01B7884F804C02360EB6AC4E902736B6A78
S315000010D09847AC6A1CB196E80F0084E80F0005B08B
S315000010E0F0BD3446EAE700BF0022F0B501240B78D4
S315000010F0027003F5800303F58C531B0203624B69F0
S315000011008D6943628378C16164F301038262C562BB
S3150000111083704B7823B90222837862F301038370CC
S31500001120012491F90B50C44A6B0905F01F072033BF
S3150000113004FA07F78E7A42F82370BFF34F8FBFF396
S315000011406F8FBE4B05F1C00753F827C06FF3104CE5
S3150000115043F827C053F82770B94F360102EB050C48
S31500001160F6B28CF8006347F8250091F905500E7920
S315000011704FEA551C05F01F0E0CF1200C04FA0EFE6A
S3150000118042F82CE0BFF34F8FBFF36F8F05F1C00C11
S3150000119053F82CE06FF3104E43F82CE053F82CC0B4
S315000011A0360102EB050CF6B28CF8006347F8250011
S315000011B091F907508E794FEA551C05F01F0E0CF178
S315000011C0200C04FA0EFE42F82CE0BFF34F8FBFF35B
S315000011D06F8F05F1C00C53F82CE06FF3104E43F8F7
S315000011E02CE053F82CC0360102EB050CF6B28CF855
S315000011F0006347F8250091F909500E7A4FEA551C0D
S3150000120005F01F0E0CF1200C04FA0EFE42F82CE03D
S31500001210BFF34F8FBFF36F8F05F1C00C53F82CE06F
S315000012206FF3104E43F82CE053F82C303301DBB249
S315000012302A4482F8003347F82500EFF3108584F33B
S3150000124010884FF000447F4B0E785A68F44022EA2B
S3150000125004025A605B6885F31088002240F2F93474
S31500001260036A40F2F9359A701A715A729A72DA72F2
S315000012705A830A7824FA02F2D60744BF4022DA7467
S315000012800622CC691A770A784E78D540ED078F7812
S31500001290CA7848BF4FF478414FEAC20248BF9982E4
S315000012A0032E42EA071200F0C280002E14BFF2217C
S315000012B0E221D2B21A709971227B082A0EBF0A2245
S315000012C0520002F002025A736278A178D2014901F3
S315000012D001F02001D2B20A430021197294F800C02D
S315000012E0ACF10201012940F29880D2B2DA7162684B
S315000012F0917855785970197865F301011970D1788C
S3150000130012789974D97902F05C0201F0A3010A43BC
S31500001310DA710022C16902618261C260426191F99B
S315000013200550464B05F1C00153F8216062F31046A3
S3150000133043F8216053F82110BFF35F8F0126690936
S31500001340890005F01F0501F1604101F5614106FACA
S3150000135005F5C1F880510D60C16991F90B5005F191
S31500001360C00153F8217062F3104743F8217053F817
S315000013702110BFF35F8F6909890005F01F0501F190
S31500001380604106FA05F501F56141C1F880510D602D
S31500001390C16991F907E00EF1C00153F8215062F3DB
S315000013A0104543F8215053F82110BFF35F8F4FEAE1
S315000013B05E1189000EF01F0E01F1604106FA0EF56E
S315000013C001F56141C1F880510D60C16991F90910BB
S315000013D001F1C00553F8257062F3104743F82570F4
S315000013E053F82530BFF35F8F4B099B0001F01F01B7
S315000013F003F160438E4003F56143C3F880611E60CC
S31500001400036A0CF0030C4CF0700C618983F802C07F
S315000014100D4B018143601046F0BDFF21BCF1020F68
S3150000142008BF42F01002D2B25970DA7171E7F221A8
S3150000143042F040023DE700BF00E100E000600040EE
S3150000144094040020004008405549435330B4EFF35C
S315000014500383103B1F4A5BB203F1C00152F821001F
S315000014606FF3104042F8210052F821201A4A52F830
S315000014702300C3691B691BB103691BB130BC7047EC
S3150000148003697BB9D0E908240021937803F07F0330
S3150000149043F004039370C160002CEFD030BC80226F
S315000014A0FFF700BE827802F003010229C1680BD063
S315000014B0046A91F800C084F803C002F003029B1A84
S315000014C00A44C0E90323D8E70C88056A44F47E443D
S315000014D0EC81F2E7006000409404002010B582B071
S315000014E0EFF30383103B1F4A5BB203F1C00152F8CE
S315000014F021006FF3104042F8210052F821201A4AC9
S3150000150052F82340A27802F00303022B236A0CBF91
S31500001510198A5979A3690CBFC1F30801C9B20191AF
S3150000152043B9636AB3B10422204602B0BDE8104055
S31500001530FFF7B8BD02F0030201A9606903F0C8FE17
S31500001540D4E90521A37803F003031A44C91AC4E9B0
S31500001550052109B102B010BD636A002BFAD0012241
S31500001560E2E700BF006000409404002010B5EFF3EE
S3150000157003830E4A103B5CB252F82400D0E90821DE
S31500001580937803F07B03937019B102220021FFF7D1
S3150000159089FD074A04F1C00352F823106FF3104186
S315000015A042F8231052F8233010BD00BF94040020E7
S315000015B00060004010B5EFF303831A4A103B5CB29B
S315000015C052F82400837803F00303022B036A0CBF4E
S315000015D0198A597993F804C00CBFC1F30801C9B23E
S315000015E01CF0100F0CF0380206D093F81CC01CF04B
S315000015F0010F08BF42F0400293F804C00CF0C70C7C
S3150000160083F804C0436A0BB1FFF74CFD064A04F1A8
S31500001610C00352F823106FF3104142F8231052F81A
S31500001620233010BD940400200060004000220346D1
S3150000163010461A60704700BF0B0A10B41B01064C17
S3150000164053FA81F154F821300020C3F340035DF8CA
S31500001650044B1370704700BF00080840090A49018F
S3150000166001F1804101F500214B680020138070478D
S31500001670090A490123EA020C01F180411A4001F5E9
S31500001680002142EA0C4200208A6070470123C8B25A
S3150000169083404AB91A040B0A5B0103F1804303F540
S315000016A0002300209A6070479AB2F4E7090A4901BC
S315000016B001F1804101F5002110B40C6802EA030C27
S315000016C04CEA040C62EA030202EA0C0200205DF80E
S315000016D0044B0A60704700BF090A490101F18041C5
S315000016E001F500214B680020C3F30F4313807047B8
S315000016F0012310B44FEA112C4FEA4C1C0CF1804C1C
S315000017000CF5002CDCF80440C9B203FA01F18BB2E7
S3150000171001EA1441C91AB1FA81F1490900205DF8BC
S31500001720044B1170704700BF090A490123EA020CF5
S3150000173001F180411A4001F5002142EA0C420020E5
S31500001740CA607047012A14D04FF480300B0A5B013F
S3150000175003F1804303F5002310B4CAB2DC6800FA33
S3150000176002F22243120C120400205DF8044BDA60E8
S3150000177070470B0A5B0103F1804303F50023D86829
S31500001780C9B28A40024392B20020DA60704700BFB5
S315000017902DE9F84F0388002B3DD007464FF000088F
S315000017A0DFF8A4A040F202427B684FEAC805591947
S315000017B08988002491424FF00109224E09D0013454
S315000017C0032C23D07B6836F8022B5919898891425D
S315000017D0F5D15B5909FA04F203F0B853B3F1807FEF
S315000017E05FFA82FB19D09AF8BB341A42E7D001207F
S315000017F001F0BCFD9AF8BB34012023EA0B0B8AF8F2
S31500001800BBB4013401F082FD032CDBD13B8808F127
S3150000181001084345C6D8BDE8F88F9AF8BB2409FAF3
S3150000182004F313425FFA83FBC9D1012001F09EFD48
S315000018309AF8BB3401204BEA030B8AF8BBB401F0DB
S3150000184065FDBCE71E76000000E00140F8B50446E1
S31500001850FFF79EFFEFF31082012383F31088284ED3
S3150000186033681BB92749CB704023CB7033680133EB
S31500001870336082F3108823887BB3626803F1FF3EEE
S315000018801FFA8EFE02F108011F4C01EBCE0E08E096
S31500001890D2B21B0113448E450A4644F823001CD0DD
S315000018A008311068928810F4803F4FEA1223EFD077
S315000018B0130AD2B202EB031C54F82C701B0113441A
S315000018C020F480356FF310478E4544F82C700A4695
S315000018D044F82C5044F82300E2D1EFF310820123A0
S315000018E083F31088336813B13368013B3360336880
S315000018F01BB980200349CB70C87082F31088F8BDED
S3150000190090040020000D08400008084008B5034B6D
S3150000191003600846FFF79AFF002008BD54524F5057
S3150000192008B50846FFF792FF002008BD70B50126EE
S3150000193084B002AB68460C4615460193ADF80060CC
S31500001940ADF80C100292FFF723FFEFF3108286F337
S3150000195010881D490B681BB940261C48C370C67009
S315000019600B6801330B6082F31088EA034FEA1423F5
S31500001970E4B219D41B01164A234442F82350EFF36C
S315000019801082012383F310880B6813B10B68013BA7
S315000019900B600B681BB980200C49CB70C87082F3B2
S315000019A01088002004B070BD094A04EB031052F8F9
S315000019B020601B016FF3104642F8206025F4803644
S315000019C042F82060D7E700BF90040020000D0840D1
S315000019D0000808400346002059601A72704700BF8D
S315000019E084460020CCE90E32CCF83410704700BF94
S315000019F00346044ADB6800209B1AB3FA83F35B09AB
S31500001A000B7070474349495230B5836B83B0044627
S31500001A100A466D46A3B193E8030085E80300E16B2F
S31500001A201A711846626B19609047A36B1BB195E853
S31500001A30030083E80300002384F82B3003B030BD95
S31500001A402B46ECE730B4344B82B01B6A026903F0D4
S31500001A500F2301930199019D137C90F82C409CB9AA
S31500001A60C1F30321DBB2A1EB15618B409B0806D1C4
S31500001A700823184602B030BC7047013BF8D05178B5
S31500001A80C909FAD1B323D371002390F8264001681F
S31500001A9080F8274080F82830846980F82B3003626C
S31500001AA080F82D3080F82E3080F82F3080F83030D6
S31500001AB04B6AC46193F800C05C78BCF1010F0CBF9F
S31500001AC00523042343EA4403DBB2D370537943F07E
S31500001AD00103537191F90F30002B08DB012203F04B
S31500001AE01F040E495B09A24041F823200269BF2367
S31500001AF0D37190F82C1001F0FF0339B10022134680
S31500001B0080F82C20184602B030BC704702211846D7
S31500001B10517002B030BC704700E0014000E100E0C7
S31500001B2090F808C0C0E90512BCF1010F80F82A3010
S31500001B3008D10022436880F826C05B0080F8243074
S31500001B4080F82520002380F82930FFF77BBF00BFEF
S31500001B5090F808C0C0E90512BCF1010F80F82A30E0
S31500001B600AD10022436880F826C05B0043F00103D7
S31500001B7080F8243080F82520012380F82930FFF7EB
S31500001B8061BF00BF2DE9F0434FF01F0C5F27DF2632
S31500001B900269DFF89C9182F800C01770167006681B
S31500001BA04FF0000E776AD6F804C03E794FF0B308BE
S31500001BB046F0E0061674FE785A4C46F0E006567477
S31500001BC0BE78594D360106F0700646F00806967046
S31500001BD03E787F78012E0CBF05260426CC450CBF27
S31500001BE04FF0F70C4FF0770C46EA4706F6B2D67080
S31500001BF082F805C082F806E082F807804E7B91F9EC
S31500001C0011203601494BA718F6B287F8006302F196
S31500001C10C00645F8220053F826706EF3104743F8C5
S31500001C20267053F82660BFF35F8F4FF0010C5609FC
S31500001C30B60002F01F0206F1604606F561460CFA90
S31500001C4002F2C6F8802132604E7B91F90F203601F0
S31500001C50A718F6B287F8006302F1C00645F822001D
S31500001C6053F826706EF3104743F8267053F8266033
S31500001C70BFF35F8F5609B60002F01F0206F16046F9
S31500001C800CFA02F206F56146C6F8802132604E7BF8
S31500001C9091F910203601A718F6B287F8006302F111
S31500001CA0C00645F8220053F826706EF3104743F835
S31500001CB0267053F82660BFF35F8F5609B60002F010
S31500001CC01F0206F160460CFA02F206F56146C6F8F6
S31500001CD0802132604E7B91F90E2031011444C9B245
S31500001CE084F8001302F1C00145F8220053F82140A0
S31500001CF06EF3104443F8214053F82130BFF35F8F51
S31500001D0053099B0002F01F0203F160430CFA02F232
S31500001D1003F56143C3F880211A609F2203691A7094
S31500001D20BDE8F08300E100E094040020006000407C
S31500001D3040420F0070B500250A78016002F5800266
S31500001D4002F51F62120202618A6842600A7B027211
S31500001D50CA6942630A6AC0E90E52EFF3108C012287
S31500001D6082F310880B78C3F109039A400C4B5E6826
S31500001D7026EA02025A605B688CF31088FFF702FFBE
S31500001D80084B80F82950C0E9075580F82A5045616C
S31500001D9080F82B50856180F82C50C360284670BDB2
S31500001DA0004008404349495238B500250369016897
S31500001DB0DD71FFF7E7FEB322836990F82610036210
S31500001DC0036980F8281080F82C50C56180F82A50E5
S31500001DD02846DA7138BD00BF38B5002503690168A9
S31500001DE0DD71FFF7CFFE04464FF0B30C836990F820
S31500001DF026200362012380F82820026980F82C50EF
S31500001E00C561006884F82A5082F807C0D571E5607C
S31500001E1090F911202549500902F01F02203003FADB
S31500001E2002F241F82020BFF34F8FBFF36F8F226875
S31500001E3092F90E20500902F01F0203FA02F2203036
S31500001E4041F82020BFF34F8FBFF36F8F226892F9BE
S31500001E501020500902F01F0203FA02F2203041F866
S31500001E602020BFF34F8FBFF36F8F226892F90F20A8
S31500001E70500902F01F0203FA02F2203041F8202036
S31500001E80BFF34F8FBFF36F8FEFF3108083F310888C
S31500001E902168074A0978C1F109018B4051680B4353
S31500001EA05360536880F31088284638BD00E100E08F
S31500001EB00040084010B483B0EFF30383103B4A4A56
S31500001EC05BB2C03352F823106FF3104142F823106F
S31500001ED052F82330EFF30383444A103B5BB252F8C7
S31500001EE0233093F82D20BAB99A69022A1A699EBF3F
S31500001EF0117941F040011171D969012917D00121E9
S31500001F00D27CD2B28DF807209DF8072083F82D10D9
S31500001F1003B05DF8044B7047DA69002AF8D0032A4B
S31500001F200ED0022A4ED0012A21D019690DE011796E
S31500001F3041F010011171117941F008011171DEE7CC
S31500001F4019690A7942F040020A71C87C1A6A59690D
S31500001F508854D3E907210131013AC3E90721002A50
S31500001F60D6D119690B7962F386130B71D0E793F812
S31500001F702A1089B319681E4C91F90F10480901F00F
S31500001F801F0102FA01F1203044F82010BFF34F8FF1
S31500001F90BFF36F8F4FF0040C1969C87940F08000C9
S31500001FA0C871087940F01000087108796FF3C30012
S31500001FB0087181F801C048796FF30000487183F811
S31500001FC02C20C2E719690A7942F010020A710A79CF
S31500001FD042F008020A71B8E7082019694A7A02F045
S31500001FE0F7024A724870B0E700600040940400208F
S31500001FF000E100E0EFF30383103B384A5BB2C033E5
S3150000200052F823106FF3104142F8231052F8233090
S31500002010EFF30383324A103B5BB252F8232092F867
S315000020202730002B3AD192F82930002B35D1D369CD
S3150000203010B4002B44D11069C179C0236FF3C711C6
S31500002040C17101E0013B02D0C179C909FAD1136817
S31500002050224A93F9103003F1C00152F821406FF380
S31500002060104442F8214052F82120002B09DB0121BF
S315000020705A091C4C03F01F03603201FA03F344F8BB
S315000020802230C3795DF8044B43F04003C3717047B7
S31500002090022909D192F8300030B9704792F826101B
S315000020A0032992F82810F3D092F824C01069013160
S315000020B0013B80F812C082F8281082F8273070475A
S315000020C0116AD2E90404645C013B01318474C2E9FB
S315000020D00731002BB0D05DF8044B7047006000401C
S315000020E09404002000E100E010B4EFF303832D4ACE
S315000020F0103B5BB252F8233093F829201AB193F8BB
S315000021002720012A49D0DA69E2B11969CA79C023C0
S315000021106FF38612CA7101E0013B02D0CA795206FA
S31500002120FAD4EFF30383103B1F4A5BB2C03352F875
S3150000213023106FF3104142F8231052F823305DF854
S31500002140044B704793F82A10F9B14FF0010C196847
S31500002150164C91F90F10480901F01F0120300CFAB6
S3150000216001F144F82010BFF34F8FBFF36F8F196949
S31500002170C87940F08000C87104204870487962F33D
S315000021800000487183F82CC0C0E7082219694B7A11
S3150000219003F0F7034B724A70B8E793F83020002A31
S315000021A0B1D1B2E7940400200060004000E100E0F5
S315000021B038B5EFF30383E021424A103B5BB252F895
S315000021C0230003695A7A5972D5065FFA82FC02F037
S315000021D003042AD55A78510648D4002401250168FB
S315000021E080F82B50DC71FFF7CDFC826990F8263021
S315000021F00262B32280F82830036980F82C40C4615B
S3150000220080F82A402946DA71FFF7FEFBEFF30383D5
S31500002210103B2D4A5BB2C03352F823106FF31041C6
S3150000222042F8231052F8233038BD002CD5D11CF0CB
S31500002230080F0ED090F82B20002A33D190F82910E1
S31500002240B322002914BF02210321DA71FFF7DCFB58
S31500002250DCE790F82C20002AD8D01CF0040FD5D04B
S3150000226090F82B200121002AF0D1E7E7002CB4D109
S315000022705A78C2F380115206D9D5082480F82B105B
S315000022805A7A016802F0F702496A5A725C700A7853
S31500002290012A0CBF03220222DA705A7942F00102A7
S315000022A05A71B3E70022B32490F8261080F82C2048
S315000022B080F828108169C261016280F82A20012114
S315000022C0DC71C3E794040020006000400346002050
S315000022D0D3E902235360704702464FF0010C30B435
S315000022E094680C4D626E0C4B62448A60E46A2A6AFA
S315000022F01B6881F800C0C4F3C35CC2F30264A34048
S3150000230002F00702D34023FA0CF3002030BC4B60E6
S31500002310704700BF00E001402006002030B48C6EFC
S3150000232001342AB1944203D930BC013A1A6070478D
S31500002330029D496B0078ED0754BF01F01F01C1F300
S315000023400441032808D9090981F001016AB9A1B934
S3150000235030BC02225A60704701F00C01A1F1040161
S31500002360B1FA81F14909002AF1D0944201D8002935
S31500002370EED130BC03225A607047002CE8D0F8E753
S315000023802DE9F0414FF0FF3C0025064684B000924F
S3150000239002AB0F46144602F003080A46D0E90101D3
S315000023A0CDE902C5FFF7BAFFB368039A1D6B5AB9A8
S315000023B014F0080F0CBF02210421A0071DD50298B6
S315000023C003EB8101C864086561061ED5196CB8F176
S315000023D0010F41F48001196406D025F4403545EA21
S315000023E00245B8F1000F03D025F0407545EA0265B5
S315000023F000201D6304B0BDE8F0814144029812310B
S3150000240003EB810148606106E0D4B8F1010F12D0F8
S3150000241025F44035022C45EA0245E2D1002AE3D0F4
S315000024200120009019463A4602AB7068FFF776FF26
S31500002430039AB368D8E7022CD6D1002AD4D0EFE7A6
S31500002440002800DA704710B400F160430901134C0C
S31500002450C9B203F5614383F80013114B00F1C001C3
S3150000246044F8202053F821206FF3104243F821202E
S3150000247053F82130BFF35F8F012243099B0000F020
S315000024801F0003F1604303F5614302FA00F0C3F84D
S31500002490800118605DF8044B704700BF940400206B
S315000024A00060004001222DE9F0410D46097C0446FA
S315000024B002FA01F3C3601B0714BF002302744FF036
S315000024C0000218BF0374814B84B00B4469691B0278
S315000024D083604560D5E906364161C0E90623EFF31E
S315000024E0108E4FF0010C8CF310884FF00040784BA3
S315000024F02F7C196920FA07F721EA070119611B6980
S315000025008EF310884FF42541A368D5F804E01960CE
S31500002510DA62DA639A6429782F7A03294FEAC75771
S315000025200EF1FF3800F09880DF620392186158615F
S3150000253098615A629A624FF0FF32B069F76AD861C1
S31500002540F06902921862C3F86880C3F864800029B3
S3150000255040F0B180614638464FF0030C4FEA5E0208
S31500002560013A02925A659A6500284FD13278002ABC
S315000025705AD12878B278C2B196F803E002284FEA19
S315000025800E1242EA8E1200F09080032800F09B8023
S31500002590BEF1000F14BF4FF0090E4FF0060E42EACF
S315000025A00E0247EA024747F0807700229A63C3F893
S315000025B0882096F8212096F820E0520742EA4E320B
S315000025C017434FF4AA0201281A6429D0E268DA6098
S315000025D05F63C3F830C019632246697C95F912001F
S315000025E0FFF72EFF224696F8221096F92400FFF7F1
S315000025F027FF96F92500224696F82310FFF720FFBD
S315000026000020344B236004B0BDE8F08100229A63B9
S31500002610C3F888204FF4AA0228781A640128D5D175
S315000026200022DA641A65D1E796F801E028784FEAC5
S315000026300E12022842EA8E123AD0032841D0BEF189
S31500002640000F14BF4FF0090E4FF0060E42EA0E02BD
S31500002650174347F480778DE747F48037DF620392AC
S315000026601861586198615A629A624FF0FF3202927D
S31500002670B269F76ADA61F2691A62C3F86880C3F868
S315000026806480194600230093EA68606802ABFFF78E
S3150000269045FEDDE90220010641EA004141F0030C56
S315000026A0A368F06A41F001015CE74FF0090E76E796
S315000026B04FF0090ECAE70129E3D138464FF0030C63
S315000026C050E78646C2E7864669E700BF9016400097
S315000026D000400840545047000020054BB3F88430B2
S315000026E003F081031B1A18BF01230B70704700BF4C
S315000026F000E07F400620704706207047062070479E
S31500002700062070470B46084A10B492E80300074CAF
S3150000271003F1080283E8030094E803005DF8044B24
S3150000272082E8030000207047747600007C76000083
S31500002730002310B44268036092F91130002B0EDBBF
S315000027400121144C5A0903F01F03203201FA03F346
S3150000275044F82230BFF34F8FBFF36F8F42680021DA
S315000027600D4B197692F913308B420DDB0121094886
S315000027705A0903F01F03203201FA03F340F822300E
S31500002780BFF34F8FBFF36F8F0020034B5DF8044BF1
S315000027901875704700E100E000E07F4084460020A5
S315000027A0CCE90F32CCF83810704700BFF0B50121E4
S315000027B000243A4B80F83440394A83F8161484468C
S315000027C0186A11681B6AC0F3026201FA02F2354DFB
S315000027D0C0F30270C3F30263C2409940AA4221FAD1
S315000027E003F157D9304802F5742202F23F2201F56F
S315000027F07423A0FB021203F23F23A0FB0313920CE7
S315000028002A4902F5F052A1F8E42043F6B8512046D1
S3150000281044F2506440F6D8665425254F9B0C03FBC2
S3150000282007F7244A03FB01F1A2FB07E7BF08CCF830
S315000028301870A2FB017103FB04F48908CCF8081098
S315000028401D49A2FB047403FB01F1A408CCF8244043
S31500002850A2FB01418908CCF82010184903FB06F6B3
S3150000286003FB01F103FB05F55B00A2FB0676A2FB69
S315000028700575A2FB0343A2FB0112B608AD089B082F
S315000028809208CCF80C60CCF81450CCF81030CCF888
S315000028901C20F0BD4FF4FB70F0BD00BF00E001400E
S315000028A020060020FF083D0083DE1B4300E07F403A
S315000028B038AF0400ABAAAAAA80DE0F00A0F7030077
S315000028C0FFF774BF4FF42A431D49B1F884C0A1F83D
S315000028D08430B1F884001FFA8CFC80B268B14FF4E2
S315000028E09642002003E0002A08BF4FF4FA70B1F8C0
S315000028F08430013A9BB2002BF5D1BCF1010F0AD00E
S31500002900BCF1800F00D0704701230E4A5360536814
S31500002910002BFCD170474DF60111094B0A4AA3F86A
S315000029204410A2F804C1B2F804319BB2002BFAD1CC
S3150000293001230449A2F800318B600B60704700BF89
S3150000294000E07F400070004000C00140F0B482B05B
S3150000295081B9012443682A4D93F911305A0903F0CD
S315000029601F03203204FA03F345F82230BFF34F8FDA
S31500002970BFF36F8FE8220223C56A224C224E2563DD
S31500002980856A0769327005F1040C33702B8801974C
S31500002990338003E0019B5A1E019203B3D4F88030C2
S315000029A05B05F7D4C36A02350233C362036B654520
S315000029B003F1FF3385620363E8D1D022124B1A700C
S315000029C089B1D4F880301A0407D40E4A00E031B138
S315000029D0D2F8803001391B04F9D5002000E014201C
S315000029E002B0F0BC7047436893F91130012203F03E
S315000029F01F0403485B09A24040F823200846EFE77E
S31500002A0000E100E000E07F4000007E4006207047C5
S31500002A100B782DE9F0410446416053B9324A1376EA
S31500002A2013752046FFF7C2FE08B9304B2360BDE898
S31500002A30F081002701204B68DFF8ACE0A363CB6888
S31500002A40E76323648EF818000A7C91F91130284E4A
S31500002A50DFF8A4C01201274D06EB0308D2B288F8AE
S31500002A60002303F1C0024CF8234055F8228067F397
S31500002A70104845F8228055F82220BFF35F8F5A0987
S31500002A80920003F01F0302F1604200FA03F302F51D
S31500002A906142C2F88031136098238EF814308B7C23
S31500002AA091F913201B01DBB2164486F8003302F1BC
S31500002AB0C0034CF8224055F8231067F3104145F83F
S31500002AC0231055F82330BFF35F8F53099B0002F0A4
S31500002AD01F0203F1604300FA02F203F56143C3F8F3
S31500002AE080211A609DE700BF00E07F404E45504FB1
S31500002AF000E100E000600040940400204FF496439B
S31500002B0010B483B0019343681A7802BB4AF6802357
S31500002B102C4AA2F88430B2F884309BB2802B08D1BC
S31500002B2010E0019B013B0193B2F884309BB2802BED
S31500002B3008D0019B002BF4D14FF4FA7003B05DF876
S31500002B40044B7047002003B05DF8044B704793F9BF
S31500002B5011301D4A03F1C00152F821406FF31044B1
S31500002B6042F8214052F82110BFF35F8F012103F094
S31500002B701F045B099B0003F1604303F5614301FAFF
S31500002B8004F4C3F880411C60436893F9130000F114
S31500002B90C00352F823406FF3104442F8234052F822
S31500002BA02330BFF35F8F43099B0000F01F0203F140
S31500002BB0604301FA02F203F56143C3F880211A600B
S31500002BC0A4E700BF00E07F4000600040F0B50024AD
S31500002BD05B0880F83440C0E90A1283B003630546F7
S31500002BE0FFF78CFF044600BB6B681B7803BBEF68DE
S31500002BF0274E39462846FFF7A9FE6B6804461B7820
S31500002C009BB9327CD20634D4D6F88030DB0414D497
S31500002C10B0B92B6B002BECD103B0BDE8F040FFF749
S31500002C2051BE1B4B1B7CFFF74DFE204603B0F0BD8B
S31500002C300123074685F83430DAE7002C08BF18244C
S31500002C40B3214FF49640134B114A01901970D2F8F4
S31500002C5080301904E5D406E0019B013B0193D2F8CC
S31500002C6080301B04DDD4019B002BF5D1FFF72AFE33
S31500002C70DBE7D6F88020550401D5327C3374D6F8CC
S31500002C808030D804D9D4002CDAD140F2F514D7E735
S31500002C9000E07F4000007E4000232DE9F04321F054
S31500002CA03F0183B080F83430816202630746FFF744
S31500002CB025FF002840F085807B6893F800E0BEF190
S31500002CC0000F4CD1786A01234FF020094FF0D0084D
S31500002CD03F49DFF800C1BC6A3E6BA1F8E0300C63E7
S31500002CE0013E8CF8009040348CF8008060B1D1F839
S31500002CF080301B0408D4034601E0002B4ED0D1F8E7
S31500002D008020013B1504F8D50025BEF1000F49D1FE
S31500002D100B7CDA062AD4D1F880309B0438D4002DF7
S31500002D2046D0BC623E63B3214FF49640294B284AF5
S31500002D3001901970D2F88030190407D513E0019B71
S31500002D40013B0193D2F880301B040CD4019B002B6D
S31500002D50F5D1FFF7B7FD284603B0BDE8F08302239F
S31500002D6087F83430AFE71A4B1B7CF2E7BC623E6350
S31500002D70D1F880305C0402D50B7C81F810E0D1F8E4
S31500002D808030980406D4002DCDD140F2F515CAE75F
S31500002D90BC623E63002D08BF1925C4E71425BEF1A9
S31500002DA0000FB5D02846BC623E6303B0BDE8F08391
S31500002DB0002E94D1BC623E6303B0BDE8F043FFF73A
S31500002DC081BD4FF4FA75284603B0BDE8F08300BF15
S31500002DD000E07F4000007E402DE9F04383B081464D
S31500002DE0884616461F46FFF789FE0546002841D14C
S31500002DF04FF0710CD020D9F80430424C1A78711E6D
S31500002E00414B414484F8D050C4F83080616383F864
S31500002E1000C0187092BBD4F88030D9F81410B208EC
S31500002E20180402FB011205D48AB3D4F88010013AC3
S31500002E300904F9D5334B1A7CD20646D4D3F8802040
S31500002E4093F8D430A3F10103B3FA83F35B093B7023
S31500002E5003B0BDE8F043FFF735BD2A4B1B7C294B79
S31500002E6093F8D430A3F10103B3FA83F35B093B7003
S31500002E70FFF728FD284603B0BDE8F08303220223AE
S31500002E80284689F834203B7003B0BDE8F0831D4B1B
S31500002E901A7CD20622D41425D3F880304FF49640FB
S31500002EA0B322194B174901901A70D1F880301C04CF
S31500002EB0D3D406E0019A013A0192D1F88030180481
S31500002EC0CBD4019B002BF5D1C9E7D3F8802055045C
S31500002ED00FD440F2F515D3F88030DFE7D3F8802021
S31500002EE05604D8D50022197C1A741425D3F88030DC
S31500002EF0D4E70022197C1A7440F2F515D3F8803015
S31500002F00CCE700BF00E07F4000007E4030B543685C
S31500002F1004461A7883B0F2B1012293F911303E4883
S31500002F20590903F01F03203102FA03F340F8213058
S31500002F30BFF34F8FBFF36F8F636893F9133059094F
S31500002F4003F01F039A4001F1200340F82320BFF34A
S31500002F504F8FBFF36F8F314BB3F884309BB2002B8A
S31500002F604FD04FF49640B3212D4B2C4A0190197047
S31500002F70D2F880301B040CD406E0019B013B019380
S31500002F80D2F880301D0404D4019B002BF5D1142502
S31500002F9007E0224B40F2F5151B7C13F0100F08BF1B
S31500002FA000254FF4964050211D4B1C4A0090197085
S31500002FB0D2F88030180415D406E0009B013B00933C
S31500002FC0D2F8803019040DD4009B002BF5D1002DCA
S31500002FD008BF1425FFF776FC0023284684F8343012
S31500002FE003B030BD0D4B1B7CDB060ED4002DF1D19A
S31500002FF0FFF768FC05460023284684F8343003B002
S3150000300030BD2046FFF77AFDABE7002DE2D1FFF792
S3150000301059FC40F2F515DFE700E100E000E07F40F3
S3150000302000007E40FFF772BF064B074993F8260063
S315000030301A6A51F82030C2F302620449D3400B6089
S31500003040704700BF00E001409000002020060020ED
S31500003050F8B54AF2035001233749384AA1F8FE036E
S31500003060A2F80431B2F804319BB2002BFAD1012147
S315000030704FF400454FF0090C314CDFF8DCE0314EDF
S31500003080C4F804E0DFF8D4E02B48C4F80CE02E4F77
S31500003090A2F800112D4AB16031606261276090F894
S315000030A02620A5602561056A54F82220C5F302652D
S315000030B0EA40274D2A6080F8133480F8A2C090F8C1
S315000030C0803493B300231C4981F8813481F880341D
S315000030D081F8323091F83C301A07FBD543F20210E2
S315000030E00023154A088581F82A3092F83C309B0661
S315000030F0FBD503200523114981F81C011549012040
S31500003100116282F8263092F82630116A54F823307C
S31500003110C1F30261CB402B604FF4254382F83000A7
S3150000312082F85200A2F8FE33F8BD80F8801440F20F
S31500003130C44000F04BF8C5E700E0014000C0014084
S315000031409000002000700040002D310100C2EB0B02
S31500003150200600202112012000127A0000366E019E
S3150000316038B50025134C0121C82084F8285000F0FA
S315000031702DF884F8245094F82430002BFBD194F8D1
S3150000318024300C4A43F0020384F8243092F82430A9
S31500003190C3F340049B07F9D4012082F8224000F0D3
S315000031A0E5F8054B012083F8BB44BDE8384000F044
S315000031B0ADB800BF0030084000E00140704700BFD6
S315000031C0A0F101000028FBD1704700BF10B54FF4F5
S315000031D07A72164C164B24684FF0000EB3FBF4FCC3
S315000031E04FF0FF3300FB01F1A1FB020483427EEBAB
S315000031F0040407D3B0FBFCF0800880B1BDE81040A2
S31500003200FFF7DEBF4FEA8C0CB1FBFCF1A1FB02120B
S315000032108B427EEB020203D308460028EED110BD96
S315000032201846BDE81040FFF7CBBF00BF20060020C0
S3150000323000CA9A3B70B500240A4B0B4EB3F84051B6
S31500003240ADB225FA04F3DB07E0B203D556F8243015
S3150000325003B198470134102CF3D1024BA3F8305137
S3150000326070BD00BF006000405004002030B56FF014
S31500003270FF0585B0032000F079F84FF0FF311F4CB1
S315000032801F482246856400230125CDE901110391DB
S3150000329004F1C00E32F8020F590960B104A800EB20
S315000032A0810151F80C0C03F01F0C05FA0CFC20EA06
S315000032B00C0041F80C0C724503F10103EAD10199A7
S315000032C0104B0F4A03201167C3F880120299516709
S315000032D0C3F8841203999167C3F8881200F016F8B0
S315000032E00023094803F1C00234F8021F0133602BA2
S315000032F040F82210F6D105B030BD00BF02750000BF
S315000033000080004000E100E000600040EFF3108123
S31500003310012383F31088124B33F8102092B22AB19E
S3150000332033F81020013A92B223F8102033F8103007
S315000033309BB293B90B4A10B4B2F8FE330A4C9BB257
S3150000334034F8100043F4254323EA0003A2F8FE33C1
S3150000335081F310885DF8044B704781F3108870473D
S315000033601406002000E00140C076000030B4EFF300
S315000033701081012383F310880E4A32F810309BB275
S315000033806BB90D4C0D4DB4F8FE3335F810C09BB239
S3150000339043EA0C0343F425439BB2A4F8FE3332F808
S315000033A0103001339BB222F8103081F3108830BC04
S315000033B0704700BF1406002000E00140C076000000
S315000033C00D4908B50A6803464AB103330B4823F092
S315000033D003031344834206D810460B6008BD084811
S315000033E002460860F1E701F0B5FD0C234FF0FF320D
S315000033F00360104608BD00BF1C060020502C0020AC
S31500003400500C002000BE704708B500F003F8FDF729
S3150000341057FDFEE74FF4700270B5254B254CC3F8F7
S31500003420882000209C60FDF73FFDFFF711FE01207C
S31500003430FDF73AFD2368A3F5805383F30A881E48F7
S315000034401E4A0021121A01F050FF1D481D4A1E494E
S31500003450121A01F03DFF1D4D1D4B5B1B002B07DDB6
S3150000346000249E1055F8043B01349847A642F9DC27
S31500003470FFF7DAFDFFF774FE0320FFF777FF00235F
S315000034804FF6FF70134903F108020133092B21F8A7
S315000034901200F8D10320FFF739FF0220FDF704FDE3
S315000034A0FFF7E4FEBDE870400020FFF787BE00BFCF
S315000034B000ED00E000000000B00000204C0C0020F1
S315000034C000000020900000200C7B000088000020F7
S315000034D08C000020000D0840094B70B59C681D68E3
S315000034E022682846596890470E2800D038B92846E1
S315000034F0A3688022BDE870404FF00061184770BD98
S315000035007C720000002833D02DE9F0410C4684B0CF
S3150000351051B38E1CF600B6F5005F21D80546FFF7BD
S31500003520DBFFF0B94FF0010C124B134A1F680294EF
S315000035309C680390D4F80480009210234FF0006238
S3150000354038466946CDF804C0C04750B929463846C2
S3150000355064680A4AA6F11003A04704B0BDE8F081EA
S31500003560172004B0BDE8F081032004B0BDE8F08167
S31500003570032070477C7200004D4352411000000842
S31500003580F0B138B5154672B10B4661B14FF0006225
S315000035900C4914688C4202D15168012905D00023D8
S315000035A022202B6038BD032038BD946806499C4212
S315000035B028BF1C46E20001F08BFE00202C6038BDBF
S315000035C0032070474D4352411000000870B58446F1
S315000035D00E460023164A82B09168164D10688C6814
S315000035E08DF80560022201A98DF804C02B70A04752
S315000035F0064610B1304602B070BDC82406E04FF44E
S315000036007A710120FFF7E2FD013C0FD02B78002BE9
S31500003610F5D000222B782A70032BD9B2EAD00129E3
S315000036200CBF12266426304602B070BD1426E1E7B0
S315000036309C7200002406002000232DE9F0472B4D44
S315000036402B4C2B700123D4F80090D4F8088082B05C
S315000036508DF807000E46174648461A46D8F8084021
S315000036600DF10701A047824618B1504602B0BDE8E9
S31500003670F087C82406E04FF47A710120FFF7A6FD13
S31500003680013C2FD02B78002BF5D000232A782B7005
S31500003690032AD1B209D001290CBF4FF0120A4FF00C
S315000036A0640A504602B0BDE8F0873A4631464846BD
S315000036B0D8F804402B70A04782460028D5D1C824EC
S315000036C006E04FF47A710120FFF780FD013C09D036
S315000036D02B78002BF5D000222B782A70022BD9B23A
S315000036E0D9D1C2E74FF0140ABFE700BF2406002075
S315000036F09C720000014B1870704700BF2406002022
S3150000370008B5144BD3E9011218681268904710B136
S315000037100E2800D008BD00216B20FFF757FF0028B8
S31500003720F8D107211920FFF751FF0028F2D1062111
S315000037301A20FFF74BFF0028ECD101461B20FFF7AC
S3150000374045FF0028E6D1BDE8084001461C20FFF7EA
S315000037503DBF00BF9C720000014618B101227520D2
S31500003760FFF76ABF0120704730B310B584B0044636
S315000037700E223B206946FFF75FFFD8B9BDF802303D
S31500003780BDF800105BBABDF804206380BDF80630B2
S3150000379049BA52BA5BBA2180A280BDF80810BDF8BA
S315000037A00A20E380BDF80C3049BA52BA5BBA2181CF
S315000037B06281A38104B010BD0120704730B54F4926
S315000037C085B04F48FEF76EFE4E494F48FEF76AFE3B
S315000037D04E494F48FEF766FE01A94948FEF77CFDB3
S315000037E04C4C03994C48216001F068FE4448FEF7B2
S315000037F06DFD4548FEF76AFD4548FEF767FD5A220E
S3150000380040F2DC50454B21681A60A1FB000144F6EA
S315000038102062002301F00EFA012201463848FEF725
S31500003820AFFD002855D15A2240F2DC503C4B2168AE
S315000038301A60A1FB000144F62062002301F0FAF9A8
S31500003840002201462E48FEF79BFD002851D15A2240
S3150000385040F2DC50334B21681A60A1FB000144F6AC
S315000038602062002301F0E6F9012201462648FEF710
S3150000387087FD002839D15A2240F2DC502A4B2168B4
S315000038801A60A1FB000144F62062002301F0D2F980
S31500003890002201461C48FEF773FD10BB40F2DC50C7
S315000038A05A252168214C44F620620023A1FB000121
S315000038B0256001F0BFF9012201461548FEF760FDBB
S315000038C058B95A221A4B1B481A6001F07DFE05B002
S315000038D030BD194801F078FEA5E7184801F074FEDE
S315000038E0EFE7174801F070FED8E7164801F06CFEC6
S315000038F0C1E7124801F068FEA9E700BFD8720000D0
S315000039006003002028730000800300207873000005
S31500003910A003002028060020C8760000140000201E
S3150000392010000020180000201C00002020000020AD
S315000039300C0000206C770000EC7600000C7700008D
S315000039404C7700002C770000B42828BFB42038B587
S315000039504FF4FA630F49104A0C6803FB00F189081B
S31500003960A2FB01310D4D890801F5FA7144F620627A
S3150000397028600023A1FB040101F05CF90022014646
S315000039800748FEF7FDFC00B938BD0648BDE83840DB
S3150000399001F01ABE28060020176CC1161000002080
S315000039A0600300200C770000B42828BFB42038B587
S315000039B04FF4FA630F49104A0C6803FB00F18908BB
S315000039C0A2FB01310D4D890801F5FA7144F620621A
S315000039D028600023A1FB040101F02CF90122014615
S315000039E00748FEF7CDFC00B938BD0648BDE83840AB
S315000039F001F0EABD28060020176CC116140000204D
S31500003A0060030020EC760000B42828BFB42038B547
S31500003A104FF4FA630F49104A0C6803FB00F189085A
S31500003A20A2FB01310D4D890801F5FA7144F62062B9
S31500003A3028600023A1FB040101F0FCF801220146E5
S31500003A400748FEF79DFC00B938BD0648BDE838407A
S31500003A5001F0BABD28060020176CC1161800002018
S31500003A60800300202C770000B42828BFB42038B586
S31500003A704FF4FA630F49104A0C6803FB00F18908FA
S31500003A80A2FB01310D4D890801F5FA7144F6206259
S31500003A9028600023A1FB040101F0CCF800220146B6
S31500003AA00748FEF76DFC00B938BD0648BDE838404A
S31500003AB001F08ABD28060020176CC1161C000020E4
S31500003AC0800300204C770000B42828BFB42038B506
S31500003AD04FF4FA630F49104A0C6803FB00F189089A
S31500003AE0A2FB01310D4D890801F5FA7144F62062F9
S31500003AF028600023A1FB040101F09CF80122014685
S31500003B000748FEF73DFC00B938BD0648BDE8384019
S31500003B1001F05ABD28060020176CC11620000020AF
S31500003B20A00300200C770000014B1868704700BF07
S31500003B3010000020014B1868704700BF14000020D9
S31500003B40014B1868704700BF18000020014B186829
S31500003B50704700BF1C000020014B1868704700BF6B
S31500003B6020000020B42828BFB4202DE9F0412B4FB7
S31500003B703A68824242D005460B460E461146024638
S31500003B80274801F09BFC3C68AC421ED2DFF8A480BB
S31500003B900DE02046FFF708FF4FF47A7130463C608F
S31500003BA0FFF714FBAC4204F1010320D01C4698F841
S31500003BB00030002BEDD021461A4801F07FFC00238F
S31500003BC03C6088F80030BDE8F08110D9DFF86480E9
S31500003BD098F80030C3B92046FFF7E6FE3C604FF484
S31500003BE07A713046013CFFF7F1FAA542F0D9294631
S31500003BF03D600D48BDE8F04101F060BC1146BDE8EE
S31500003C00F0410A4801F05ABC2146094801F056FC29
S31500003C1000233C6088F80030D5E700BF0C00002088
S31500003C20B0770000E4770000387800009077000055
S31500003C300C780000250600201E215A20FFF792BFAF
S31500003C401E21B420FFF78EBF0122014B1A70704768
S31500003C5025060020014B1878704700BF2506002076
S31500003C60014B1878704700BF71060020054A13788B
S31500003C7003F0FF0023B101201378013BDBB2137080
S31500003C80704700BF72060020054A137803F0FF0054
S31500003C9023B101201378013BDBB21370704700BFDC
S31500003CA077060020054A137803F0FF0023B10120B0
S31500003CB01378013BDBB21370704700BF7306002018
S31500003CC0054A137803F0FF0023B101201378013B66
S31500003CD0DBB21370704700BF75060020014B1878E1
S31500003CE0704700BF7806002070B50E4C0646237854
S31500003CF0532B12D02378732B0FD00B4D26702A88A6
S31500003D000A4B92B21988531C03F03F0389B29942B9
S31500003D1002D007498E542B8070BD0A2EEDD1FFF7D5
S31500003D2093FFEAE7790600206C0600206E06002065
S31500003D302C0600202DE9F84FDFF8E0A1624C9AF836
S31500003D4000E0624D624E634FDFF8D481DFF8D49114
S31500003D50F4460021DFF880B123882A889BB292B20C
S31500003D60581C934200F03F0059D0F35C20800D2B85
S31500003D70DAB2F1D0BCF11E0F06D801210CEB01031B
S31500003D800BF80C205FFA83FC0A2AE5D1002957D0EC
S31500003D908AF800C00022504B03F80C201A68BA4279
S31500003DA042D01A6842454DD04C4A1278002A2BD18F
S31500003DB01A684A4557D04A4A1968914259D0494A21
S31500003DC01968914244D0484A196891425CD0474AE2
S31500003DD01968914260D0464A1968914269D01A68BA
S31500003DE044498A4210D19B880A2B0DD10021012219
S31500003DF0414B1970414B1A70414A1378F92B03D87D
S31500003E0013780133DBB213704FF0000B20225946B2
S31500003E1031488AF800B001F068FADE4698E709B141
S31500003E208AF800C0BDE8F88F40F66E229988914264
S31500003E30B7D19A79002AB4D10122284B1A70E3E748
S31500003E40F446A7E71A79002AAED1244B1A70DBE7AD
S31500003E501A79002AB7D101222A4B1A702A4A1378F6
S31500003E60F92BD1D8CCE79A880A2AA4D1FFF7E4FE29
S31500003E70CAE7264A264910688842A0D11279002A44
S31500003E809DD1FFF7DDFEBFE71A79002A9FD11D4BB2
S31500003E901A701D4B1A70B7E71A79002A9BD10121B7
S31500003EA0164B1A70144B1B4A19701378F92BABD8A2
S31500003EB0A6E71A79002A92D10F4B1A70164A137880
S31500003EC0F92BA1D89CE700BF6E0600206C060020E7
S31500003ED02C060020556E436F7C06002078060020D5
S31500003EE052454C45666F720A436F6D0A5265630A06
S31500003EF0456E640A506C61797606002074060020CF
S31500003F00750600207106002072060020800600203B
S31500003F104153450A77060020730600209C060020C0
S31500003F20436F6E0A4752495038B50D4B1B78A3B103
S31500003F300C4B0A46014698684FF0000C05460A4CA1
S31500003F401868AB6884F800C0984728B923781BB96D
S31500003F5000BF2378002BFBD038BD072038BD00BF3B
S31500003F609D060020FC730000B10A0020002A47D0FD
S31500003F702DE9F04F00260746914683B0224CDFF824
S31500003F808CA0DFF88CB0019601F1FF38E268019948
S31500003F90A36801319A42019106F1010E1AD0E36835
S31500003FA0E268616801328A4228BF00222568B0456E
S31500003FB0EB5C51463846E26004D90022BB55764692
S31500003FC007F80E2001F0B8FB88B95946384601F0CB
S31500003FD0B3FB80B94FF47A710120FFF7F7F8019B24
S31500003FE04B45D3D16FF0730003B0BDE8F08F304678
S31500003FF003B0BDE8F08F6FF0040003B0BDE8F08FAA
S315000040006FF07300704700BFA006002060780000C4
S315000040106878000070B5002698B00A46054660210B
S3150000402068468DF80060FFF7A1FF031E0CDB6846AB
S315000040300D4901F081FB044648B968460B4901F079
S315000040407BFB70B123462C60184618B070BD0A225F
S315000040503146043001F0F8FB33462860184618B0A4
S3150000406070BD6FF00403EFE7707800007878000009
S315000040702DE9F84F4FF0000B80465E461D4CDFF8E9
S315000040807C901D4FDFF878A0E268A3680BF1010B66
S315000040909A4206F1010E1AD0E368E26861680132BD
S315000040A08A4228BF00222568FE2EEB5C4946384628
S315000040B0E26004D80022BB55764607F80E2001F0D0
S315000040C03BFB78B95146384601F036FB68B94FF4E8
S315000040D07A710120FFF77AF8C345D5D16FF07300E6
S315000040E0BDE8F88F0020BDE8F88F6FF00400BDE84A
S315000040F0F88F00BFA0060020340B0020787800005F
S31500004100687800002DE9F041DFF8688098F8003003
S315000041100BBB144B9E681F68326838465968904737
S315000041200446D8B94FF4806101220F4D7368696067
S315000041300E49AC602960EC600D49384688F80020CD
S315000041409847C8204FF47A71FFF740F82046AC60D4
S31500004150EC60BDE8F0810020BDE8F0816FF004005E
S31500004160F7E700BFFC730000A0060020B0060020A1
S31500004170B00A00209D06002070B5134B82B01B7854
S31500004180DBB10023114D05211148AB60EB60FFF751
S31500004190CBFE0446A0B940F6B83101A80194FFF75A
S315000041A039FF4FF47A7106464FF4FA60FFF70EF8BE
S315000041B0AC60EC60304602B070BD6FF01506F9E7F2
S315000041C06FF00406F6E700BF9D060020A00600205B
S315000041D07C7800002DE9F0414A4DA2B02B78002BE7
S315000041E000F08C808046002800F088800F46002969
S315000041F000F0848000232021434A02A801F0FCF944
S315000042000B2102A8FFF790FE0446002871D14FF457
S315000042107A716420FEF7DAFF2B78002B6ED03B4EC6
S3150000422040F6B8303470FFF723FF002863D10A2127
S315000042303748FFF779FE044600285AD14FF47A71C1
S315000042406420FEF7C3FF2B78002B57D040F6B8301A
S315000042503470FFF70DFF00284DD1602143462D4AEB
S3150000426002A801F0C9F9011E43DD02A8FFF75CFEB2
S31500004270044600283DD14FF47A716420FEF7A6FF6C
S315000042802B78002B3AD040F6B8303470FFF7F0FEAA
S3150000429088BB03468021204A009702A801F0ACF9AA
S315000042A0011E26DD02A8FFF73FFE044608BB4FF4B9
S315000042B07A716420FEF78AFF2B78FBB140F6B8309E
S315000042C03470FFF7D5FEB0B90A211448FFF72CFE6B
S315000042D0044670B94FF47A71C820FEF777FF2B7841
S315000042E063B142F21070347022B0BDE8F041FFF7BE
S315000042F0BFBE6FF0040022B0BDE8F0816FF015007C
S31500004300F9E700BF9D06002084780000340B0020EA
S3150000431094780000A0780000B0780000C47800000F
S3150000432038B5144B1B7813B30022134B09211348DD
S315000043309A60DA60FFF7F8FD0446A8B9104D40F61A
S31500004340B8324FF4807128462C70FFF70FFE002814
S3150000435009DB0C49284601F0EFF9014620B10A486D
S3150000436001F0ACF8204638BD6FF0040038BD6FF0A0
S31500004370150038BD9D060020A0060020D07800005C
S31500004380340B002070780000DC780000184B1B7896
S3150000439043B330B50C4685B039B300238021154AA6
S315000043A00090154801F028F90022144B01461248E6
S315000043B09A60DA60FFF7B8FD054680B94FF47A7166
S315000043C06420FEF703FF41F2883103A80395FFF747
S315000043D021FE10B9039BC4E9003005B030BD6FF073
S315000043E00400FAE76FF0150070476FF01500F4E768
S315000043F09D060020E8780000B40A0020A0060020F0
S31500004400394B1B78002B6BD02DE9F04307468BB058
S31500004410002862D00668002E5FD033462021334A3A
S3150000442002A801F0E9F80022314B014602A89A6081
S31500004430DA60FFF779FD0546002843D12D4C40F29E
S31500004440DC5220704FF480712046FFF78FFD002864
S315000044503ADB2046284901F06FF998B390F9043009
S31500004460041D7BB3DFF8948001E014F9013F0D2BA6
S31500004470FBD00A2BF9D02BB30A22204601A90195BD
S3150000448001F0E2F9019B81469C421BD0D3B193F91E
S3150000449000202C2A16D15C1C0A22204601A901F014
S315000044A0D3F9019A94420DD04E4501D002280ED080
S315000044B04146104601F040F920B190F90230841CC3
S315000044C0002BD4D16FF004000BB0BDE8F0830020C0
S315000044D0C7F804900BB0BDE8F0836FF01500F3E762
S315000044E06FF01500704700BF9D06002000790000A0
S315000044F0A0060020340B0020707800005C780000D5
S315000045002DE9F047344C90B02478002C61D00E464B
S3150000451000295ED0012A5CD9551E30211F462F4A3C
S315000045200346009504A801F067F800232C4C0146C9
S3150000453004A8A360E360FFF7F7FC002841D10390CD
S31500004540394603A8FFF766FD30B110F1740F08BFB6
S31500004550002010B0BDE8F087039F002FF9D0BD42C0
S3150000456034D34FF0000A4FF47A79751E3D44C6F1F4
S3150000457001080AF1FF313144E268A36808EB010A39
S315000045809A4214D0E068E36862680133934228BF18
S3150000459000232268125CE36001F8012F8D42EBD103
S315000045A0039B00221846F25410B0BDE8F087574529
S315000045B0F6D94FF47A710120FEF708FEB9F1010928
S315000045C0D7D16FF0040010B0BDE8F0872F460395F1
S315000045D0C7E76FF01500BCE79D06002010790000C4
S315000045E0A006002070B5194B90B01E7856B30D4644
S315000045F041B3144632B303463021154A009404A849
S3150000460000F0FAFF0022134B014604A89A60DA6014
S31500004610FFF78AFC034690B940F6B83103A8039326
S31500004620FFF7F8FC064650B903992846A14228BF71
S315000046302146FFF779FC10B9304610B070BD6FF017
S315000046400406F9E76FF01506F6E700BF9D060020A1
S3150000465020790000A006002030B10379012B08D094
S31500004660022B02D0802B00D0704701220E4B1A700D
S3150000467070470E4A10B49368516801338B4228BFC5
S315000046800023D168994205D00948916804781068DA
S3150000469044549360074B012298680549446818689A
S315000046A023465DF8044B1847B10A0020A0060020F7
S315000046B0B00A0020FC7300002DE9F0470026824670
S315000046C00D46184B184CD3F808801F68DFF8609029
S315000046D082B02A4651463846D8F8083026609847B0
S315000046E088B108280CD1CDF8049003E0019B5A1E2E
S315000046F0019213B12368002BF8D0019B002BE8D15F
S3150000470002B0BDE8F087094B019303E0019B5A1EF6
S31500004710019213B12368002BF8D00023236002B066
S31500004720BDE8F0873C740000380C002080969800A5
S3150000473040420F000D4B10B5D3E9011218681268FC
S31500004740904718B1044600BE204610BD08490948E6
S31500004750FCF7CAFC0446012207490648FCF71CFC84
S31500004760002CF1D000BE204610BD00BF3C740000F6
S31500004770C8730000C0030020700600200379022BD6
S3150000478004D0802B02D0012B04D070470122034BAA
S315000047901A607047024A1360704700BF380C002049
S315000047A0340C002038B50479012C00D038BD054DF5
S315000047B02878FFF799FA22462946BDE8384002488C
S315000047C0FCF7EABB70060020C0030020F0B583B0FA
S315000047D029B3002A164622DD551E0D274C1E0D4410
S315000047E006E001210DF10600FFF766FFA54213D092
S315000047F014F8013F0A2B8DF80630F2D101210DF194
S3150000480007008DF80770FFF757FF01210DF106002D
S31500004810FFF752FFA542EBD1304603B0F0BD0026AC
S31500004820304603B0F0BD00BF2DE9F041884682B0A6
S3150000483069B3002A2BDD00251E4B1F4C9F681E689E
S315000048408DF8045001E0082825D1012230467B6806
S3150000485001A9256098470028F5D12368002BFCD0D4
S3150000486000229DF8043022600D2B8DF8033014D100
S3150000487040F60D2301A80221ADF80430FFF71CFF16
S315000048800A23012088F8003002B0BDE8F08100203C
S3150000489002B0BDE8F0818DF803500DF1030001214F
S315000048A0FFF70AFF01209DF8033088F8003002B0B8
S315000048B0BDE8F0813C740000340C002081F000411A
S315000048C002E000BF83F0004330B54FEA41044FEAEF
S315000048D0430594EA050F08BF90EA020F1FBF54EA8A
S315000048E0000C55EA020C7FEA645C7FEA655C00F026
S315000048F0E2804FEA5454D4EB5555B8BF6D420CDDF7
S315000049002C4480EA020281EA030382EA000083EA79
S31500004910010180EA020281EA0303362D88BF30BD19
S3150000492011F0004F4FEA01314FF4801C4CEA11316F
S3150000493002D0404261EB410113F0004F4FEA0333CE
S315000049404CEA133302D0524263EB430394EA050F59
S3150000495000F0A780A4F10104D5F1200E0DDB02FAC8
S315000049600EFC22FA05F2801841F1000103FA0EF25C
S31500004970801843FA05F359410EE0A5F120050EF122
S31500004980200E012A03FA0EFC28BF4CF0020C43FA53
S3150000499005F3C01851EBE37101F0004507D54FF060
S315000049A0000EDCF1000C7EEB00006EEB0101B1F5B0
S315000049B0801F1BD3B1F5001F0CD349085FEA3000F6
S315000049C04FEA3C0C04F101044FEA445212F5800F01
S315000049D080F09A80BCF1004F08BF5FEA500C50F19E
S315000049E0000041EB045141EA050130BD5FEA4C0C81
S315000049F0404141EB0101013C28BFB1F5801FE9D2DE
S31500004A0091F0000F04BF01460020B1FA81F308BF00
S31500004A102033A3F10B03B3F120020CDA0C3208DDCC
S31500004A2002F1140CC2F10C0201FA0CF021FA02F1A7
S31500004A300CE002F11402D8BFC2F1200C01FA02F117
S31500004A4020FA0CFCDCBF41EA0C019040E41AA2BF3C
S31500004A5001EB0451294330BD6FEA04041F3C1CDA04
S31500004A600C340EDC04F11404C4F1200220FA04F024
S31500004A7001FA02F340EA030021FA04F345EA0301CE
S31500004A8030BDC4F10C04C4F1200220FA02F001FA90
S31500004A9004F340EA0300294630BD21FA04F0294612
S31500004AA030BD94F0000F83F4801306BF81F48011AB
S31500004AB00134013D4EE77FEA645C18BF7FEA655C1E
S31500004AC029D094EA050F08BF90EA020F05D054EAF0
S31500004AD0000C04BF1946104630BD91EA030F1EBFF5
S31500004AE00021002030BD5FEA545C05D140004941F9
S31500004AF028BF41F0004130BD14F580043CBF01F5EC
S31500004B00801130BD01F0004545F0FE4141F47001D1
S31500004B104FF0000030BD7FEA645C1ABF19461046AC
S31500004B207FEA655C1CBF0B46024650EA013406BFAD
S31500004B3052EA033591EA030F41F4002130BD00BF6C
S31500004B4090F0000F04BF0021704730B54FF4806429
S31500004B5004F132044FF000054FF0000150E700BFAA
S31500004B6090F0000F04BF0021704730B54FF4806409
S31500004B7004F1320410F0004548BF40424FF00001F6
S31500004B803EE700BF42004FEAE2014FEA31014FEA39
S31500004B9002701FBF12F07F4393F07F4F81F0605188
S31500004BA0704732F07F4208BF704793F07F4F04BFD3
S31500004BB041F40021704730B54FF4607401F00045B0
S31500004BC021F000411CE700BF50EA010208BF704710
S31500004BD030B54FF000050AE050EA010208BF704701
S31500004BE030B511F0004502D5404261EB41014FF46A
S31500004BF0806404F132045FEA915C3FF4D8AE4FF072
S31500004C0003025FEADC0C18BF03325FEADC0C18BF54
S31500004C10033202EBDC02C2F1200300FA03FC20FAA5
S31500004C2002F001FA03FE40EA0E0021FA02F11444F2
S31500004C30BDE600BF53B94AB9002908BF00281CBF0A
S31500004C404FF0FF314FF0FF3000F082B9ADF1080CA4
S31500004C506DE904CE00F006F8DDF804E0DDE9022394
S31500004C6004B070472DE9F04F099D04460F46002B0E
S31500004C7048D18A42944661D9B2FA82F343B1C3F16C
S31500004C8020019F4002FA03FC9C4020FA01F10F43E9
S31500004C904FEA1C411FFA8CFE220CB7FBF1F601FB12
S31500004CA0167706FB0EF042EA0742904208D91CEB43
S31500004CB0020206F1FF3702D2904200F237813E46E9
S31500004CC0121AA4B2B2FBF1F001FB102200FB0EFE99
S31500004CD044EA0244A64508D91CEB040400F1FF325D
S31500004CE002D2A64500F21C81104640EA0640A4EB1B
S31500004CF00E0400261DB1DC400023C5E90043314601
S31500004D00BDE8F08F8B4209D9002D00F0FD8000260A
S31500004D10C5E9000130463146BDE8F08FB3FA83F6A7
S31500004D20002E4BD18B42C0F0F280824240F2EF80DF
S31500004D303046002DE3D0C5E90047E0E702B9FFDEC3
S31500004D40B2FA82F3002B40F09D80891A4FEA124E88
S31500004D5097B20126200CB1FBFEF20EFB121140EABF
S31500004D60014107FB02F088420FD91CEB010102F159
S31500004D70FF382CBF4FF001094FF00009884203D9D4
S31500004D80B9F1000F00F0CF804246091AA4B2B1FB78
S31500004D90FEF00EFB101100FB07F744EA0144A742A0
S31500004DA008D91CEB040400F1FF3102D2A74200F23D
S31500004DB0B4800846E41B40EA02409BE7C6F12007A0
S31500004DC0B34001FA06F422FA07FCF940B2404CEA75
S31500004DD0030C20FA07F34FEA1C491C431FFA8CFE0A
S31500004DE000FA06F3200CB1FBF9F809FB181140EAAA
S31500004DF0014108FB0EF088420FD91CEB010108F1B6
S31500004E00FF3A2CBF4FF0010B4FF0000B884203D93D
S31500004E10BBF1000F00F08D80D046091AA4B2B1FB99
S31500004E20F9F009FB101100FB0EFE44EA01418E4524
S31500004E3007D91CEB010100F1FF3401D28E457FD862
S31500004E40204640EA0840A1EB0E01A0FB029841452E
S31500004E504C46C64602D306D14B4504D20138B9EBBF
S31500004E60020468EB0C0E002D70D01A1B61EB0E01CC
S31500004E7022FA06F301FA07F7F14000261F43C5E9B7
S31500004E8000713CE702FA03FCC3F1200001FA03F2C9
S31500004E9021FA00F64FEA1C4E24FA00F11FFA8CF7AD
S31500004EA09C401143B6FBFEF00A0C0EFB106642EA6C
S31500004EB0064200FB07F696420ED91CEB020200F1F1
S31500004EC0FF382CBF4FF001094FF00009964202D976
S31500004ED0B9F1000F31D04046921B89B2B2FBFEF603
S31500004EE00EFB162241EA024106FB07F28A4207D967
S31500004EF01CEB010106F1FF3801D28A4223D846464F
S31500004F00891A46EA004625E72E462846F7E6841A19
S31500004F1061EB030301201F460BE76444023849E7AF
S31500004F2064440238E1E6023A61442EE7023E6244F6
S31500004F30C6E6A8F1020861446FE702386244CBE78F
S31500004F40023861447DE7023E6144D9E72E46D6E643
S31500004F50704700BF014B1868704700BF240000204F
S31500004F608A892DE9F041054610070C4658D44B684E
S31500004F70002B05DC0B6C002B02DC0020BDE8F08169
S31500004F80E66A002EF9D0002312F480522F682B60B7
S31500004F9032D0606DA3895A0705D56368C01A636B62
S31500004FA00BB1236CC01A00230246E66A2846216A22
S31500004FB0B047431CA38906D129681D292CD8294A44
S31500004FC0CA40D60728D50022D90462602269226029
S31500004FD004D5421C01D12B6803B96065616B2F6053
S31500004FE00029CAD004F14403994202D0284600F0B1
S31500004FF085F900206063C1E7216A01232846B0478E
S31500005000411CC7D12B68002BC4D01D2B01D0162BF9
S3150000501001D12F60B1E7A38943F04003A381ADE737
S315000050200F69002FA9D093070E680F600CBF4B695C
S315000050300023A6EB07088B60B8F1000F9DDD434601
S315000050403A46216A2846A66AB047002806DCA389A4
S315000050504FF0FF3043F04003A3818FE70744A8EBEE
S315000050600008E9E70100402038B50B6905460C4603
S3150000507013B90025284638BD18B183690BB900F06D
S3150000508087F8144B9C421BD16C68B4F90C30002B8A
S31500005090EFD0626ED00704D4990502D4A06D00F05B
S315000050A015F928462146FFF75BFF636E0546DA07CA
S315000050B0E0D4A3899B05DDD4A06D00F008F9D9E7FB
S315000050C0054B9C4201D1AC68DFE7044B9C4208BF0C
S315000050D0EC68DAE75079000070790000307900005A
S315000050E0002310B504468360818119464366C28158
S315000050F008228361C0E90033C0E904335C3000F064
S31500005100F4F8054B24626362044BA362044BE3622A
S31500005110044B236310BD00BF615600008356000098
S31500005120BB560000DF560000014900F0AFB800BFD3
S315000051306950000070B568224D1E0E46554305F1B4
S31500005140740100F047F9044640B1002105F16802F8
S31500005150C0E900160C30A06000F0C7F8204670BD0C
S31500005160014800F0B3B800BF3D0C0020014800F034
S31500005170AEB800BF3D0C0020014800F0A7B800BF44
S315000051803E0C0020014800F0A2B800BF3E0C0020F3
S3150000519010B50446FFF7F0FFA3691BB1BDE8104048
S315000051A0FFF7F0BFC4E9123323652046124B134ABA
S315000051B01B68A262A34204BF0123A36100F020F88A
S315000051C06060204600F01CF8A060204600F018F849
S315000051D000220421E0606068FFF782FF01220921B6
S315000051E0A068FFF77DFF02221221E068FFF778FF33
S315000051F00123A361D2E700BF907900002951000086
S31500005200F8B50746FFF7ACFF1E4B1E68B36913B926
S315000052103046FFF7BDFF4836D6E90134013B03D5DA
S3150000522033680BB33668F7E7B4F90C50D5B9164BAB
S3150000523004F158006566E36000F047F8FFF796FF53
S315000052400822294604F15C002560A561C4E90155E0
S31500005250C4E9045500F049F8C4E90D55C4E91255EE
S315000052602046F8BD6834D9E704213846FFF762FFC7
S31500005270044630600028D5D1FFF778FF0C233B6049
S31500005280EEE700BF907900000100FFFF2DE9F8432B
S315000052900646884600F148040027D4E90195B9F18D
S315000052A0010905D52468002CF7D13846BDE8F883F6
S315000052B0AB89012B07D9B5F90E30013303D0294646
S315000052C03046C04707436835E9E77047704770477F
S315000052D00A44431E914200D1704710B511F8014BA4
S315000052E0914203F8014FF9D110BD0244034693429F
S315000052F000D1704703F8011BF9E7FFFF37B5002916
S3150000530043D051F8043C0C1F0190002BB8BFE418A1
S3150000531000F0FEFB1E4A0198136833B963601460FF
S3150000532003B0BDE8304000F0F9BBA34208D92568B8
S3150000533061198B4201BF19685B6849192160EDE765
S315000053401A465B680BB1A342FAD911685518A542F3
S315000053500BD12468214454181160A342E0D11C6883
S315000053605B68214453601160DAE702D90C230360BD
S31500005370D6E7256861198B4202BF19685B6849192F
S31500005380636008BF21605460CAE703B030BD00BF48
S31500005390400C002070B50E4E0C460546316811B91A
S315000053A000F01AF930602146284600F015F9431C32
S315000053B00AD0C41C24F00304A04207D0211A2846B0
S315000053C000F00AF9013001D14FF0FF34204670BDDC
S315000053D0440C00202DE9F041CD1C074625F00305BD
S315000053E008350C2D38BF0C25002D01DBA94205D947
S315000053F00C2300263B603046BDE8F0812E4E00F0BF
S3150000540087FB33681C4634BB29463846FFF7C2FF84
S31500005410431C04464DD134682646002E40D12368ED
S315000054203146384604EB030800F0D6F880453AD1F9
S315000054302168033538466D1A25F0030508350C2D0D
S3150000544038BF0C252946FFF7A5FF01302BD023686E
S315000054502B4423600EE02268521B1ED40B2A16D959
S315000054606119A342256018BF5960636808BF31609F
S3150000547062514B6004F10B06384600F04FFB231DCA
S3150000548026F00706F21AB6D09B1BA350B3E7626854
S31500005490A3420CBF32605A60ECE723466468B2E769
S315000054A034467668B9E70C2338463B6000F036FB95
S315000054B0A1E72560DEE700BF400C00200FB40A4BD1
S315000054C013B51C6824B1A36913B92046FFF760FE23
S315000054D005AB049AA1682046019300F0ABFC02B02C
S315000054E0BDE8104004B070472400002070B50E4699
