S02A000031355365766F72416C6C2B53544F50322B4D5055363035302B766F69636550726F322E737265633D
S3150000000078340020392C0000652A0000352C0000C9
S31500000010352C0000352C0000352C0000352C000056
S31500000020000000000000000000000000352C000069
S31500000030352C000000000000352C0000352C000097
S315000000400D0D00007D0C00009D0D0000E50D00006B
S315000000500D0D00007D0C00009D0D0000E50D00005B
S31500000060E51600002518000019190000E119000026
S31500000070000000000000000000000000000000007A
S31500000080000000000000000000000000000000006A
S31500000090000000000000000000000000000000005A
S315000000A0000000000000000000000000000000004A
S315000000B0000000000000000000000000000000003A
S315000000C0000000000000000000000000000000002A
S315000000D0000000000000000000000000000000001A
S315000000E0000000000000000000000000000000000A
S315000000F000000000000000000000000000000000FA
S3150000010000000000000000000000000000000000E9
S3150000011000000000000000000000000000000000D9
S3150000012000000000000000000000000000000000C9
S3150000013000000000000000000000000000000000B9
S3150000014000000000000000000000000000000000A9
S315000001500000000000000000000000000000000099
S315000001600000000000000000000000000000000089
S315000001700000000000000000000000000000000079
S315000001800000000000000000000000000000000069
S315000001900000000000000000000000000000000059
S315000001A00000000000000000000000000000000049
S315000001B00000000000000000000000000000000039
S315000001C0FFFFFFFFFFFFFFFFFFFFFFFFFFFFFFFF39
S315000001D0FFFFFFFFFFFFFFFFFFFFFFFFFFFFFFFF29
S315000001E0FFFFFFFFFFFFFFFFFFFFFFFFFFFFFFFF19
S315000001F0FFFFFFFFFFFFFFFFFFFFFFFFFFFFFFFF09
S3150000020010B5054C237833B9044B13B1044800E00C
S3150000021000BF0123237010BDA800002000000000CD
S31500000220FC53000008B5034B1BB10349034800E02B
S3150000023000BF08BD00000000AC000020FC53000019
S31500000240007902F06FBE00BF2DE9F04FADF6BC1D80
S3150000025003F07EFAB94804F009F802F0C7FE02F08E
S3150000026067FE00250146B64803F07AFF0DF1470008
S315000002708DF8475002F088FE9DF847200146B148A8
S31500000280322403F06DFF2F462E4616A802F084FE98
S3150000029003464FF47A710A2033B9BDF95820BDF9E7
S315000002A05A3016441F44013502F0A8FB013CECD13C
S315000002B0CDE90E672DB196FBF5F30E9397FBF5F39B
S315000002C00F934FF000095A262B46CB464C4635462F
S315000002D00F9A0E999C4803F043FFCDE90B99CDF890
S315000002E03490CDF820900A96099603F01DF903F094
S315000002F0CBF80746002800F0E08003F0D3F84FF073
S315000003000009B0FA80F3CB464C465B09089303F02C
S31500000310D7F8002840F0E38003F09CF8002840F06E
S315000003203E8114B1CB4500F25F8103F099F8044693
S31500000330002840F0148112A802F02EFE002840F09A
S315000003403C810B9B0E99C3EBC302BDF948305B1A87
S3150000035040F6C31183EAE370A0EBE3708842D8BF8E
S3150000036000230F991344BDF94A20521A40F2DB517B
S3150000037082EAE270A0EBE2708842D8BF00221946FA
S315000003800C98002BB8BFD91DC0EBC0000244C910A1
S315000003900B911146002AB8BFD11D6C48C9100C91AB
S315000003A080FB0371DF17C7EBA12780FB0213D2176F
S315000003B0C2EB63227F005A3207F15A0800F14681E8
S315000003C0B42AA8BFB4220792D7F15A0700F11281C6
S315000003D0B42FA8BFB427B8F1000FC0F21181B8F14D
S315000003E0B40FA8BF4FF0B408079B099AC2469342C0
S315000003F000F20E81099BC0F051810793AF4200F2D3
S315000004001181C0F043812F460A9B4345C0F01281FB
S3150000041000F25681DDF82880B24500F21281C0F064
S315000004202D81B246079B099A934202D0184602F0E4
S3150000043063FFAF4202D0384602F09EFE0A9B984503
S3150000044002D0404602F0F8FEB24502D0504602F015
S3150000045023FF089BBBB1BBF5967F14D2322316AAA5
S3150000046002EBCB0522F83B30AF7002F075FF079B1D
S315000004700BF1010BAB714FF0000385F8048085F892
S3150000048005A0EB71E8700D9B3233B3F5FA7F0D933F
S3150000049080F0DF80079B4FF47A7132200993CDF804
S315000004A0288002F0ABFA03F03FF802F0EDFF3D467C
S315000004B05646074600287FF420AF02F0F3FF0028D7
S315000004C03FF425AFBBF1000F7ED0594616A808971A
S315000004D002F030FC02F0F4FF00283FF41DAF0023C9
S315000004E04FF4967112AA16A8129302F061FC074601
S315000004F000287FF411AFDDF848B0BBF1000F66D0DD
S3150000050002F0A8FF002840F0D3804FF0010916AC96
S31500000510A07802F031FEE07802F05EFE207902F06B
S315000005208BFE607902F0B8FEA07902F0E5FE208825
S315000005304FF47A7102F062FA0124D6E6FC4C000010
S31500000540104D0000284D0000504D00001F85EB5156
S31500000550022E38BF0226023E304602F09DFE02F011
S3150000056085FFD8B15A2D20D806D004355A2D28BF7C
S315000005705A25284602F000FE731E582BA6F15B0290
S31500000580E6D9582AEBD80236B42E28BFB426304610
S3150000059002F082FE02F06AFF0028E3D104464FF41F
S315000005A07A71322002F02AFA9FE6043D5A2D38BFAE
S315000005B05A25284602F0E0FDDEE7099BB2462F46A3
S315000005C0DDF82880079365E7CDF820B09FE602F0B6
S315000005D041FFD94600283FF4A8AE4FF47A71322085
S315000005E05C4602F00BFA80E616AB03EBC90409F190
S315000005F001098DE7B8F1000F4FF00007BFF6EFAE27
S315000006004FF00008079B099AC24693427FF6F2AE66
S315000006101346079A02339A4228BF1A46AF420792F8
S315000006207FF6EFAEAB1C9F4228BF1F460A9B434591
S31500000630BFF4EEAE0133984528BF9846B2457FF623
S31500000640EEAEB31C9A4528BF9A46EBE60023079305
S31500000650BAE6079BCDE9048A02930C9B1D480193D9
S315000006600B9BBDF94A200093BDF94810BDF94C30EB
S31500000670039703F075FD00230D930BE7022E7FF61B
S31500000680D1AEB31E9A4538BF9A46CBE6022D7FF609
S31500000690BBAEAB1E9F4238BF1F46B5E6022B7FF6A8
S315000006A0ADAE079A023B9A4238BF1A460792A5E6B4
S315000006B04FF47A713220B946012402F09FF914E60C
S315000006C00A9B012B3FF4A8AE013B984538BF9846DC
S315000006D0A2E600BF744D0000022800D07047024B0E
S315000006E00248596800F02ABDC84D0000C400002029
S315000006F008B5FFF7A9FD002008BD00BF10B400240F
S315000007000122036A44609C70C3692D4993F9053040
S315000007104FEA531C03F01F0302FA03F30CF1200CFB
S3150000072041F82C30BFF34F8FBFF36F8FC36993F936
S315000007300B304FEA531C03F01F0302FA03F30CF1CC
S31500000740200C41F82C30BFF34F8FBFF36F8FC36976
S3150000075093F907304FEA531C03F01F0302FA03F321
S315000007600CF1200C41F82C30BFF34F8FBFF36F8F85
S31500000770C36993F909304FEA531C03F01F0302FAC9
S3150000078003F30CF1200C41F82C30BFF34F8FBFF36D
S315000007906F8FEFF3108182F31088C369094A93F8CB
S315000007A000C04FF00043506823FA0CF30343536034
S315000007B0536881F3108820465DF8044B704700BFEC
S315000007C000E100E00040084003460020C3E90512AE
S315000007D0704700BF10B4046AA37803F07B03A370CC
S315000007E0837803F00303D21A0B440261A278C36034
S315000007F0837842F0800203F00303022BA27005D037
S315000008000B780020E3705DF8044B70470B880020DE
S3150000081043F47E43E3815DF8044B70478446002031
S31500000820CCE90A32CCF82410704700BF70B5864672
S315000008300024DEF820304D7893F802C00A780CF0D8
S315000008400B069E70CEF80C4020468C7802F05C02B7
S315000008505C7093F800E00CF07B0C65F3010E83F8F6
S3150000086000E0C9789974D97901F0A3010A43DA71D5
S3150000087083F802C070BD00BF4FF0FF330020C1E90E
S31500000880003370478B0711D5002210B4046AC907DC
S31500000890A37803F07B03A3701346026102D50022FE
S315000008A01346826118465DF8044B7047CA074FF03D
S315000008B0060302D50022134682611846704700BF20
S315000008C00346002210B49C6910460C605DF8044B88
S315000008D09A617047F0B5846A85B005460F4694461E
S315000008E06E46B4B194E80F0086E80F00EB69204627
S315000008F01B7884F804C02360EB6AC4E902736B6A50
S315000009009847AC6A1CB196E80F0084E80F0005B062
S31500000910F0BD3446EAE700BF0022F0B501240B78AB
S31500000920027003F5800303F58C531B0203624B69C7
S315000009308D6943628378C16164F301038262C56293
S3150000094083704B7823B90222837862F301038370A4
S31500000950012491F90B50C44A6B0905F01F07203397
S3150000096004FA07F78E7A42F82370BFF34F8FBFF36E
S315000009706F8FBE4B05F1C00753F827C06FF3104CBD
S3150000098043F827C053F82770B94F360102EB050C20
S31500000990F6B28CF8006347F8250091F905500E79F8
S315000009A04FEA551C05F01F0E0CF1200C04FA0EFE42
S315000009B042F82CE0BFF34F8FBFF36F8F05F1C00CE9
S315000009C053F82CE06FF3104E43F82CE053F82CC08C
S315000009D0360102EB050CF6B28CF8006347F82500E9
S315000009E091F907508E794FEA551C05F01F0E0CF150
S315000009F0200C04FA0EFE42F82CE0BFF34F8FBFF333
S31500000A006F8F05F1C00C53F82CE06FF3104E43F8CE
S31500000A102CE053F82CC0360102EB050CF6B28CF82C
S31500000A20006347F8250091F909500E7A4FEA551CE4
S31500000A3005F01F0E0CF1200C04FA0EFE42F82CE015
S31500000A40BFF34F8FBFF36F8F05F1C00C53F82CE047
S31500000A506FF3104E43F82CE053F82C303301DBB221
S31500000A602A4482F8003347F82500EFF3108584F313
S31500000A7010884FF000447F4B0E785A68F44022EA03
S31500000A8004025A605B6885F31088002240F2F9344C
S31500000A90036A40F2F9359A701A715A729A72DA72CA
S31500000AA05A830A7824FA02F2D60744BF4022DA743F
S31500000AB00622CC691A770A784E78D540ED078F78EA
S31500000AC0CA7848BF4FF478414FEAC20248BF9982BC
S31500000AD0032E42EA071200F0C280002E14BFF22154
S31500000AE0E221D2B21A709971227B082A0EBF0A221D
S31500000AF0520002F002025A736278A178D2014901CB
S31500000B0001F02001D2B20A430021197294F800C004
S31500000B10ACF10201012940F29880D2B2DA71626822
S31500000B20917855785970197865F301011970D17863
S31500000B3012789974D97902F05C0201F0A3010A4394
S31500000B40DA710022C16902618261C260426191F973
S31500000B500550464B05F1C00153F8216062F310467B
S31500000B6043F8216053F82110BFF35F8F012669090E
S31500000B70890005F01F0501F1604101F5614106FAA2
S31500000B8005F5C1F880510D60C16991F90B5005F169
S31500000B90C00153F8217062F3104743F8217053F8EF
S31500000BA02110BFF35F8F6909890005F01F0501F168
S31500000BB0604106FA05F501F56141C1F880510D6005
S31500000BC0C16991F907E00EF1C00153F8215062F3B3
S31500000BD0104543F8215053F82110BFF35F8F4FEAB9
S31500000BE05E1189000EF01F0E01F1604106FA0EF546
S31500000BF001F56141C1F880510D60C16991F9091093
S31500000C0001F1C00553F8257062F3104743F82570CB
S31500000C1053F82530BFF35F8F4B099B0001F01F018E
S31500000C2003F160438E4003F56143C3F880611E60A3
S31500000C30036A0CF0030C4CF0700C618983F802C057
S31500000C400D4B018143601046F0BDFF21BCF1020F40
S31500000C5008BF42F01002D2B25970DA7171E7F22180
S31500000C6042F040023DE700BF00E100E000600040C6
S31500000C7054020020004008405549435330B4EFF376
S31500000C800383103B1F4A5BB203F1C00152F82100F7
S31500000C906FF3104042F8210052F821201A4A52F808
S31500000CA02300C3691B691BB103691BB130BC7047C4
S31500000CB003697BB9D0E908240021937803F07F0308
S31500000CC043F004039370C160002CEFD030BC802247
S31500000CD0FFF700BE827802F003010229C1680BD03B
S31500000CE0046A91F800C084F803C002F003029B1A5C
S31500000CF00A44C0E90323D8E70C88056A44F47E4415
S31500000D00EC81F2E7006000405402002010B582B08A
S31500000D10EFF30383103B1F4A5BB203F1C00152F8A5
S31500000D2021006FF3104042F8210052F821201A4AA0
S31500000D3052F82340A27802F00303022B236A0CBF69
S31500000D40198A5979A3690CBFC1F30801C9B2019187
S31500000D5043B9636AB3B10422204602B0BDE810402D
S31500000D60FFF7B8BD02F0030201A9606903F002F9BA
S31500000D70D4E90521A37803F003031A44C91AC4E988
S31500000D80052109B102B010BD636A002BFAD0012219
S31500000D90E2E700BF006000405402002010B5EFF308
S31500000DA003830E4A103B5CB252F82400D0E90821B6
S31500000DB0937803F07B03937019B102220021FFF7A9
S31500000DC089FD074A04F1C00352F823106FF310415E
S31500000DD042F8231052F8233010BD00BF5402002001
S31500000DE00060004010B5EFF303831A4A103B5CB273
S31500000DF052F82400837803F00303022B036A0CBF26
S31500000E00198A597993F804C00CBFC1F30801C9B215
S31500000E101CF0100F0CF0380206D093F81CC01CF022
S31500000E20010F08BF42F0400293F804C00CF0C70C53
S31500000E3083F804C0436A0BB1FFF74CFD064A04F180
S31500000E40C00352F823106FF3104142F8231052F8F2
S31500000E50233010BD540200200060004000220346EB
S31500000E6010461A60704700BF0B0A10B41B01064CEF
S31500000E7053FA81F154F821300020C3F340035DF8A2
S31500000E80044B1370704700BF00080840090A490167
S31500000E9001F1804101F500214B6800201380704765
S31500000EA0090A490123EA020C01F180411A4001F5C1
S31500000EB0002142EA0C4200208A6070470123C8B232
S31500000EC083404AB91A040B0A5B0103F1804303F518
S31500000ED0002300209A6070479AB2F4E7090A490194
S31500000EE001F1804101F5002110B40C6802EA030CFF
S31500000EF04CEA040C62EA030202EA0C0200205DF8E6
S31500000F00044B0A60704700BF090A490101F180419C
S31500000F1001F500214B680020C3F30F43138070478F
S31500000F20012310B44FEA112C4FEA4C1C0CF1804CF3
S31500000F300CF5002CDCF80440C9B203FA01F18BB2BF
S31500000F4001EA1441C91AB1FA81F1490900205DF894
S31500000F50044B1170704700BF090A490123EA020CCD
S31500000F6001F180411A4001F5002142EA0C420020BD
S31500000F70CA607047012A14D04FF480300B0A5B0117
S31500000F8003F1804303F5002310B4CAB2DC6800FA0B
S31500000F9002F22243120C120400205DF8044BDA60C0
S31500000FA070470B0A5B0103F1804303F50023D86801
S31500000FB0C9B28A40024392B20020DA60704700BF8D
S31500000FC02DE9F84F0388002B3DD007464FF0000867
S31500000FD0DFF8A4A040F202427B684FEAC80559191F
S31500000FE08988002491424FF00109224E09D001342C
S31500000FF0032C23D07B6836F8022B59198988914235
S31500001000F5D15B5909FA04F203F0B853B3F1807FC6
S315000010105FFA82FB19D09AF8BB341A42E7D0012056
S3150000102001F0BCFD9AF8BB34012023EA0B0B8AF8C9
S31500001030BBB4013401F082FD032CDBD13B8808F1FF
S3150000104001084345C6D8BDE8F88F9AF8BB2409FACB
S3150000105004F313425FFA83FBC9D1012001F09EFD20
S315000010609AF8BB3401204BEA030B8AF8BBB401F0B3
S3150000107065FDBCE71E51000000E00140F8B50446DE
S31500001080FFF79EFFEFF31082012383F31088284EAB
S3150000109033681BB92749CB704023CB7033680133C3
S315000010A0336082F3108823887BB3626803F1FF3EC6
S315000010B01FFA8EFE02F108011F4C01EBCE0E08E06E
S315000010C0D2B21B0113448E450A4644F823001CD0B5
S315000010D008311068928810F4803F4FEA1223EFD04F
S315000010E0130AD2B202EB031C54F82C701B011344F2
S315000010F020F480356FF310478E4544F82C700A466D
S3150000110044F82C5044F82300E2D1EFF31082012377
S3150000111083F31088336813B13368013B3360336857
S315000011201BB980200349CB70C87082F31088F8BDC4
S3150000113050020020000D08400008084008B5034B87
S3150000114003600846FFF79AFF002008BD54524F502F
S3150000115008B50846FFF792FF002008BD70B50126C6
S3150000116084B002AB68460C4615460193ADF80060A4
S31500001170ADF80C100292FFF723FFEFF3108286F30F
S3150000118010881D490B681BB940261C48C370C670E1
S315000011900B6801330B6082F31088EA034FEA1423CD
S315000011A0E4B219D41B01164A234442F82350EFF344
S315000011B01082012383F310880B6813B10B68013B7F
S315000011C00B600B681BB980200C49CB70C87082F38A
S315000011D01088002004B070BD094A04EB031052F8D1
S315000011E020601B016FF3104642F8206025F480361C
S315000011F042F82060D7E700BF50020020000D0840EB
S31500001200000808400346002059601A72704700BF64
S3150000121084460020CCE90E32CCF83410704700BF6B
S315000012200346044ADB6800209B1AB3FA83F35B0982
S315000012300B7070474349495230B5836B83B00446FF
S315000012400A466D46A3B193E8030085E80300E16B07
S315000012501A711846626B19609047A36B1BB195E82B
S31500001260030083E80300002384F82B3003B030BD6D
S315000012702B46ECE730B4344B82B01B6A026903F0AC
S315000012800F2301930199019D137C90F82C409CB982
S31500001290C1F30321DBB2A1EB15618B409B0806D19C
S315000012A00823184602B030BC7047013BF8D051788D
S315000012B0C909FAD1B323D371002390F826400168F7
S315000012C080F8274080F82830846980F82B30036244
S315000012D080F82D3080F82E3080F82F3080F83030AE
S315000012E04B6AC46193F800C05C78BCF1010F0CBF77
S315000012F00523042343EA4403DBB2D370537943F056
S315000013000103537191F90F30002B08DB012203F022
S315000013101F040E495B09A24041F823200269BF233E
S31500001320D37190F82C1001F0FF0339B10022134657
S3150000133080F82C20184602B030BC704702211846AF
S31500001340517002B030BC704700E0014000E100E09F
S3150000135090F808C0C0E90512BCF1010F80F82A30E8
S3150000136008D10022436880F826C05B0080F824304C
S3150000137080F82520002380F82930FFF77BBF00BFC7
S3150000138090F808C0C0E90512BCF1010F80F82A30B8
S315000013900AD10022436880F826C05B0043F00103AF
S315000013A080F8243080F82520012380F82930FFF7C3
S315000013B061BF00BF2DE9F0434FF01F0C5F27DF260A
S315000013C00269DFF89C9182F800C0177016700668F3
S315000013D04FF0000E776AD6F804C03E794FF0B30896
S315000013E046F0E0061674FE785A4C46F0E00656744F
S315000013F0BE78594D360106F0700646F0080696701E
S315000014003E787F78012E0CBF05260426CC450CBFFE
S315000014104FF0F70C4FF0770C46EA4706F6B2D67057
S3150000142082F805C082F806E082F807804E7B91F9C3
S3150000143011203601494BA718F6B287F8006302F16E
S31500001440C00645F8220053F826706EF3104743F89D
S31500001450267053F82660BFF35F8F4FF0010C5609D4
S31500001460B60002F01F0206F1604606F561460CFA68
S3150000147002F2C6F8802132604E7B91F90F203601C8
S31500001480A718F6B287F8006302F1C00645F82200F5
S3150000149053F826706EF3104743F8267053F826600B
S315000014A0BFF35F8F5609B60002F01F0206F16046D1
S315000014B00CFA02F206F56146C6F8802132604E7BD0
S315000014C091F910203601A718F6B287F8006302F1E9
S315000014D0C00645F8220053F826706EF3104743F80D
S315000014E0267053F82660BFF35F8F5609B60002F0E8
S315000014F01F0206F160460CFA02F206F56146C6F8CE
S31500001500802132604E7B91F90E2031011444C9B21C
S3150000151084F8001302F1C00145F8220053F8214077
S315000015206EF3104443F8214053F82130BFF35F8F28
S3150000153053099B0002F01F0203F160430CFA02F20A
S3150000154003F56143C3F880211A609F2203691A706C
S31500001550BDE8F08300E100E0540200200060004096
S3150000156040420F0070B500250A78016002F580023E
S3150000157002F51F62120202618A6842600A7B0272E9
S31500001580CA6942630A6AC0E90E52EFF3108C01225F
S3150000159082F310880B78C3F109039A400C4B5E68FE
S315000015A026EA02025A605B688CF31088FFF702FF96
S315000015B0084B80F82950C0E9075580F82A50456144
S315000015C080F82B50856180F82C50C360284670BD8A
S315000015D0004008404349495238B50025036901686F
S315000015E0DD71FFF7E7FEB322836990F826100362E8
S315000015F0036980F8281080F82C50C56180F82A50BD
S315000016002846DA7138BD00BF38B500250369016880
S31500001610DD71FFF7CFFE04464FF0B30C836990F8F7
S3150000162026200362012380F82820026980F82C50C6
S31500001630C561006884F82A5082F807C0D571E56054
S3150000164090F911202549500902F01F02203003FAB3
S3150000165002F241F82020BFF34F8FBFF36F8F22684D
S3150000166092F90E20500902F01F0203FA02F220300E
S3150000167041F82020BFF34F8FBFF36F8F226892F996
S315000016801020500902F01F0203FA02F2203041F83E
S315000016902020BFF34F8FBFF36F8F226892F90F2080
S315000016A0500902F01F0203FA02F2203041F820200E
S315000016B0BFF34F8FBFF36F8FEFF3108083F3108864
S315000016C02168074A0978C1F109018B4051680B432B
S315000016D05360536880F31088284638BD00E100E067
S315000016E00040084010B483B0EFF30383103B4A4A2E
S315000016F05BB2C03352F823106FF3104142F8231047
S3150000170052F82330EFF30383444A103B5BB252F89E
S31500001710233093F82D20BAB99A69022A1A699EBF16
S31500001720117941F040011171D969012917D00121C0
S31500001730D27CD2B28DF807209DF8072083F82D10B1
S3150000174003B05DF8044B7047DA69002AF8D0032A23
S315000017500ED0022A4ED0012A21D019690DE0117946
S3150000176041F010011171117941F008011171DEE7A4
S3150000177019690A7942F040020A71C87C1A6A5969E5
S315000017808854D3E907210131013AC3E90721002A28
S31500001790D6D119690B7962F386130B71D0E793F8EA
S315000017A02A1089B319681E4C91F90F10480901F0E7
S315000017B01F0102FA01F1203044F82010BFF34F8FC9
S315000017C0BFF36F8F4FF0040C1969C87940F08000A1
S315000017D0C871087940F01000087108796FF3C300EA
S315000017E0087181F801C048796FF30000487183F8E9
S315000017F02C20C2E719690A7942F010020A710A79A7
S3150000180042F008020A71B8E7082019694A7A02F01C
S31500001810F7024A724870B0E70060004054020020A8
S3150000182000E100E0EFF30383103B384A5BB2C033BC
S3150000183052F823106FF3104142F8231052F8233068
S31500001840EFF30383324A103B5BB252F8232092F83F
S315000018502730002B3AD192F82930002B35D1D369A5
S3150000186010B4002B44D11069C179C0236FF3C7119E
S31500001870C17101E0013B02D0C179C909FAD11368EF
S31500001880224A93F9103003F1C00152F821406FF358
S31500001890104442F8214052F82120002B09DB012197
S315000018A05A091C4C03F01F03603201FA03F344F893
S315000018B02230C3795DF8044B43F04003C37170478F
S315000018C0022909D192F8300030B9704792F82610F3
S315000018D0032992F82810F3D092F824C01069013138
S315000018E0013B80F812C082F8281082F82730704732
S315000018F0116AD2E90404645C013B01318474C2E9D3
S315000019000731002BB0D05DF8044B704700600040F3
S315000019105402002000E100E010B4EFF303832D4AE7
S31500001920103B5BB252F8233093F829201AB193F892
S315000019302720012A49D0DA69E2B11969CA79C02398
S315000019406FF38612CA7101E0013B02D0CA795206D2
S31500001950FAD4EFF30383103B1F4A5BB2C03352F84D
S3150000196023106FF3104142F8231052F823305DF82C
S31500001970044B704793F82A10F9B14FF0010C19681F
S31500001980164C91F90F10480901F01F0120300CFA8E
S3150000199001F144F82010BFF34F8FBFF36F8F196921
S315000019A0C87940F08000C87104204870487962F315
S315000019B00000487183F82CC0C0E7082219694B7AE9
S315000019C003F0F7034B724A70B8E793F83020002A09
S315000019D0B1D1B2E7540200200060004000E100E00F
S315000019E038B5EFF30383E021424A103B5BB252F86D
S315000019F0230003695A7A5972D5065FFA82FC02F00F
S31500001A0003042AD55A78510648D4002401250168D2
S31500001A1080F82B50DC71FFF7CDFC826990F82630F8
S31500001A200262B32280F82830036980F82C40C46132
S31500001A3080F82A402946DA71FFF7FEFBEFF30383AD
S31500001A40103B2D4A5BB2C03352F823106FF310419E
S31500001A5042F8231052F8233038BD002CD5D11CF0A3
S31500001A60080F0ED090F82B20002A33D190F82910B9
S31500001A70B322002914BF02210321DA71FFF7DCFB30
S31500001A80DCE790F82C20002AD8D01CF0040FD5D023
S31500001A9090F82B200121002AF0D1E7E7002CB4D1E1
S31500001AA05A78C2F380115206D9D5082480F82B1033
S31500001AB05A7A016802F0F702496A5A725C700A782B
S31500001AC0012A0CBF03220222DA705A7942F001027F
S31500001AD05A71B3E70022B32490F8261080F82C2020
S31500001AE080F828108169C261016280F82A200121EC
S31500001AF0DC71C3E75402002000600040034600206A
S31500001B00D3E902235360704702464FF0010C30B40C
S31500001B1094680C4D626E0C4B62448A60E46A2A6AD1
S31500001B201B6881F800C0C4F3C35CC2F30264A3401F
S31500001B3002F00702D34023FA0CF3002030BC4B60BE
S31500001B40704700BF00E00140E003002030B48C6E17
S31500001B5001342AB1944203D930BC013A1A60704765
S31500001B60029D496B0078ED0754BF01F01F01C1F3D8
S31500001B700441032808D9090981F001016AB9A1B90C
S31500001B8030BC02225A60704701F00C01A1F1040139
S31500001B90B1FA81F14909002AF1D0944201D800290D
S31500001BA0EED130BC03225A607047002CE8D0F8E72B
S31500001BB02DE9F0414FF0FF3C0025064684B0009227
S31500001BC002AB0F46144602F003080A46D0E90101AB
S31500001BD0CDE902C5FFF7BAFFB368039A1D6B5AB980
S31500001BE014F0080F0CBF02210421A0071DD502988E
S31500001BF003EB8101C864086561061ED5196CB8F14E
S31500001C00010F41F48001196406D025F4403545EAF8
S31500001C100245B8F1000F03D025F0407545EA02658C
S31500001C2000201D6304B0BDE8F081414402981231E2
S31500001C3003EB810148606106E0D4B8F1010F12D0D0
S31500001C4025F44035022C45EA0245E2D1002AE3D0CC
S31500001C500120009019463A4602AB7068FFF776FFFE
S31500001C60039AB368D8E7022CD6D1002AD4D0EFE77E
S31500001C70002800DA704710B400F160430901134CE4
S31500001C80C9B203F5614383F80013114B00F1C0019B
S31500001C9044F8202053F821206FF3104243F8212006
S31500001CA053F82130BFF35F8F012243099B0000F0F8
S31500001CB01F0003F1604303F5614302FA00F0C3F825
S31500001CC0800118605DF8044B704700BF5402002085
S31500001CD00060004001222DE9F0410D46097C0446D2
S31500001CE002FA01F3C3601B0714BF002302744FF00E
S31500001CF0000218BF0374814B84B00B4469691B0250
S31500001D0083604560D5E906364161C0E90623EFF3F5
S31500001D10108E4FF0010C8CF310884FF00040784B7A
S31500001D202F7C196920FA07F721EA070119611B6957
S31500001D308EF310884FF42541A368D5F804E01960A6
S31500001D40DA62DA639A6429782F7A03294FEAC75749
S31500001D500EF1FF3800F09880DF6203921861586137
S31500001D6098615A629A624FF0FF32B069F76AD86199
S31500001D70F06902921862C3F86880C3F8648000298B
S31500001D8040F0B180614638464FF0030C4FEA5E02E0
S31500001D90013A02925A659A6500284FD13278002A94
S31500001DA05AD12878B278C2B196F803E002284FEAF1
S31500001DB00E1242EA8E1200F09080032800F09B80FB
S31500001DC0BEF1000F14BF4FF0090E4FF0060E42EAA7
S31500001DD00E0247EA024747F0807700229A63C3F86B
S31500001DE0882096F8212096F820E0520742EA4E32E3
S31500001DF017434FF4AA0201281A6429D0E268DA6070
S31500001E005F63C3F830C019632246697C95F91200F6
S31500001E10FFF72EFF224696F8221096F92400FFF7C8
S31500001E2027FF96F92500224696F82310FFF720FF94
S31500001E300020344B236004B0BDE8F08100229A6391
S31500001E40C3F888204FF4AA0228781A640128D5D14D
S31500001E500022DA641A65D1E796F801E028784FEA9D
S31500001E600E12022842EA8E123AD0032841D0BEF161
S31500001E70000F14BF4FF0090E4FF0060E42EA0E0295
S31500001E80174347F480778DE747F48037DF62039284
S31500001E901861586198615A629A624FF0FF32029255
S31500001EA0B269F76ADA61F2691A62C3F86880C3F840
S31500001EB06480194600230093EA68606802ABFFF766
S31500001EC045FEDDE90220010641EA004141F0030C2E
S31500001ED0A368F06A41F001015CE74FF0090E76E76E
S31500001EE04FF0090ECAE70129E3D138464FF0030C3B
S31500001EF050E78646C2E7864669E700BF901640006F
S31500001F0000400840545047000020054BB3F8843089
S31500001F1003F081031B1A18BF01230B70704700BF23
S31500001F2000E07F4006207047062070470620704775
S31500001F30062070470B46084A10B492E80300074C87
S31500001F4003F1080283E8030094E803005DF8044BFC
S31500001F5082E8030000207047745100007C510000A5
S31500001F60002310B44268036092F91130002B0EDB97
S31500001F700121144C5A0903F01F03203201FA03F31E
S31500001F8044F82230BFF34F8FBFF36F8F42680021B2
S31500001F900D4B197692F913308B420DDB012109485E
S31500001FA05A0903F01F03203201FA03F340F82230E6
S31500001FB0BFF34F8FBFF36F8F0020034B5DF8044BC9
S31500001FC01875704700E100E000E07F40844600207D
S31500001FD0CCE90F32CCF83810704700BFF0B50121BC
S31500001FE000243A4B80F83440394A83F81614844664
S31500001FF0186A11681B6AC0F3026201FA02F2354DD3
S31500002000C0F30270C3F30263C2409940AA4221FAA8
S3150000201003F157D9304802F5742202F23F2201F546
S315000020207423A0FB021203F23F23A0FB0313920CBE
S315000020302A4902F5F052A1F8E42043F6B8512046A9
S3150000204044F2506440F6D8665425254F9B0C03FB9A
S3150000205007F7244A03FB01F1A2FB07E7BF08CCF808
S315000020601870A2FB017103FB04F48908CCF8081070
S315000020701D49A2FB047403FB01F1A408CCF824401B
S31500002080A2FB01418908CCF82010184903FB06F68B
S3150000209003FB01F103FB05F55B00A2FB0676A2FB41
S315000020A00575A2FB0343A2FB0112B608AD089B0807
S315000020B09208CCF80C60CCF81450CCF81030CCF860
S315000020C01C20F0BD4FF4FB70F0BD00BF00E00140E6
S315000020D0E0030020FF083D0083DE1B4300E07F4055
S315000020E038AF0400ABAAAAAA80DE0F00A0F703004F
S315000020F0FFF774BF4FF42A431D49B1F884C0A1F815
S315000021008430B1F884001FFA8CFC80B268B14FF4B9
S315000021109642002003E0002A08BF4FF4FA70B1F897
S315000021208430013A9BB2002BF5D1BCF1010F0AD0E5
S31500002130BCF1800F00D0704701230E4A53605368EC
S31500002140002BFCD170474DF60111094B0A4AA3F842
S315000021504410A2F804C1B2F804319BB2002BFAD1A4
S3150000216001230449A2F800318B600B60704700BF61
S3150000217000E07F400070004000C00140F0B482B033
S3150000218081B9012443682A4D93F911305A0903F0A5
S315000021901F03203204FA03F345F82230BFF34F8FB2
S315000021A0BFF36F8FE8220223C56A224C224E2563B5
S315000021B0856A0769327005F1040C33702B88019724
S315000021C0338003E0019B5A1E019203B3D4F880309A
S315000021D05B05F7D4C36A02350233C362036B6545F8
S315000021E003F1FF3385620363E8D1D022124B1A70E4
S315000021F089B1D4F880301A0407D40E4A00E031B110
S31500002200D2F8803001391B04F9D5002000E01420F3
S3150000221002B0F0BC7047436893F91130012203F015
S315000022201F0403485B09A24040F823200846EFE755
S3150000223000E100E000E07F4000007E40062070479D
S315000022400B782DE9F0410446416053B9324A1376C2
S3150000225013752046FFF7C2FE08B9304B2360BDE870
S31500002260F081002701204B68DFF8ACE0A363CB6860
S31500002270E76323648EF818000A7C91F91130284E22
S31500002280DFF8A4C01201274D06EB0308D2B288F886
S31500002290002303F1C0024CF8234055F8228067F36F
S315000022A0104845F8228055F82220BFF35F8F5A095F
S315000022B0920003F01F0302F1604200FA03F302F5F5
S315000022C06142C2F88031136098238EF814308B7CFB
S315000022D091F913201B01DBB2164486F8003302F194
S315000022E0C0034CF8224055F8231067F3104145F817
S315000022F0231055F82330BFF35F8F53099B0002F07C
S315000023001F0203F1604300FA02F203F56143C3F8CA
S3150000231080211A609DE700BF00E07F404E45504F88
S3150000232000E100E000600040540200204FF49643B4
S3150000233010B483B0019343681A7802BB4AF680232F
S315000023402C4AA2F88430B2F884309BB2802B08D194
S3150000235010E0019B013B0193B2F884309BB2802BC5
S3150000236008D0019B002BF4D14FF4FA7003B05DF84E
S31500002370044B7047002003B05DF8044B704793F997
S3150000238011301D4A03F1C00152F821406FF3104489
S3150000239042F8214052F82110BFF35F8F012103F06C
S315000023A01F045B099B0003F1604303F5614301FAD7
S315000023B004F4C3F880411C60436893F9130000F1EC
S315000023C0C00352F823406FF3104442F8234052F8FA
S315000023D02330BFF35F8F43099B0000F01F0203F118
S315000023E0604301FA02F203F56143C3F880211A60E3
S315000023F0A4E700BF00E07F4000600040F0B5002485
S315000024005B0880F83440C0E90A1283B003630546CE
S31500002410FFF78CFF044600BB6B681B7803BBEF68B5
S31500002420274E39462846FFF7A9FE6B6804461B78F7
S315000024309BB9327CD20634D4D6F88030DB0414D46F
S31500002440B0B92B6B002BECD103B0BDE8F040FFF721
S3150000245051BE1B4B1B7CFFF74DFE204603B0F0BD63
S315000024600123074685F83430DAE7002C08BF182424
S31500002470B3214FF49640134B114A01901970D2F8CC
S3150000248080301904E5D406E0019B013B0193D2F8A4
S3150000249080301B04DDD4019B002BF5D1FFF72AFE0B
S315000024A0DBE7D6F88020550401D5327C3374D6F8A4
S315000024B08030D804D9D4002CDAD140F2F514D7E70D
S315000024C000E07F4000007E4000232DE9F04321F02C
S315000024D03F0183B080F83430816202630746FFF71C
S315000024E025FF002840F085807B6893F800E0BEF168
S315000024F0000F4CD1786A01234FF020094FF0D00825
S315000025003F49DFF800C1BC6A3E6BA1F8E0300C63BE
S31500002510013E8CF8009040348CF8008060B1D1F810
S3150000252080301B0408D4034601E0002B4ED0D1F8BE
S315000025308020013B1504F8D50025BEF1000F49D1D6
S315000025400B7CDA062AD4D1F880309B0438D4002DCF
S3150000255046D0BC623E63B3214FF49640294B284ACD
S3150000256001901970D2F88030190407D513E0019B49
S31500002570013B0193D2F880301B040CD4019B002B45
S31500002580F5D1FFF7B7FD284603B0BDE8F083022377
S3150000259087F83430AFE71A4B1B7CF2E7BC623E6328
S315000025A0D1F880305C0402D50B7C81F810E0D1F8BC
S315000025B08030980406D4002DCDD140F2F515CAE737
S315000025C0BC623E63002D08BF1925C4E71425BEF181
S315000025D0000FB5D02846BC623E6303B0BDE8F08369
S315000025E0002E94D1BC623E6303B0BDE8F043FFF712
S315000025F081BD4FF4FA75284603B0BDE8F08300BFED
S3150000260000E07F4000007E402DE9F04383B0814624
S31500002610884616461F46FFF789FE0546002841D123
S315000026204FF0710CD020D9F80430424C1A78711E44
S31500002630414B414484F8D050C4F83080616383F83C
S3150000264000C0187092BBD4F88030D9F81410B208C4
S31500002650180402FB011205D48AB3D4F88010013A9B
S315000026600904F9D5334B1A7CD20646D4D3F8802018
S3150000267093F8D430A3F10103B3FA83F35B093B70FB
S3150000268003B0BDE8F043FFF735BD2A4B1B7C294B51
S3150000269093F8D430A3F10103B3FA83F35B093B70DB
S315000026A0FFF728FD284603B0BDE8F0830322022386
S315000026B0284689F834203B7003B0BDE8F0831D4BF3
S315000026C01A7CD20622D41425D3F880304FF49640D3
S315000026D0B322194B174901901A70D1F880301C04A7
S315000026E0D3D406E0019A013A0192D1F88030180459
S315000026F0CBD4019B002BF5D1C9E7D3F88020550434
S315000027000FD440F2F515D3F88030DFE7D3F88020F8
S315000027105604D8D50022197C1A741425D3F88030B3
S31500002720D4E70022197C1A7440F2F515D3F88030EC
S31500002730CCE700BF00E07F4000007E4030B5436834
S3150000274004461A7883B0F2B1012293F911303E485B
S31500002750590903F01F03203102FA03F340F8213030
S31500002760BFF34F8FBFF36F8F636893F91330590927
S3150000277003F01F039A4001F1200340F82320BFF322
S315000027804F8FBFF36F8F314BB3F884309BB2002B62
S315000027904FD04FF49640B3212D4B2C4A019019701F
S315000027A0D2F880301B040CD406E0019B013B019358
S315000027B0D2F880301D0404D4019B002BF5D11425DA
S315000027C007E0224B40F2F5151B7C13F0100F08BFF3
S315000027D000254FF4964050211D4B1C4A009019705D
S315000027E0D2F88030180415D406E0009B013B009314
S315000027F0D2F8803019040DD4009B002BF5D1002DA2
S3150000280008BF1425FFF776FC0023284684F83430E9
S3150000281003B030BD0D4B1B7CDB060ED4002DF1D171
S31500002820FFF768FC05460023284684F8343003B0D9
S3150000283030BD2046FFF77AFDABE7002DE2D1FFF76A
S3150000284059FC40F2F515DFE700E100E000E07F40CB
S3150000285000007E40FFF772BF064B074993F826003B
S315000028601A6A51F82030C2F302620449D3400B6061
S31500002870704700BF00E001408C000020E00300200C
S31500002880F8B54AF2035001233749384AA1F8FE0346
S31500002890A2F80431B2F804319BB2002BFAD101211F
S315000028A04FF400454FF0090C314CDFF8DCE0314EB7
S315000028B0C4F804E0DFF8D4E02B48C4F80CE02E4F4F
S315000028C0A2F800112D4AB16031606261276090F86C
S315000028D02620A5602561056A54F82220C5F3026505
S315000028E0EA40274D2A6080F8133480F8A2C090F899
S315000028F0803493B300231C4981F8813481F88034F5
S3150000290081F8323091F83C301A07FBD543F20210B9
S315000029100023154A088581F82A3092F83C309B0638
S31500002920FBD503200523114981F81C011549012017
S31500002930116282F8263092F82630116A54F8233054
S31500002940C1F30261CB402B604FF4254382F830007F
S3150000295082F85200A2F8FE33F8BD80F8801440F2E7
S31500002960C44000F04BF8C5E700E0014000C001405C
S315000029708C00002000700040002D310100C2EB0BDE
S31500002980E00300202112012000127A0000366E01B9
S3150000299038B50025134C0121C82084F8285000F0D2
S315000029A02DF884F8245094F82430002BFBD194F8A9
S315000029B024300C4A43F0020384F8243092F8243081
S315000029C0C3F340049B07F9D4012082F8224000F0AB
S315000029D0E5F8054B012083F8BB44BDE8384000F01C
S315000029E0ADB800BF0030084000E00140704700BFAE
S315000029F0A0F101000028FBD1704700BF10B54FF4CD
S31500002A007A72164C164B24684FF0000EB3FBF4FC9A
S31500002A104FF0FF3300FB01F1A1FB020483427EEB82
S31500002A20040407D3B0FBFCF0800880B1BDE8104079
S31500002A30FFF7DEBF4FEA8C0CB1FBFCF1A1FB0212E3
S31500002A408B427EEB020203D308460028EED110BD6E
S31500002A501846BDE81040FFF7CBBF00BFE0030020DB
S31500002A6000CA9A3B70B500240A4B0B4EB3F840518E
S31500002A70ADB225FA04F3DB07E0B203D556F82430ED
S31500002A8003B198470134102CF3D1024BA3F830510F
S31500002A9070BD00BF006000401002002030B56FF02E
S31500002AA0FF0585B0032000F079F84FF0FF311F4C89
S31500002AB01F482246856400230125CDE901110391B3
S31500002AC004F1C00E32F8020F590960B104A800EBF8
S31500002AD0810151F80C0C03F01F0C05FA0CFC20EADE
S31500002AE00C0041F80C0C724503F10103EAD101997F
S31500002AF0104B0F4A03201167C3F8801202995167E1
S31500002B00C3F8841203999167C3F8881200F016F887
S31500002B100023094803F1C00234F8021F0133602B79
S31500002B2040F82210F6D105B030BD00BF02500000BB
S31500002B300080004000E100E000600040EFF31081FB
S31500002B40012383F31088124B33F8102092B22AB176
S31500002B5033F81020013A92B223F8102033F81030DF
S31500002B609BB293B90B4A10B4B2F8FE330A4C9BB22F
S31500002B7034F8100043F4254323EA0003A2F8FE3399
S31500002B8081F310885DF8044B704781F31088704715
S31500002B90D403002000E00140C051000030B4EFF340
S31500002BA01081012383F310880E4A32F810309BB24D
S31500002BB06BB90D4C0D4DB4F8FE3335F810C09BB211
S31500002BC043EA0C0343F425439BB2A4F8FE3332F8E0
S31500002BD0103001339BB222F8103081F3108830BCDC
S31500002BE0704700BFD403002000E00140C051000040
S31500002BF00D4908B50A6803464AB103330B4823F06A
S31500002C0003031344834206D810460B6008BD0848E8
S31500002C1002460860F1E700F0EFFF0C234FF0FF32A9
S31500002C200360104608BD00BFDC03002078240020A6
S31500002C307804002000BE704708B500F003F8FDF7E1
S31500002C4057FDFEE74FF4700270B5254B254CC3F8CF
S31500002C50882000209C60FDF73FFDFFF711FE012054
S31500002C60FDF73AFD2368A3F5805383F30A881E48CF
S31500002C701E4A0021121A01F08AF91D481D4A1E49F2
S31500002C80121A01F077F91D4D1D4B5B1B002B07DD5A
S31500002C9000249E1055F8043B01349847A642F9DCFF
S31500002CA0FFF7DAFDFFF774FE0320FFF777FF002337
S31500002CB04FF6FF70134903F108020133092B21F87F
S31500002CC01200F8D10320FFF739FF0220FDF704FDBB
S31500002CD0FFF7E4FEBDE870400020FFF787BE00BFA7
S31500002CE000ED00E000000000A800002078040020AD
S31500002CF0000000208C000020085400008400002002
S31500002D0088000020000D0840094B70B59C681D68BE
S31500002D1022682846596890470E2800D038B92846B8
S31500002D20A3688022BDE870404FF00061184770BD6F
S31500002D30D44D0000002833D02DE9F0410C4684B074
S31500002D4051B38E1CF600B6F5005F21D80546FFF795
S31500002D50DBFFF0B94FF0010C124B134A1F680294C7
S31500002D609C680390D4F80480009210234FF0006210
S31500002D7038466946CDF804C0C04750B9294638469A
S31500002D8064680A4AA6F11003A04704B0BDE8F081C2
S31500002D90172004B0BDE8F081032004B0BDE8F0813F
S31500002DA003207047D44D00004D43524110000008E7
S31500002DB0F0B138B5154672B10B4661B14FF00062FD
S31500002DC00C4914688C4202D15168012905D00023B0
S31500002DD022202B6038BD032038BD946806499C42EA
S31500002DE028BF1C46E20001F0C5F800202C6038BD63
S31500002DF0032070474D4352411000000870B58446C9
S31500002E000E460023164A82B09168164D10688C68EB
S31500002E108DF80560022201A98DF804C02B70A04729
S31500002E20064610B1304602B070BDC82406E04FF425
S31500002E307A710120FFF7E2FD013C0FD02B78002BC1
S31500002E40F5D000222B782A70032BD9B2EAD00129BB
S31500002E500CBF12266426304602B070BD1426E1E788
S31500002E60F44D0000E403002000232DE9F0472B4D2C
S31500002E702B4C2B700123D4F80090D4F8088082B034
S31500002E808DF807000E46174648461A46D8F80840F9
S31500002E900DF10701A047824618B1504602B0BDE8C1
S31500002EA0F087C82406E04FF47A710120FFF7A6FDEB
S31500002EB0013C2FD02B78002BF5D000232A782B70DD
S31500002EC0032AD1B209D001290CBF4FF0120A4FF0E4
S31500002ED0640A504602B0BDE8F0873A463146484695
S31500002EE0D8F804402B70A04782460028D5D1C824C4
S31500002EF006E04FF47A710120FFF780FD013C09D00E
S31500002F002B78002BF5D000222B782A70022BD9B211
S31500002F10D9D1C2E74FF0140ABFE700BFE40300208F
S31500002F20F44D0000014B1870704700BFE403002009
S31500002F3008B5144BD3E9011218681268904710B10E
S31500002F400E2800D008BD00216B20FFF757FF002890
S31500002F50F8D107211920FFF751FF0028F2D10621E9
S31500002F601A20FFF74BFF0028ECD101461B20FFF784
S31500002F7045FF0028E6D1BDE8084001461C20FFF7C2
S31500002F803DBF00BFF44D0000014618B10122752077
S31500002F90FFF76ABF0120704730B310B584B004460E
S31500002FA00E223B206946FFF75FFFD8B9BDF8023015
S31500002FB0BDF800105BBABDF804206380BDF806308A
S31500002FC049BA52BA5BBA2180A280BDF80810BDF892
S31500002FD00A20E380BDF80C3049BA52BA5BBA2181A7
S31500002FE06281A38104B010BD0120704730B54F49FE
S31500002FF085B04F48FEF76EFE4E494F48FEF76AFE13
S315000030004E494F48FEF766FE01A94948FEF77CFD8A
S315000030104C4C03994C48216001F0A2F84448FEF755
S315000030206DFD4548FEF76AFD4548FEF767FD5A22E5
S3150000303040F2DC50454B21681A60A1FB000144F6C2
S315000030402062002300F048FC012201463848FEF7C2
S31500003050AFFD002855D15A2240F2DC503C4B216886
S315000030601A60A1FB000144F62062002300F034FC44
S31500003070002201462E48FEF79BFD002851D15A2218
S3150000308040F2DC50334B21681A60A1FB000144F684
S315000030902062002300F020FC012201462648FEF7AC
S315000030A087FD002839D15A2240F2DC502A4B21688C
S315000030B01A60A1FB000144F62062002300F00CFC1C
S315000030C0002201461C48FEF773FD10BB40F2DC509F
S315000030D05A252168214C44F620620023A1FB0001F9
S315000030E0256000F0F9FB012201461548FEF760FD58
S315000030F058B95A221A4B1B481A6001F0B7F805B0A6
S3150000310030BD194801F0B2F8A5E7184801F0AEF84D
S31500003110EFE7174801F0AAF8D8E7164801F0A6F835
S31500003120C1E7124801F0A2F8A9E700BF304E00003F
S3150000313050010020804E000070010020D04E00009B
S3150000314090010020E8030020C85100001000002074
S315000031500C00002014000020180000201C00002095
S31500003160080000206C520000EC5100000C520000D8
S315000031704C5200002C520000B42828BFB42038B5A9
S315000031804FF4FA630F49104A0C6803FB00F18908F3
S31500003190A2FB01310D4D890801F5FA7144F6206252
S315000031A028600023A1FB040100F096FB00220146E3
S315000031B00748FEF7FDFC00B938BD0648BDE83840B3
S315000031C001F054B8E8030020176CC1160C0000206B
S315000031D0500100200C520000B42828BFB42038B596
S315000031E04FF4FA630F49104A0C6803FB00F1890893
S315000031F0A2FB01310D4D890801F5FA7144F62062F2
S3150000320028600023A1FB040100F066FB01220146B1
S315000032100748FEF7CDFC00B938BD0648BDE8384082
S3150000322001F024B8E8030020176CC1161000002036
S3150000323050010020EC510000B42828BFB42038B556
S315000032404FF4FA630F49104A0C6803FB00F1890832
S31500003250A2FB01310D4D890801F5FA7144F6206291
S3150000326028600023A1FB040100F036FB0122014681
S315000032700748FEF79DFC00B938BD0648BDE8384052
S3150000328000F0F4BFE8030020176CC11614000020FC
S31500003290700100202C520000B42828BFB42038B595
S315000032A04FF4FA630F49104A0C6803FB00F18908D2
S315000032B0A2FB01310D4D890801F5FA7144F6206231
S315000032C028600023A1FB040100F006FB0022014652
S315000032D00748FEF76DFC00B938BD0648BDE8384022
S315000032E000F0C4BFE8030020176CC11618000020C8
S315000032F0700100204C520000B42828BFB42038B515
S315000033004FF4FA630F49104A0C6803FB00F1890871
S31500003310A2FB01310D4D890801F5FA7144F62062D0
S3150000332028600023A1FB040100F0D6FA0122014621
S315000033300748FEF73DFC00B938BD0648BDE83840F1
S3150000334000F094BFE8030020176CC1161C00002093
S31500003350900100200C520000014B1868704700BF16
S3150000336010000020B42828BFB4202DE9F0412B4FCF
S315000033703A68824242D005460B460E461146024640
S31500003380274800F0EDFE3C68AC421ED2DFF8A48070
S315000033900DE02046FFF720FF4FF47A7130463C607F
S315000033A0FFF72CFBAC4204F1010320D01C4698F831
S315000033B00030002BEDD021461A4800F0D1FE002344
S315000033C03C6088F80030BDE8F08110D9DFF86480F1
S315000033D098F80030C3B92046FFF7FEFE3C604FF474
S315000033E07A713046013CFFF709FBA542F0D9294620
S315000033F03D600D48BDE8F04100F0B2BE1146BDE8A3
S31500003400F0410A4800F0ACBE2146094800F0A8FE8B
S3150000341000233C6088F80030D5E700BF0800002094
S31500003420B0520000E45200003853000090520000F1
S315000034300C530000E50300201E215A20FFF792BF1F
S315000034401E21B420FFF78EBF0122014B1A70704770
S31500003450E5030020014B1878704700BFE503002004
S31500003460014B1878704700BF31040020054A1378D5
S3150000347003F0FF0023B101201378013BDBB2137088
S31500003480704700BF32040020054A137803F0FF009E
S3150000349023B101201378013BDBB21370704700BFE4
S315000034A037040020054A137803F0FF0023B10120FA
S315000034B01378013BDBB21370704700BF3304002062
S315000034C0054A137803F0FF0023B101201378013B6E
S315000034D0DBB21370704700BF3504002070B50E4C88
S315000034E006462378532B12D02378732B0FD00B4D1F
S315000034F026702A880A4B92B21988531C03F03F03A0
S3150000350089B2994202D007498E542B8070BD0A2E8B
S31500003510EDD1FFF799FFEAE7380400202C040020DC
S315000035202E040020EC0300202DE9F84FDFF898A1C7
S31500003530534C9AF800E0534D534E544FDFF88C81AC
S31500003540DFF88C91F4460021DFF844B123882A88FD
S315000035509BB292B2581C934200F03F0043D0F35CFA
S3150000356020800D2BDAB2F1D0BCF11E0F06D8012156
S315000035700CEB01030BF80C205FFA83FC0A2AE5D159
S31500003580002945D08AF800C00022414B03F80C20E0
S315000035901A68BA422CD01A6842453BD01A684A4586
S315000035A043D03C4A196891424AD03B4A1968914235
S315000035B04ED03A4A1968914257D01A6838498A4219
S315000035C01BD19B880A2B18D100210122354B19707B
S315000035D0354B1A70354A1378F92B0ED81378013308
S315000035E0DBB2137009E009B18AF800C0BDE8F88FB4
S315000035F09A880A2ACFD1FFF71FFF4FF0000B20222F
S31500003600594623488AF800B000F0C1FCDE4699E727
S31500003610F446B9E7264A274910688842BED112798E
S31500003620002ABBD1FFF70CFFE7E71A79002AB8D1C9
S315000036300122214B1A70214A1378F92BCED9DCE7E7
S315000036401A79002AB1D11C4B1A701C4B1A70D4E798
S315000036501A79002AADD10121134B1A70114B184A61
S3150000366019701378F92BC8D8B8E71A79002AA4D1AB
S315000036700C4B1A70134A1378F92BBED8AEE700BF6D
S315000036802E0400202C040020EC0300204752495051
S315000036903C040020436F6D0A5265630A456E640A56
S315000036A0506C617936040020340400203504002073
S315000036B0400400204153450A310400203204002012
S315000036C037040020330400205C04002052454C459A
S315000036D0666F720A2DE9F047002682460D46184BA2
S315000036E0184CD3F808801F68DFF8609082B02A462D
S315000036F051463846D8F808302660984788B10828D9
S315000037000CD1CDF8049003E0019B5A1E019213B12F
S315000037102368002BF8D0019B002BE8D102B0BDE84E
S31500003720F087094B019303E0019B5A1E019213B1E6
S315000037302368002BF8D00023236002B0BDE8F08791
S31500003740544F0000640400208096980040420F0009
S315000037500D4B10B5D3E9011218681268904718B1DD
S31500003760044600BE204610BD08490948FDF7D4F8B6
S315000037700446012207490648FDF726F8002CF1D039
S3150000378000BE204610BD00BF544F0000204F000071
S31500003790B0010020300400200379022B04D0802BD6
S315000037A002D0012B04D070470122034B1A607047E8
S315000037B0024A1360704700BF6404002060040020C2
S315000037C038B50479012C00D038BD054D2878FFF7AF
S315000037D085FE22462946BDE838400248FCF7F4BF7C
S315000037E030040020B0010020F0B583B029B3002AD0
S315000037F0164622DD551E0D274C1E0D4406E00121FE
S315000038000DF10600FFF766FFA54213D014F8013F3D
S315000038100A2B8DF80630F2D101210DF107008DF843
S315000038200770FFF757FF01210DF10600FFF752FF62
S31500003830A542EBD1304603B0F0BD0026304603B0BA
S31500003840F0BD00BF2DE9F041884682B069B3002A79
S315000038502BDD00251E4B1F4C9F681E688DF80450FB
S3150000386001E0082825D1012230467B6801A92560A0
S3150000387098470028F5D12368002BFCD000229DF83C
S31500003880043022600D2B8DF8033014D140F60D2341
S3150000389001A80221ADF80430FFF71CFF0A2301201E
S315000038A088F8003002B0BDE8F081002002B0BDE823
S315000038B0F0818DF803500DF103000121FFF70AFF97
S315000038C001209DF8033088F8003002B0BDE8F08191
S315000038D0544F00006004002053B94AB9002908BFBC
S315000038E000281CBF4FF0FF314FF0FF3000F082B9C7
S315000038F0ADF1080C6DE904CE00F006F8DDF804E041
S31500003900DDE9022304B070472DE9F04F099D044616
S315000039100F46002B48D18A42944661D9B2FA82F307
S3150000392043B1C3F120019F4002FA03FC9C4020FAF8
S3150000393001F10F434FEA1C411FFA8CFE220CB7FB24
S31500003940F1F601FB167706FB0EF042EA07429042BB
S3150000395008D91CEB020206F1FF3702D2904200F2B0
S3150000396037813E46121AA4B2B2FBF1F001FB1022D7
S3150000397000FB0EFE44EA0244A64508D91CEB0404EB
S3150000398000F1FF3202D2A64500F21C81104640EA41
S315000039900640A4EB0E0400261DB1DC400023C5E959
S315000039A000433146BDE8F08F8B4209D9002D00F067
S315000039B0FD800026C5E9000130463146BDE8F08F9E
S315000039C0B3FA83F6002E4BD18B42C0F0F2808242CE
S315000039D040F2EF803046002DE3D0C5E90047E0E72E
S315000039E002B9FFDEB2FA82F3002B40F09D80891AFD
S315000039F04FEA124E97B20126200CB1FBFEF20EFBE7
S31500003A00121140EA014107FB02F088420FD91CEB74
S31500003A10010102F1FF382CBF4FF001094FF00009F8
S31500003A20884203D9B9F1000F00F0CF804246091A47
S31500003A30A4B2B1FBFEF00EFB101100FB07F744EA3F
S31500003A400144A74208D91CEB040400F1FF3102D25D
S31500003A50A74200F2B4800846E41B40EA02409BE716
S31500003A60C6F12007B34001FA06F422FA07FCF94032
S31500003A70B2404CEA030C20FA07F34FEA1C491C43F8
S31500003A801FFA8CFE00FA06F3200CB1FBF9F809FBCD
S31500003A90181140EA014108FB0EF088420FD91CEBD1
S31500003AA0010108F1FF3A2CBF4FF0010B4FF0000B5C
S31500003AB0884203D9BBF1000F00F08D80D046091A69
S31500003AC0A4B2B1FBF9F009FB101100FB0EFE44EAAB
S31500003AD001418E4507D91CEB010100F1FF3401D2EB
S31500003AE08E457FD8204640EA0840A1EB0E01A0FB98
S31500003AF0029841454C46C64602D306D14B4504D2F0
S31500003B000138B9EB020468EB0C0E002D70D01A1BBD
S31500003B1061EB0E0122FA06F301FA07F7F1400026DF
S31500003B201F43C5E900713CE702FA03FCC3F120001C
S31500003B3001FA03F221FA00F64FEA1C4E24FA00F1CC
S31500003B401FFA8CF79C401143B6FBFEF00A0C0EFBE5
S31500003B50106642EA064200FB07F696420ED91CEBB7
S31500003B60020200F1FF382CBF4FF001094FF00009A7
S31500003B70964202D9B9F1000F31D04046921B89B264
S31500003B80B2FBFEF60EFB162241EA024106FB07F2E5
S31500003B908A4207D91CEB010106F1FF3801D28A429D
S31500003BA023D84646891A46EA004625E72E46284681
S31500003BB0F7E6841A61EB030301201F460BE7644412
S31500003BC0023849E764440238E1E6023A61442EE7E6
S31500003BD0023E6244C6E6A8F1020861446FE7023875
S31500003BE06244CBE7023861447DE7023E6144D9E78F
S31500003BF02E46D6E6704700BF014B1868704700BFD7
S31500003C00200000208A892DE9F041054610070C4660
S31500003C1058D44B68002B05DC0B6C002B02DC002013
S31500003C20BDE8F081E66A002EF9D0002312F4805236
S31500003C302F682B6032D0606DA3895A0705D563685B
S31500003C40C01A636B0BB1236CC01A00230246E66AE6
S31500003C502846216AB047431CA38906D129681D2935
S31500003C602CD8294ACA40D60728D50022D904626032
S31500003C702269226004D5421C01D12B6803B9606514
S31500003C80616B2F600029CAD004F14403994202D027
S31500003C90284600F085F900206063C1E7216A012308
S31500003CA02846B047411CC7D12B68002BC4D01D2B1A
S31500003CB001D0162B01D12F60B1E7A38943F0400351
S31500003CC0A381ADE70F69002FA9D093070E680F6097
S31500003CD00CBF4B690023A6EB07088B60B8F1000FF9
S31500003CE09DDD43463A46216A2846A66AB047002823
S31500003CF006DCA3894FF0FF3043F04003A3818FE732
S31500003D000744A8EB0008E9E70100402038B50B6935
S31500003D1005460C4613B90025284638BD18B18369F7
S31500003D200BB900F087F8144B9C421BD16C68B4F9B0
S31500003D300C30002BEFD0626ED00704D4990502D464
S31500003D40A06D00F015F928462146FFF75BFF636E6C
S31500003D500546DA07E0D4A3899B05DDD4A06D00F003
S31500003D6008F9D9E7054B9C4201D1AC68DFE7044B63
S31500003D709C4208BFEC68DAE784530000A4530000B5
S31500003D8064530000002310B5044683608181194600
S31500003D904366C28108228361C0E90033C0E9043367
S31500003DA05C3000F0F4F8054B24626362044BA362B6
S31500003DB0044BE362044B236310BD00BF9D42000029
S31500003DC0BF420000F74200001B430000014900F01B
S31500003DD0AFB800BF0D3D000070B568224D1E0E46FF
S31500003DE0554305F1740100F047F9044640B100213E
S31500003DF005F16802C0E900160C30A06000F0C7F8B3
S31500003E00204670BD014800F0B3B800BF6904002029
S31500003E10014800F0AEB800BF69040020014800F078
S31500003E20A7B800BF6A040020014800F0A2B800BF8E
S31500003E306A04002010B50446FFF7F0FFA3691BB122
S31500003E40BDE81040FFF7F0BFC4E9123323652046F2
S31500003E50124B134A1B68A262A34204BF0123A3614B
S31500003E6000F020F86060204600F01CF8A0602046B4
S31500003E7000F018F800220421E0606068FFF782FF76
S31500003E8001220921A068FFF77DFF02221221E068C6
S31500003E90FFF778FF0123A361D2E700BFC4530000F8
S31500003EA0CD3D0000F8B50746FFF7ACFF1E4B1E6878
S31500003EB0B36913B93046FFF7BDFF4836D6E901347A
S31500003EC0013B03D533680BB33668F7E7B4F90C50FA
S31500003ED0D5B9164B04F158006566E36000F047F863
S31500003EE0FFF796FF0822294604F15C002560A561CC
S31500003EF0C4E90155C4E9045500F049F8C4E90D5573
S31500003F00C4E912552046F8BD6834D9E7042138467D
S31500003F10FFF762FF044630600028D5D1FFF778FF2F
S31500003F200C233B60EEE700BFC45300000100FFFF17
S31500003F302DE9F8430646884600F148040027D4E9EF
S31500003F400195B9F1010905D52468002CF7D1384649
S31500003F50BDE8F883AB89012B07D9B5F90E300133DB
S31500003F6003D029463046C04707436835E9E770471E
S31500003F70704770470A44431E914200D1704710B5FE
S31500003F8011F8014B914203F8014FF9D110BD0244DB
S31500003F900346934200D1704703F8011BF9E7FFFF80
S31500003FA037B5002943D051F8043C0C1F0190002B73
S31500003FB0B8BFE41800F010FB1E4A0198136833B925
S31500003FC06360146003B0BDE8304000F00BBBA34251
S31500003FD008D9256861198B4201BF19685B684919C0
S31500003FE02160EDE71A465B680BB1A342FAD9116866
S31500003FF05518A5420BD12468214454181160A342D8
S31500004000E0D11C685B68214453601160DAE702D98D
S315000040100C230360D6E7256861198B4202BF196835
S315000040205B684919636008BF21605460CAE703B042
S3150000403030BD00BF6C04002070B50E4E0C46054620
S31500004040316811B900F01AF930602146284600F0AF
S3150000405015F9431C0AD0C41C24F00304A04207D05F
S31500004060211A284600F00AF9013001D14FF0FF3439
S31500004070204670BD700400202DE9F041CD1C074696
S3150000408025F0030508350C2D38BF0C25002D01DB66
S31500004090A94205D90C2300263B603046BDE8F081D5
S315000040A02E4E00F099FA33681C4634BB2946384632
S315000040B0FFF7C2FF431C04464DD134682646002E46
S315000040C040D123683146384604EB030800F0D6F8A1
S315000040D080453AD12168033538466D1A25F0030527
S315000040E008350C2D38BF0C252946FFF7A5FF0130F2
S315000040F02BD023682B4423600EE02268521B1ED46B
S315000041000B2A16D96119A342256018BF5960636846
S3150000411008BF316062514B6004F10B06384600F06F
S3150000412061FA231D26F00706F21AB6D09B1BA35090
S31500004130B3E76268A3420CBF32605A60ECE72346DD
S315000041406468B2E734467668B9E70C2338463B60C4
S3150000415000F048FAA1E72560DEE700BF6C04002006
S315000041600FB40A4B13B51C6824B1A36913B92046D2
S31500004170FFF760FE05AB049AA1682046019300F0A4
S3150000418061FA02B0BDE8104004B07047200000207C
S3150000419070B50E46054618B183690BB9FFF74AFE9E
S315000041A0AB69AC6813B92846FFF744FE2C4B9C421A
S315000041B020D16C68636EDB0705D4A389980502D409
S315000041C0A06DFFF7D5FEA38919071DD52369DBB1BD
S315000041D0013EA36816F8011F013BA36039BB002B03
S315000041E038DA22460A21284600F09CF8013011D020
S315000041F00A2511E01B4B9C4201D1AC68DAE71A4B49
S315000042009C4208BFEC68D5E72146284600F0EEF848
S315000042100028DDD04FF0FF35636EDA0705D4A38999
S315000042209B0502D4A06DFFF7A4FE284670BD002BA7
S3150000423004DAA2699A4206DC0A2904D023685A1CC9
S3150000424022601970C5E72246284600F06BF8013057
S31500004250BFD1DFE723680A255A1C22601D70DBE701
S3150000426084530000A453000064530000024B01462F
S315000042701868FFF78DBF00BF2000002038B5002367
S31500004280054D044608462B60FEF7B2FC431C02D1DE
S315000042902B6803B1236038BD7404002010B50C46AA
S315000042A0B1F90E1000F094FC0028ABBF636DA38932
S315000042B01B1823F48053ACBF6365A38110BD2DE9A1
S315000042C0F0411F468B8905460C46DB05164605D58B
S315000042D002230022B1F90E1000F006F9A389324636
S315000042E0B4F90E10284623F48053A3813B46BDE85B
S315000042F0F04100F069B810B50C46B1F90E1000F0A7
S31500004300F3F8431CA38915BF606523F4805343F477
S315000043108053A38118BFA38110BDB1F90E1000F020
S31500004320D3B8FFFFF8B50E461446054618B18369A3
S315000043300BB9FFF77FFD214B9C422BD16C68A3691B
S31500004340A360A3891A072FD523696BB32369F6B235
S3150000435020683746C01A6369834204DC2146284632
S31500004360FFF7D4FC30BBA3680130013BA360236890
S315000043705A1C22601E706369834204D0A389DB073E
S3150000438006D50A2E04D121462846FFF7BFFC88B978
S315000043903846F8BD0A4B9C4201D1AC68CFE7094BC1
S315000043A09C4208BFEC68CAE72146284600F01EF882
S315000043B00028CBD04FF0FF37EAE700BF8453000058
S315000043C0A45300006453000038B50446064D084661
S315000043D0114600222A601A46FFF706FA431C02D14C
S315000043E02B6803B1236038BD74040020324B70B5CE
S315000043F01D6806460C4625B1AB6913B92846FFF77A
S3150000440019FD2E4B9C420FD16C68A389B4F90C2080
S3150000441019072CD4DD0611D40923336042F040037A
S315000044204FF0FF30A3813EE0254B9C4201D1AC68A2
S31500004430EBE7244B9C4208BFEC68E6E7580712D529
S31500004440616B41B104F14403994202D03046FFF753
S31500004450A7FD00236363A38923F02403A38100231C
S31500004460636023692360A38943F00803A38123695A
S315000044704BB9A38903F42073B3F5007F03D021461B
S31500004480304600F069F8A089B4F90C2010F0010359
S315000044900AD00023A36063695B42A361236943B921
S315000044A010F08000BAD170BD810758BF6369A36060
S315000044B0F4E70020F7E700BF200000208453000047
S315000044C0A45300006453000038B50023054D04468C
S315000044D008462B6000F0BEFB431C02D12B6803B1DB
S315000044E0236038BD7404002038B50446064D0846DE
S315000044F0114600222A601A4600F0C4FB431C02D172
S315000045002B6803B1236038BD7404002070B50E46D5
S31500004510B1F90E1096B0144600291D4608DAB6F910
S315000045200C3000222A601A0610D44FF480630EE085
S315000045306A4600F05FFB0028F1DB019A02F4704244
S31500004540A2F500535A425A412A60EEE74023002062
S31500004550236016B070BDFFFF8B8973B59D070646B5
S315000045600C4607D504F147032360236101236361E9
S3150000457002B070BD01AB6A46FFF7C8FF0099054659
S315000045803046FFF779FD48B9B4F90C309A05EFD4F7
S3150000459023F0030343F00203A381E3E70D4BB36269
S315000045A0A389206043F080032061A381009B63619F
S315000045B0019B5BB1B4F90E10304600F02DFB28B11B
S315000045C0A38923F0030343F00103A381A0890543D4
S315000045D0A581CDE7CD3D00000148FFF7C9BC00BF6E
S315000045E0680400200148FFF7C4BC00BF680400202F
S315000045F09368013B002B936010B408DA9469A342D8
S3150000460001DB0A2903D15DF8044BFFF78BBE136863
S31500004610581C1060084619705DF8044B7047F8B5D1
S3150000462006460F461446D518AC4201D1002007E0D5
S315000046303A4614F8011B3046FFF7DAFF431CF3D164
S31500004640F8BDFFFF2DE9F04F0D469DB01446984684
S31500004650064618B183690BB9FFF7ECFB894B9D42FF
S315000046601BD175686B6ED90705D4AB899A0502D440
S31500004670A86DFFF77DFCAB891B0701D52B69EBB94C
S3150000468029463046FFF7B2FEC0B16B6EDC070ED589
S315000046904FF0FF301DB0BDE8F08F7B4B9D4201D13E
S315000046A0B568DFE7794B9D4208BFF568DAE7AB8965
S315000046B09805EDD4A86DFFF75CFCE9E70023CDF87B
S315000046C00C804FF00109DFF8C881099320238DF88B
S315000046D0293030238DF82A3023469A4613F8012BC9
S315000046E00AB1252AF9D1BAEB040B0BD05B46224658
S315000046F029463046FFF793FF013000F0AA80099A59
S315000047005A4409929AF80030002B00F0A280002348
S315000047104FF0FF320AF1010A049307938DF85330E4
S315000047201A93CDE9052354460522594814F8011B6E
S3150000473000F082FA049AD8B9D10644BF20238DF836
S315000047405330130744BF2B238DF853309AF80030AB
S315000047502A2B15D0079A544600204FF00A0C214602
S3150000476011F8013B303B092B4ED9B0B1079214E04A
S31500004770A0EB0803A24609FA03F313430493D2E716
S31500004780039B191D1B68002B0391BBBF5B4242F0C4
S31500004790020207930793B8BF049223782E2B0CD1FD
S315000047A063782A2B35D1039B02341A1D1B68002B14
S315000047B00392B8BF4FF0FF330593DFF8E4A003225E
S315000047C02178504600F038FA40B14023A0EB0A00A9
S315000047D0013403FA00F0049B0343049314F8011B0D
S315000047E006222C488DF8281000F026FA00283FD023
S315000047F0294B1BBB039B073323F0070308330393A3
S31500004800099B3B44099367E70CFB02320C460120E7
S31500004810A5E7002301344FF00A0C194605932046FC
S3150000482010F8012B303A092A03D9002BC5D005917F
S31500004830C3E70CFB012104460123F0E703AB2A463C
S3150000484004A930460093154B00E000BF0746781CCC
S31500004850D6D16B6ED90705D4AB899A0502D4A86D5B
S31500004860FFF787FBAB895B063FF512AF099811E7A7
S3150000487003AB2A4604A930460093084B00F082F8A1
S31500004880E4E700BF84530000A45300006453000013
S31500004890C8530000D2530000000000001F4600006D
S315000048A0CE5300002DE9F047164699468A6807461A
S315000048B00B690C46DDF820809342B8BF134633607F
S315000048C091F843200AB1013333602368990642BF49
S315000048D0336802333360256815F0060506D104F106
S315000048E0190AE36832689B1AAB4229DC94F8432024
S315000048F0131E226818BF012392062ED404F1430228
S3150000490049463846C047013021D023681A3454F846
S315000049100E5C03F0060332680026042B54F8123CA2
S3150000492008BFAD1A54F80A2C14BF002525EAE57510
S315000049309342C4BF9B1AED18B5421AD1002008E075
S315000049400123524649463846C047013003D14FF04D
S31500004950FF30BDE8F0870135C3E7E1185A1C302067
S315000049600233224481F8430094F8451082F843103C
S31500004970C4E70123224649463846C0470130E6D0FF
S315000049800136D9E72DE9FF470F7E914680460C4652
S31500004990782F9A460C9D01F1430207D8622F0AD858
S315000049A0002F00F0D880582F00F0A38004F14205B4
S315000049B084F842703AE0A7F16303152BF6D801A1FB
S315000049C051F823F01D4A0000314A0000AD490000AD
S315000049D0AD490000AD490000AD490000314A000074
S315000049E0AD490000AD490000AD490000AD490000E9
S315000049F03D4B0000614A00001F4B0000AD4900001E
S31500004A00AD4900005F4B0000AD490000614A00005F
S31500004A10AD490000AD490000274B00002B681A1D68
S31500004A201B682A6004F1420584F842300123A3E0A2
S31500004A3020682968060601F104030AD50E682B6072
S31500004A40002E03DA2D23764284F843305E480A238B
S31500004A5019E00E6810F0400F2B6018BF36B2EFE772
S31500004A602B682068191D2960010601D51E6802E021
S31500004A704606FBD51E886F2F53480CBF08230A2312
S31500004A80002184F843106568002DA560A2BF216847
S31500004A9021F0040121600EB9002D4DD01546B6FB5C
S31500004AA0F3F103FB1167C75D05F8017D37460E4636
S31500004AB0BB42F4D9082B0BD12368DE0708D523693E
S31500004AC061689942DEBF302305F8013C05F1FF35E8
S31500004AD0521B22614B4603AA21464046CDF800A050
S31500004AE0FFF7E0FE01304CD14FF0FF3004B0BDE8D7
S31500004AF0F087354881F845702968236851F8046BBA
S31500004B0029601D0614D5DF0744BF43F02003236048
S31500004B101EB9236823F0200323601023B0E723681F
S31500004B2043F0200323607823284884F84530E3E7E0
S31500004B30590648BFB6B2E6E71546BBE72B682668B6
S31500004B40181D6169286035061B6801D5196002E0E9
S31500004B507006FBD51980002315462361BAE72B683A
S31500004B6000211A1D2A601D686268284600F064F854
S31500004B7008B1401B606063682361002384F84330FA
S31500004B80A8E723692A4649464046D0470130ABD0BC
S31500004B9023689B0713D4E068039B9842B8BF184666
S31500004BA0A4E70123324649464046D04701309BD010
S31500004BB00135E36803995B1AAB42F2DCEBE70025AB
S31500004BC004F11906F5E700BFD9530000EA530000C7
S31500004BD038B50446064D0846114600222A601A4694
S31500004BE0FEF730FE431C02D12B6803B1236038BDAB
S31500004BF07404002038B50023064D044608461146C5
S31500004C002B6000F02FF8431C02D12B6803B1236000
S31500004C1038BD00BF7404002038B50023054D044696
S31500004C2008462B6000F026F8431C02D12B6803B11E
S31500004C30236038BD74040020C9B2024410B5904206
S31500004C40034601D1002303E01C7801308C42F6D1E3
S31500004C50184610BD024B58224FF0FF301A607047BD
S31500004C6074040020024B58224FF0FF301A60704740
S31500004C7074040020024B582200201A60704700BFBF
S31500004C8074040020024B58224FF0FF301A60704720
S31500004C90740400204275696C742077697468205228
S31500004CA0656E6573617320416476616E6365642029
S31500004CB0466C657869626C6520536F6674776172BD
S31500004CC065205061636B6167652076657273696FF5
S31500004CD06E20342E352E3000342E352E3000000056
S31500004CE000000504F8B500BFF8BC08BC9E46704736
S31500004CF0F8B500BFF8BC08BC9E4670477561727473
S31500004D005F496E69742073756363657373210D0063
S31500004D104D50553630353020696E69742065727293
S31500004D203D25640D0A0000004D50553630353020C3
S31500004D3057484F5F414D5F49206572723D25642C8F
S31500004D402077686F3D3078253032580D0A00000014
S31500004D504D50552063616C6962206178303D256C49
S31500004D6064206179303D256C6420636E743D256C4A
S31500004D70750D0A006D70752061783D256420617996
S31500004D803D256420617A3D2564207C206461783D60
S31500004D90256C64206461793D256C64207C20726FEB
S31500004DA074453D256C75207C20657874413D256CE5
S31500004DB07520657874433D256C7520657874443D8F
S31500004DC0256C750D0A00FFFFC4000020944F0000FB
S31500004DD0E8500000CC000020E04D000084510000A7
S31500004DE000000000000000000000000000000000BD
S31500004DF0FFDFFFDF10010020004E000024510000FD
S31500004E0001000000A086010068000000010C0809EE
S31500004E100A0B000000000000000000004102000034
S31500004E2000000000284E00000101031C1CFFFFFFCC
S31500004E300200000080841E000000000040420F00B7
S31500004E4000FFDF000000000000000000504E0000E0
S31500004E50010001000000000000000000000000004A
S31500004E60000000000000000000000000000000003C
S31500004E700000FFFFDFDF0000000000000000000070
S31500004E800200000080841E000000000040420F0067
S31500004E9001FFDF000000000000000000A04E00003F
S31500004EA001000100000000000000000000000000FA
S31500004EB000000000000000000000000000000000EC
S31500004EC00000FFFFDFDF0000000000000000000020
S31500004ED00200000080841E000000000040420F0017
S31500004EE002FFDF000000000000000000F04E00009E
S31500004EF000000100000000000000000000000000AB
S31500004F00000000000000000000000000000000009B
S31500004F100000FFFFDFDF00000000000000000000CF
S31500004F20020200000C040C050C060C070000000031
S31500004F3000000000C137000000000000404F0000E4
S31500004F4000010000000000200F00FFFF000000002D
S31500004F50FFFF0000E0010020604F0000C450000089
S31500004F60070200000C000C010C020C0300000000FC
S31500004F70000000009937000000000000804F00008C
S31500004F8000010000040000200F00FFFF00000000E9
S31500004F90FFFF00000D0000009C4F00000000010014
S31500004FA008010000000001030901000000000103E0
S31500004FB00A010000000001030E01000000000100CC
S31500004FC000030000000001040103000000000104CA
S31500004FD002030000000001030E04000000000103AC
S31500004FE00F040000000401070B0500000004010780
S31500004FF00C050000000001050D060000000001057B
S315000050000E060000AA01AB01AC01AD018C018D01B9
S315000050108E018F01780079007A007B000000000085
S31500005020000000000000000000000000000000007A
S31500005030000000000000000000000000000000006A
S31500005040000000000000000000000000000000005A
S31500005050000000000000000000000000000000004A
S31500005060000000000000000000000000000000003A
S31500005070000000000000000000000000000000002A
S31500005080000000000000000000000000000000001A
S31500005090000000000000000000000000000000000A
S315000050A000000000000000000000000000000000FA
S315000050B000000000000000000000000000000000EA
S315000050C00000000019090000C9070000D50700000C
S315000050D02D08000079080000850800001D08000062
S315000050E0FD060000C10800003D1100005D0E000035
S315000050F0511100005D110000210F0000750F000026
S31500005100690E0000BD0E0000DD0E0000090F000054
S31500005110590F00008D0E0000A10E000002040304CA
S315000051200404FFFF65150000811300005113000001
S31500005130D91500000512000011120000211200000E
S315000051400916000000000000FFFF0000002000001C
S315000051508000000000000100FFFF0F00008000003B
S315000051608000000000000008FF1F0008400000004B
S31500005170040000000200000044510000010000008D
S315000051806451000041220000FD230000C9240000F4
S3150000519009260000351F0000611F0000091F0000DE
S315000051A0291F00002D1F0000251F000055280000A4
S315000051B0F1200000311F00003D220000CD1F00003D
S315000051C00100020008001000536572766F3A205005
S315000051D06572696F64203D20256C7520636F756E5E
S315000051E07473202832306D73290D0A005365727668
S315000051F06F2D423A20447574794379636C65536523
S3150000520074204572726F720D00000000536572764D
S315000052106F2D413A20447574794379636C65536503
S3150000522074204572726F720D00000000536572762D
S315000052306F2D433A20447574794379636C655365E1
S3150000524074204572726F720D00000000536572760D
S315000052506F2D443A20447574794379636C655365C0
S3150000526074204572726F720D0000000053657276ED
S315000052706F3A20496E697469616C697A6564207356
S3150000528075636365737366756C6C790D00FFFFFF5C
S31500005290E29C9320E5B7B2E59CA8E79BAEE6A08723
S315000052A0E8A792E5BAA63A20256C75C2B00D0A00A9
S315000052B0E888B5E69CBAE8BDACE58AA83A20256C34
S315000052C075C2B020E2869220256C75C2B02028E90E
S315000052D0809FE5BAA63A20256C756D732FE6ADA5BD
S315000052E0290D0A0020E8BDACE58AA8E8A2ABE4B81F
S315000052F0ADE696AD2120E5BD93E5898DE8A792E55B
S31500005300BAA63A20256C75C2B00D0A002020E8BD69
S31500005310ACE58AA8E8A2ABE4B8ADE696AD2120E5F7
S31500005320BD93E5898DE8A792E5BAA63A20256C7566
S31500005330C2B00D0A00000000E29C9320E8BDACE577
S315000053408AA8E5AE8CE68890EFBC8CE5BD93E5892E
S315000053508DE8A792E5BAA63A20256C75C2B00D0A6B
S315000053600D0A00FF00000000000000000000000021
S315000053700000000000000000000000000000000027
S315000053800000000000000000000000000000000017
S315000053900000000000000000000000000000000007
S315000053A000000000000000000000000000000000F7
S315000053B000000000000000000000000000000000E7
S315000053C00000000024000020232D302B2000686CF4
S315000053D04C00656667454647003031323334353612
S315000053E0373839414243444546003031323334354B
S315000053F03637383961626364656600FF0000000075
S30D0000540008E5FF7F0100000032
S315000054084000350040003500B40000005A00000096
S31500005418B40000005A0000005A0000005A000000BC
S31500005428240000200000000084530000A45300005C
S3150000543864530000000000000000000000000000A7
S31500005448000000000000000000000000000000004E
S31500005458000000000000000000000000000000003E
S31500005468000000000000000000000000000000002E
S31500005478000000000000000000000000000000001E
S31100005488000000002502000001020000E8
S3150100A100FFFFFFFFFFFFFFFFFFFFFFFFFFFFFFFF58
S3090100A110FFFFFFFF48
S3090100A134FFFFFFFF24
S3150100A200FFFDFFFFFFFFFFFFFFFFFFFFFFFFFFFF59
S3150100A210FFFFFFFFFFFFFFFFFFFFFFFFFFFFFFFF47
S3150100A220FFFFFFFFFFFFFFFFFFFFFFFFFFFFFFFF37
S3150100A230FFFFFFFFFFFFFFFFFFFFFFFFFFFFFFFF27
